:4000000000800020110000003D0300003D03000010B500F09BF9C04670B51222224B1A6000F00CFB214800F03FFE012000F026FB302000F01DFA1E4A1E4B1A601E4C802590
:40004000ED0525601D4A116802230B4313601C4A1C4B1A6000221C4B1A601C4A136808218B431360FA20C00000F0B4FA184800F0F5F99C229202174B1A60174A174B1A608D
:4000800080221206164B1A608022D202154B1A604022154B1A601549082000F0B5F9082000F0A6F9256070BD30001040001BB7000600008004010B400C020B4078002E402B
:4000C0002D3E00007C002E4064F02E406CF02E40DC0500000003014040FF00800000014008010B4000010B402C0101409507000070B572B600223E4B1A6001323D4B1A7099
:4001000000240FE03C486200131959000B00411889881A5AC31858880004104300F004F90134E4B2022CEDD9002411E0324EA2001319590071188D8AC88A000428430A8BE8
:40014000498B09041143802200F0F4F80134E4B2002CEBD0284920312848583000F0BAF880225200264B1A80FF3A264B1A70EE221206254B1A60C0229203244B1A6099235D
:400180001B04234A13602349234A116080218904224A1160A221C905214A1160214A13600223214A1360214A136021490B783C22934314221343DBB20B701E4A11781623E0
:4001C0000B43DBB21370D82212041B4B1A6020221A4B1A60C4229202194B1A60C022D200184B1A60FFF718FF00F08EF870BDC0466CF02E401C700F40F4450100F4470100D6
:4002000000600F4002600F40000002400001024000500F400400990010500F4014500F4018500F4030500F402000104000800F4001700F4000700F40080004400001044066
:40024000080104400803044010B5064C2378002B07D1054B002B02D0044800E000BF0123237010BDF812002000000000F0450100084B10B5002B03D00749084800E000BFBC
:4002800007480368002B00D110BD064B002BFBD09847F9E700000000FC120020F0450100400E00200000000010B5012802D1002000F02AFB10BDC04610B562B6044800F001
:4002C000C9FA642000F0B2F801F022F8F9E7C046A9020000F0B50025002711E0BB00C658F3B2FF22964308E06A008A181478A419527822700135013BDBB2002BF4D1013767
:40030000072FEBD9F0BDC0460323044A1360044A13600022034B1A607047C0463000304030003140000E3F4010B50A00002100F0ADFF10BD10B500F0A0FF10BD10B500F0C4
:4003400061FF03680C2B00D1FEE7FEE770B50F4E0F4D13E029686B68AC68002202E001C901C30432A242FAD1E868002202E0002102C304328242FAD11035013E002EE9D1B5
:4003800000F046FFFFF798FFFEE7C04601000000AC4C010010B50E4A136801218B43136000230AE0032B03D89A000A49505800E009489900094A885001332F2BF2D9FFF7AC
:4003C00097FE034A116801230B43136010BDC04600001040000000003D03000000000020024B1B68012018407047C0460C002E401F2318401E3B8340014A13607047C04689
:4004000000E100E001BE704770B504000D001F2802D90020FFF7F6FF1034A40080239B059C4664442068256070BDC04610B5040006E0084B586800F037FC074B9C4664446C
:4004400080231B029C42F4D8024B9868604300F02BFC10BD440E00200080FFFF10B5034B1B7B584300F020FC10BDC046440E0020F0B557464E46C0B483B0040000F01DFC2F
:400480000190E71E2D2F74D83F4B1B78DBB29C4208D83E4B1B78DBB29A463D4B1B78DBB2994631E03B4B1B78DBB29C4208D83A4B1B78DBB29A46394B1B78DBB2994623E006
:4004C000374B1B78DBB29C4208D8364B1B78DBB29A46354B1B78DBB2994615E0334B1B78DBB29C4208D8324B1B78DBB29A46314B1B78DBB2994607E02F4B1B78DBB29A46F2
:400500002E4B1B78DBB299462D4BDE5D2F2E09D92A2C07D919222B4B1A60052000F0C4FB192503E0274B1D683F231D40B54206D9234BDA5D234B1A60052000F0B5FB1F4BB3
:400540009C4664442378DBB21F4A13601F4B52461A601F4B4A461A600520FFF77FFFB5420AD2174BDA5D174B1A60052000F09CFB02E00020FFF746FF019800F0A2FB03B05A
:400580000CBC91469A46F0BD40F3FF0F41F3FF0F42F3FF0F43F3FF0F44F3FF0F45F3FF0F46F3FF0F47F3FF0F48F3FF0F49F3FF0F4AF3FF0F4BF3FF0F4CF3FF0F4DF3FF0F26
:4005C000EC4801002CFF0B4028FF0B401CFF0B4020FF0B4010B504000F4A116801230B4313600E4A0E4B1A600E4A1368802109020B431360002809D100200CE00120FFF7FE
:400600002DFFFFF7EDFE002804D1013C002CF5D1102000E0002010BD60F02E400220000078002E4010002E40034B1868C0231B02184000D00120704700010B4010B50D4B09
:400640001A6801218A431A601A68022082431A60094A10683024A043203C204310601068093CA043014311601A68802109060A431A6010BD00F02E4000FF2E4070B51D4B08
:400680001B6801241C40002802D0012816D02BE0184B19680122914319601968022081431960154B19682E3081432038014319601968093881430A431A6018E00D4B1A68B7
:4006C00002218A431A600C4A10680725A84301431160116830208143103801431160196801220A431A6002E00020FFF78BFE200070BDC04600F02E4000FF2E4010B500F0AD
:40070000DCFA044A1368C02109020B43136000F0D8FA10BD00010B4010B500F0CEFA08490A68084B1A408024E40122430A600A6813408022120213430B6000F0C2FA10BD98
:4007400000010B40FF3FFFFF70B5050000F0B5FA0400FFF769FF002803D0FFF7DDFF012100E0002108482840084A1568084B2B40184310601368012901D1FFF7BFFF20007B
:4007800000F09FFA70BDC0460404040010020B40FBFBFBFF10B5244B1B685B0715D5234B5B685B070ED5224B596A042001401F4C62688A4362605A6A82435A629B69002BDE
:4007C00000D098470420FFF7BFFF174B1B685B0518D5164B5B685B0510D5154B596A8022D2001140114842688A434260596A114A0A405A62DB69002B00D098478020C000DB
:40080000FFF7A2FF084B1B685B030CD5074B5B685B0304D5064B1B6A002B00D098478020C002FFF791FF10BD10020B40580E002014130020FFFBFFFF0023034A1370034AF9
:400840001370034A13707047C7240020C0240020C624002010B590B00400142221490BA800F00BFD204B1B78002B04D1FFF7E4FF01221D4B1A70002C30D01C4B1C6008AC52
:4008800005AA099206AB089302212181193119805980173919710823137000F02FFD16216944200000F010FE002818D1104B0293104B0193052300930BABD82212010E49B6
:4008C0000E4800F057FD002809D101220C4B1A7008321A210B480FF0B1FA00E0012010B010BDC0461C4901003C130020B424002079020000005A0100C0000020610A000064
:40090000BE2400203049010010B502282ED81B4B1B78042B2CD11A4B1B785B072BD4002809D1184B00221A824132FF3259680A805B685A800CE001280AD1124B96221A8278
:40094000C822D20059680A805B688022D2015A800D4B18700B480CF0BBFE00280DD1084A117804230B43DBB2137006E0012004E00420FF3001E00420FF3010BDBE240020CF
:40098000C7240020600E0020C62400207047C04603784078000218437047C04670B5050083890D2B1FD1043033332A0000210FF05DFA041E11D16868FFF7EAFF830706D5D9
:4009C0000A4B1B68290082204000984705E0074B1B6829000620FF309847054A137801218B43137000E00024200070BDB4240020C7240020024B00225A701A707047C046FD
:400A0000C424002010B582B00400FFF7C7FF0A4B1B78DB070ED4002809D001A912238B70A3890B80C87020680DF0A0FF02E020680EF014F802B010BDC72400208379002B38
:400A400007D000200BE0C25C002A07D10133DBB200E00023052BF6D9002000E001207047F0B583B005000C007B4A117801230B43DBB213704C2800D9DDE08300774AD358A7
:400A80009F4601AE0727377000237370300002F06DFC377001237370300002F067FC00F029FC6F4B1E683000FFF7C8FF00280CD0300000F031FC6A4E00213068FFF766FFAA
:400AC00030680121FFF762FF2AE0664B1F78664B18788001FC263601020032403F2139401143624B1B781B03F8225202134019435F4B1B785B04FE22120413400B435D4E3E
:400B000033701A0A72701B0CB370300000F004FC00213000FFF73AFF01213000FFF736FF00200CF0B7FC0222534901A800F0A5FB01A80CF0CDFC0422504B1A707BE022782F
:400B40004F4B1A7077E02378002B74D16378002B06D14C4B0022DA809A804B4A1A6063603D4A137801218B43137064E03A4B1B789B0660D4454B1B78102B5CD10522434B1D
:400B8000DA7058E002223D4B1A7054E002223B4B1A7050E00422394B1A704CE0374B1B78022B48D02C4A1278D20744D52A4A1278520708D50322314B1A70274A13780421B9
:400BC0008B43137037E0244A1278120708D504222A4B1A70204A137808218B4313702AE0032B28D10422254B1A7024E0284E02222100300000F041FB0022214B1A703378DC
:400C00005A00D21853002349C918234B9C4661440622224800F031FB0DE0FFF7EBFE0AE06188162900D9172120880DF0A9FE02E02000FFF7E7FE084B1A7811231A4209D0C7
:400C4000054A137801218B431370154B1B6821002800984703B0F0BDC7240020404B0100740E00207CF2FF0F7DF2FF0F7BF2FF0F78F2FF0F780E0020744C0100BE2400202E
:400C8000C024002060130020400E0020340F0020C4240020005A010079020000B8240020B4240020000000000230800803D00138FDD1C046C046C0467047EFF3108072B603
:400CC000704780F31088704710B5FFF7F6FF044A136804218B43136030BFFFF7F2FF10BD10ED00E00160704701607047324B1A781202324B1B781A43314B1B781B023149B6
:400D000009780B4330498B4201D1072A06D0D42109018B4206D1042A04D102E02B4B042200E02A4B2A490B602A4B1A602A4B1B781B022A4A1278134380229201934202D02A
:400D4000002B02D002E0264B00E0254B254A1360254B1B781B02254A12781343244A934205D0244A934204D0052B05D103E0224B02E0214B00E0204B204A1360204B1B6899
:400D80001B09204A1268AA2A15D1012B13D9164B1B780E2B0FD11C4B1B781B021B4A127813431B4A13601B4B1B781B021A4A127813431A4A1360704759F1FF0F58F1FF0F81
:400DC0005FF1FF0F5EF1FF0F580B0000580D00006C002E4074002E405BF1FF0F5AF1FF0F0220000078002E405DF1FF0F5CF1FF0F0F0F000005050000050F000080002E4018
:400E0000EC0F00F0E00F00F06DF2FF0F6CF2FF0F84002E406FF2FF0F6EF2FF0F94002E4010B5FFF71BFB10BD10B5FFF7FFFA10BD10B500F04FF810BD10B500F053F810BD89
:400E400010B500F04FF8034800F02EF8032000F031F810BD110F000010B5024800F04AF810BDC046110F000000487047020200002B2070472B2070472B2070472B207047AD
:400E80002B2070472B2070472B2070472B2070472B2070472B2070472B2070477047C0460120704701207047014B18677047C0460000002010B50400FFF7FFFE044A13688A
:400EC000C0218B43A4011C431460FFF7FAFE10BD0CE400E080225201014B1A607047C04600E100E080225201014B1A607047C04680E100E010B50400FFF7F4FF2000FFF786
:400F0000D3FF0320FFF7D6FFFFF7E4FF10BDC04610B513F059FB10BD002243088B4274D303098B425FD3030A8B4244D3030B8B4228D3030C8B420DD3FF22090212BA030C46
:400F40008B4202D31212090265D0030B8B4219D300E0090AC30B8B4201D3CB03C01A5241830B8B4201D38B03C01A5241430B8B4201D34B03C01A5241030B8B4201D30B0376
:400F8000C01A5241C30A8B4201D3CB02C01A5241830A8B4201D38B02C01A5241430A8B4201D34B02C01A5241030A8B4201D30B02C01A5241CDD2C3098B4201D3CB01C01A72
:400FC000524183098B4201D38B01C01A524143098B4201D34B01C01A524103098B4201D30B01C01A5241C3088B4201D3CB00C01A524183088B4201D38B00C01A5241430859
:401000008B4201D34B00C01A5241411A00D20146524110467047FFE701B5002000F0F0F802BDC0460029F7D076E7704703460B437FD4002243088B4274D303098B425FD370
:40104000030A8B4244D3030B8B4228D3030C8B420DD3FF22090212BA030C8B4202D31212090265D0030B8B4219D300E0090AC30B8B4201D3CB03C01A5241830B8B4201D34D
:401080008B03C01A5241430B8B4201D34B03C01A5241030B8B4201D30B03C01A5241C30A8B4201D3CB02C01A5241830A8B4201D38B02C01A5241430A8B4201D34B02C01A7C
:4010C0005241030A8B4201D30B02C01A5241CDD2C3098B4201D3CB01C01A524183098B4201D38B01C01A524143098B4201D34B01C01A524103098B4201D30B01C01A5241FE
:40110000C3088B4201D3CB00C01A524183088B4201D38B00C01A524143088B4201D34B00C01A5241411A00D201465241104670475DE0CA0F00D04942031000D340425340C3
:4011400000229C4603098B422DD3030A8B4212D3FC22890112BA030A8B420CD3890192118B4208D3890192118B4204D389013AD0921100E08909C3098B4201D3CB01C01A44
:40118000524183098B4201D38B01C01A524143098B4201D34B01C01A524103098B4201D30B01C01A5241C3088B4201D3CB00C01A524183088B4201D38B00C01A5241D9D237
:4011C00043088B4201D34B00C01A5241411A00D20146634652415B10104601D34042002B00D54942704763465B1000D3404201B5002000F005F802BD0029F8D016E77047B2
:401200007047C046014B18687047C046F01200200E4B70B500251E000D4CE41AA410A54204D0AB00F35898470135F8E713F02CFD084B00251E00084CE41AA410A54204D052
:40124000AB00F35898470135F8E770BD944C0100944C0100944C01009C4C010030B50024A24208D0035D651C0C5DA34201D0181B02E02C00F4E7002030BD002310B59A4219
:4012800003D0CC5CC4540133F9E710BD03008218934202D019700133FAE77047134A1088810703D08107890F401A001D11791030484381B25088820703D08207920F801A3A
:4012C000001D800040180A494030098980B2CA0701D0503080B2890706D504495422091F09785143081880B270470000400F00207413002010B501F017FF10BD10B501F045
:40130000D5FF0BF02BFF10BD10B501F013FF10BD10B500F05BFA10BD10B50749044609780220002907D1204601F060FF002802D120460CF0B3F910BDDC10002070B5044671
:401340000120002C12D02368002B0FD0616800290CD0074D06222889208118462968FFF78CFF6968606809780170002070BD000074130020FFB585B0002768460E9D07733B
:401380004F481C460078002802D0082009B0F0BD10990F9801900095029105A807C800F007F90028F2D16946264603AB84460873002C19D0002115E08A00B75A082F09D9E7
:4013C00090198078002805D0083FB7521878401C187005E0002914D00027B75290198770491CC9B2A942E7D360460028CED10F98002809D0109901F047FA002804D0012037
:40140000C4E701208446EFE701F094FE2D480021416081600599016021888180022D07D3A1798171A17AC171A1890181218A418100211EE0481C19E082008B00A75AE65AB7
:40144000BE46BE4211D26F463E80B4461E190296B678BE7001967646E6521719029EBB78B3706646A652019EBE70401CA842E3D3491CA942DED3134822460C300090684691
:40148000037B0799069800F01BF90028B8D168460B4C007B60700B480C3001F087FE0028AED1084907480C3109F062F90028A7D109F07CF90028A3D10121217066E70000E4
:4014C0003A0F002068130020F8B5054636480F460078002802D002242046F8BD002F60D000243249002D16D02A89D0070DD02868002808D003881B3BE12B04D24088FB28B4
:4015000001D81B2801D2012409E0900707D56868002804D1F7E70020088108604860002CDAD122482E8906811F481B21801D01804180042101711C490020891C0870F007A6
:4015400005D019480622801D2968FFF796FE1749B00703D56A68144812788270124D0E46AD1D281F0D60486001F066FE284601F055FE30890FF08AFD30890EF073FF2888C4
:401580000EF076FF30890FF0EBFE03461033FFF785FE1F21C018890140183880A91F88809AE7012498E700003A0F002074130020FFB58446384F1C460020BB883F7805468F
:4015C00002460646002F11D100290ED0029999420BD36146002908D0002C06D00A99002906D02E4B0B99994202D2012004B0F0BD002144E0AB001F19BF78002F3BD0E35A7B
:40160000002B38D07B43591889B22B0000F04AF8050410161C253100A7782388BC46FF27233BEB37BB4222D26346032B1FD322E0A388002B1FD0302B19D31CE02389002B82
:4016400019D0282B13D316E0A289002A13D01346134F233BBB420AD20DE0268A002A0AD033460F4F233BBB4201D2964203D901200EE0002001E000280AD16D1CEDB2099BEF
:401680009D42B7D31C2463435B1802998B42ACD89642AAD8AAE700003A0F002079020000BAFF000030B47446641E2578641CAB4200D21D46635D5B00E31830BC1847000034
:4016C000FFB583B0002469460C801F4606468C80002806D00598002803D004983043800701D0012466E0002FFBD03449049809888842F6D3FFF7B0FBFFF79EFB00F016FC16
:40170000002855D100F07EFD002851D12C49084601F0EEF805042D0C4AD12A480499066081800021C18007810C98007AC00704D0684601F018FD040007D10C98007A800761
:4017400003D501A801F024FD0446BF1DFEB2002C20D13146059800F05DF804001AD10FF00DFE040016D16A461088928808368518144AF1B29088D288AEB29319984207D336
:40178000401B801A80B201F0A3FB050007D000E0FF25012400F062FA002D04D008E0F8B200F01CF9F6E700F085FA07490120087000F0CEFB204607B0F0BD00003E0F002065
:4017C0000119000080130020460F002010B503480078012801D101F01DFA10BD460F002070B5084B0446DA889E8803205518B54206D8186880182060D8884018D880002063
:4018000070BD000080130020014800897047000080130020F0B587B007460D4600208900009006916846FFF7DBFF844600285DD1304800990160002117E02E4B88001A6895
:401840000629115406D22C4C0419667882185670628805E0C419203CA67A8218567022891B68C018491C4280C9B2A942E5D300242DE0601CC2B2059025E01E4FA3003968EA
:401880009600581840887118039604904E88B04217D938466F46FE80B6464F786E4677710297049F4F800168039F5E18767879184E700168764659184E800068029F181876
:4018C0004770521CD2B2AA42D7D30598C4B2AC42CFD36046002809D168460699FFF780FF8446002802D1054900980860604607B0F0BD0000480F0020C04C01004C0F002080
:401900007047000010B5002809D005494A68002A05D0011F08788000105801F087FA10BD480F002010B50446FFF76EFFC0B2801DA0420CD307484068002808D0A10040587B
:4019400001F0E6F9002801D00470001D10BD002010BD0000480F0020F8B516460D460446FFF752FFC0B2801DA04203D20020C0430090F8BDB2B2E9B2684601F0EFF90099A2
:40198000481C03D0024AA000526811500098F8BD480F0020F8B50746FFF736FF801DC6B20A49002005460C680DE06178002907D06188B94202D32078FFF7B4FF002804D1FC
:4019C000241D6D1CEDB2B542EFD3F8BD480F002010B5002801D0FFF795FF10BD70B506460948002504680BE06178002905D062882078121D0023FFF7AFFF241D6D1CEDB28E
:401A0000B542F1D370BD0000480F0020FFB581B00A9F16000C4620D000F0F6F8054604281BD0002F0CD03846FFF7B4FF20492A0151184860002810D03A460499FFF71DFC16
:401A40001B4928010E504618778101980570200406D47D20C000444304E0FF2005B0F0BD6404640C00F0BEF80746042807D000F053FAA0420BD800F04FFA201A03E0204644
:401A800000F0AEFA0020F06035720020E6E700F043FA009000F0BAFA00980121001B009000F0F0F802493A0151180098C860E6E78C130020F8B5042801D3FF20F8BD060129
:401AC00016483418217A042903D0E068002802D017E00020F8BD00F01FFA054600F096FA00F0A0F804280CD001010C480F18F8680021451900F0C6F80020F860284600F04F
:401B00006FFA6068054D002801D0FFF761FF042020720020A8516081E060DAE78C130020FEB500266A46304601232549050169180D7A042D02D0C96800291BD000211154F6
:401B4000401CC0B20428F0D300246846005D002830D01B48210108184189476805680291002101604160042241810272C160002E02D015E01354E3E700F054F804280ED027
:401B800001010F4808180190C6680021304600F079F801980021C160304600F021FA0126002D07D038460299A847002F02D03846FFF70EFF641CE4B2042CC6D3FEBD00004A
:401BC0008C1300200EB5002005216A4600901181508103486946006810F057FA0EBD0000500F0020074A0020010189180B7A042B02D0C968002903D0401CC0B20428F3D3F6
:401C0000704700008C1300200549002002015218127A042A03D0401CC0B20428F6D370478C13002030B50A4B04200A4C00210A011219157A042D06D0D268002A03D09A42D9
:401C400001D808461346491CC9B20429EFD330BDFFFF00008C1300207047000030B50020074C05460423020111190B72A5504D60401C4D81C0B2CD600428F4D330BD0000F5
:401C80008C13002030B5094C00231A011219157A042D04D0D568002906D02D18D5605B1CDBB2042BF1D330BD2D1AF7E78C130020002070471CB5002469460C7014200190F4
:401CC0002346054A054810F0E5F904480068401C00D1FF2420461CBD311D0000500F00203EB5124A0146FF2000230124126800290DD0012914D0042908D1042069460093FA
:401D000008814B81104610F0C0F980B23EBD68460093048143816946104610F0B1F9F4E768460093048143816946EBE7500F002070B545890468416800890300FFF7B2FC3C
:401D400008280509091E22282628002007F0AEF91EE0022908D0C8B22A4621460EF0D6FA2046FFF735FE13E002202A4621460EF0CDFA2946204600F00DF809E000200FF076
:401D800083FE05E02046FFF7CBFE01E0FFF786F8002070BD014B0022DB681847540F002070B5448905680089022803D0032809D0FF2070BD2246094C0023A46829460120B2
:401DC000A04708E0FFF7A0FA241DA2B200232946022008F080FB002070BD0000540F002070470000024800214160018041807047540F002070B50C46002186B016460391FB
:401E0000012802D0022859D116E003A9012008F0B7FB01281BD1039D324621462846FFF72CFA0095287801900220694608814E816846FFF7B5FF41E0214D002B686809D01E
:401E4000049004A9022008F09BFB01281DD0022006B070BD002812D0298840182146FFF70CFA28880024801980B228806988091D884206D12C801348FFF792FF03E003204D
:401E8000E6E788421AD96C6018E004986860E278A378110219430B4A698000231060E3565360032313815181A1788170E178C1706178417021780170042028800020C7E781
:401EC000540F0020CC1300203EB515460C46022803D004280CD000203EBD0091019002206946088107484A81006810F0CEF807E00EF00CFA044B0022DB6829462046984789
:401F000001203EBD500F0020540F0020014AD16090607047540F0020034801688068081A0A21484300097047D813002010B5FEF787FF4C2204490548FFF79FF9034901205B
:401F4000C870002010BD0000DC4C0100DC17002010B5FEF76DFF10BD70B5134C2368002B08D0207B1149C20705D04008400020738868A08070BD88680B4AA18880B2926876
:401F8000814203D90A4D691A091802E0814202D2411A5118A160A080A0689842EAD310F091F800F013F870BDD8130020C0102E40FFFF000010B508461946FFF7A7FF10BDB7
:401FC000704710B5FFF780FF10BD000003480021016041608160C16070470000D8130020024610B5FF20002A0CD0FFF7EFFF064C0321207B0843207310010A21FFF712F8B0
:402000002060002010BD0000D813002000B504480A21806848430209FFF7D8FF104600BDD81300200248007B8007C00F70470000D813002010B54B490868002802DA4A4B54
:4020400001221A70022290430860484800694549C00B4031096A0246C907C90F0A4259D0012000F097FA3F480E216C30FEF73CFE3E4820218430FEF737FE3C4814219C306C
:40208000FEF732FE3948FF21C131A430FEF72CFE3648FF212F31B030FEF726FE33483449BC30FEF721FE31483249AC30FEF71CFE30492E48491CB430FEF716FE2B482E497C
:4020C000B830FEF711FE29482C49CC30FEF70CFE26482B490830FEF707FE24482949A830FEF702FE214828498830FEF7FDFD1F4826498C30FEF7F8FD1C481921C90290302E
:40210000FEF7F2FDFEF7F2FDFEF7AEFEC0B2022812D01FE000290BD0002101420AD0114801216030FEF7E0FD0120FEF77DFE97E70121F2E7FF2010BD15491648FEF7D4FD22
:4021400014481549001DFEF7CFFD124800210830FEF7CAFD54200449C043891C0870002010BD000000F02E40640F002000002E40320300002F3F00003102000010520000F3
:40218000EC160000FA12000031D000003AE300009956000080012E40F80F000070B50646581C80B245086D00002408E0304600F0C1F81055000A1119A41C4870A4B2AC42BD
:4021C000F4D3D80705D0D0182038D15CC47FD454C17770BD30B50A4C002100195B1E07E0541864782502545C2C430480891C89B29942F5DB994201D1515C018030BD0000ED
:4022000000102E4010B5FF2000F0C4F90F49FF2048700E481021801D41800121417001700A490020C91C4870FFF704FF04000AD100F010F907210648FEF754FD0448072126
:402240001830FEF74FFD204610BD0000640F0020CC112E4070B5002405465B1E0AE0284600F068F8010A161971702D1D1055A41CADB2A4B29C42F2DB9C4203D1284600F015
:4022800059F8105570BD000070B500210A4D5B1E0AE0541864782602545C344346193480001D891C80B289B29942F2DB994202D1515C4019018070BD00102E40F0B5059997
:4022C000091FCFB200217E1E0BE0541864782502545C2C43164D45192C80001D891C80B289B2B142F1DBFC0712D01C78515C24020F4A0C4381180C809C785D78001D210262
:4023000080B2294384182180001D80B2D9780CE059781A7809021143054A84182180001DD9789B78090280B2194380180180F0BD00102E40014940180088704700102E402B
:4023400010B50B490020487000F084F8002000F047F9002000F034F907210648FEF7C2FC044807211830FEF7BDFC002010BD0000670F0020CC112E4010B50B46062812D0EC
:4023800006DC01280CD0032801D1FFF7D9FF10BD0A28FCD00B28FAD105480078107010BDFFF730FF10BD1146184600F035F910BD6A0F0020F8B5244DAC6A0127A007234EF1
:4023C000002816DA307806280ED1286A384328621F480069F903084381B21D481030FEF783FC042000F0D6F8174802212830FEF779FCE00718D000F061FF01280FD10020A8
:4024000000F0AEFF062000F0C5F81049FF20C91E48707078002802D1686B384368630A4801212830FEF75EFCE0050BD53078042802D1052000F0AEF80348FF2101312830E2
:40244000FEF750FCF8BD000040F02E40670F002000002E4010B503212348FEF745FC0120FEF7DEFC20483038406A204C80076178800F890001431C480C38FEF735FC607802
:40248000002808D0401E022181401820FEF7B4FEC000083800E0B82081B21548FEF724FC1348032109021438FEF71EFC10481149B830FEF719FC612189010F48FEF714FCAD
:4024C0000D480321001FFEF70FFC0C490C48FEF70BFC0B480B496038FEF706FC084801218838FEF701FC10BD70F02E406A0F0020D8102E4090890000041E2E40FF0F000004
:4025000058122E40209000000848017806290BD140780749002803D1486B400840004863C86A01221043C86270470000670F002040F02E400148007870470000670F00208A
:4025400000B50300FFF7AEF8080D050D0B070507090D012000BD032000BD042000BD022000BDFF2000BD0000074A9168D26889B2064B92B2994204D105498A4201D1012140
:4025800000E000210170704780002E4033D000003FE3000010B50446FEF74EFC072C01D9FF2C01D102480470FEF742FC10BD0000670F00200149487070470000640F0020E7
:4025C00010B5064A012805D01921C9021046FEF78BFB10BD1D21C902F8E7000090002E4010B50A4A141D012808D009491046FEF77BFB08492046FEF777FB10BD0449104653
:40260000891CFEF771FB0349491DF3E788002E4031D000003AE3000070B50C460546FEF723FCC0B202280E49287804D0FF2810D04C280CD810E0FF2809D10A4AD0680004D7
:40264000800F032801D0087807E09069000A553803E00878207070BD4F382070087070BD660F002000002E40F0B50122002834D0002932D00424420600D00524792342068D
:402680005B06D21800D0641C034600221EE00C2516466E43124D00277519AF72104F002ABB51696007D0661EB24209D10D4E86197606760E05E05E06760E8027BE1B00E0F5
:4026C00080269B198919521C2E81D2B2A242DED303480549006B002288611046F0BD00006416002079020000700F002018B50020694608700A48006900280ED0132149018F
:402700004018047E684604704F21C900054800F05BF8A04201D0012018BD002018BD0000700F0020E8130020074900200C2242435218927A012A05D0401CC0B20628F5D31F
:40274000002070470120704764160020F8B50F000446164609D01A4D1A496868A04202D94018A04201D38E4201D90120F8BD39462046FEF773FD002820D032463946204631
:40278000FEF77BFD0E49F0B2012620318E7600210C220B4653430A4A9A1813895568EF18A74207D9641B1B1B9672834206DAC01A1469C0B2491CC9B20629E9D30020F8BD07
:4027C0006416002079020000034610B50020024604E09C5C2018521CC0B292B28A42F8D310BD000070B500F05FF8084C064A216907480D46FEF741FD05492846FFF734FF5E
:40280000FFF774FF207070BD79020000700F0020E8130020002070470020054A002902D0012902D002E0906000E0D06000207047700F002070B5084C154608460549E268EE
:4028400089182A46FEF719FDE0684019E06028B270BD0000E8130020700F00203EB50A226946FFF7E7FF044606480A2200686946FEF7F4FC002802D00020C0433EBD2046B2
:402880003EBD0000740F0020002802D0044A914201D2FF20704703494A6108610020704779020000700F0020024800218160C16070470000700F002070B5074C1546054882
:4028C000A26880182A46FFF741FFA0684019A06028B270BDE8130020700F002010B503490A220968FFF7E8FF10BD0000740F002010B50F4A002313600E4A13600E4B186023
:402900000E4801600E49012008600E490860000290600E490C4808600D4914300860FF381538506000F0BCF800F0CAF9002010BDA40F00208C0F0020B80F0020BC0F002062
:40294000A80F0020980F0020AC1700209C0F0020B00F0020014610B50020002910D0094B1A689C685118A14209D25868196080188A0704D08A07920F891A091D196010BD7F
:40298000002010BD8C0F0020F8B50024164E671E321F3D463168136806E01422624310328A58521C1BD0641C9C42F6D36A1C14D02C461422544322460C3288500C21484389
:4029C000FFF7C8FF3168002808510AD031680020103408517068401C70602846F8BD2546E4E73846F8BD00009C0F0020F3B50026F64381B000281BDB1E490968884217D88E
:402A00000299002914D01B4F142204463F1D54432546396810354859401C09D0FEF70CFA38682F1F4159C359994203DBFEF700FA3046FEBD214608310091465801590C201D
:402A4000704308180C220299FEF717FC0948761C001D0068C159B14200D100260549009A091D865008684159491C4151FEF7E0F90020FEBD980F0020002803DB074909682A
:402A8000884202D90020C043704704491422091D096850431030085870470000980F0020F0B500200D4A451E0346171F50600FE014260146714314680E1DA3510C4616688F
:402AC000083433511668083435511468401C635039688842ECD30020F0BD00009C0F0020F3B50026F64381B0002841DB2349096888423DD8029900293AD0204F1422044694
:402B00003F1D54432546396810354859401C2FD0FEF792F93868415900292BD0211D009146580C21005971430F46C1190C220298FEF7A3FB11480021001D0068761C00595C
:402B40000C34C0190160416081600C48001D00680159B14200D100260849009A091D865008684159491E4151FEF762F90020FEBD3046FEBDFEF75CF9FAE70000980F002004
:402B8000FEB504460D4600201E49089E0860471E009001900290002C11D0486885420ED2002A0CD0002E0AD0642E08D808460C3001681C2068430C18207A002801D0384625
:402BC000FEBD0120226020721846FFF7DDFE6060401C13D06681A6810A4827610C3067610179A94200D205710021684601810A462846029B00F040F82846FEBD002020726F
:402C0000DDE70000A40F002038B50124009400F039F838BDFEB50027164EFF433D4600240EE01C20316860430818017A002906D04068FFF721FF002801D0254603E0641C95
:402C40003079A042EDDA681C12D01C2130684D434419FEF7F1F869466068FFF741FF0546FEF7E6F8002DD9D1216868468847D5E7FEBD0000B00F002038B50024009400F069
:402C800001F838BD1FB500220C49541E0A60002811DB496888420ED808491C220C31096850430818406801A9FFF7A0FE401C02D0002004B010BD2046FBE70000A40F0020CA
:402CC000F0B50021114A4D1E174611710C3F0B46BD6016E008461C2460431668041D355114680646235014680836A3551468361DA353044616680A34335318301468491CFD
:402D0000255078688142E5D30020F0BDB00F002038B500210091002811DB0F49097888420DDA0D4D04010C3529680859002807D0201D0818694600F06FF9002801D00020CC
:402D400038BDFEF779F828680F34015D491E0155FEF76EF8009838BDC00F0020F7B582B0002502986E1E06602E48D21C024017462D4A2C4610460C380178106805E0230124
:402D8000C358002B0FD0641CE4B28C42F7D3711C28D03401211D40180191039900F02AF900281FD101E02646F1E71F48016820460C300F521C480399026820460E3011542C
:402DC00019480399026820460F3011540398784300F0A0F8144900280968085102D00024009011E001251AE00F48016801980818009900F02CF9002801D0012502E00098DE
:402E0000C0190090641CE4B203988442ECD3002D05D10298066004480179491C0171284605B0F0BDFCFF0000CC0F0020F8B50D4600216A468C461180002839DB2349097830
:402E4000884235DA214B04010C3319680A59002A2ED020460C300B5A801C0E5C184670438018954224D3854222D2002006E007465F43BF18AF4206D0401CC0B2B042F6D362
:402E80006046002814D0114E271DC8190C366A46294600F006F900280AD168460088012808D030682946C01900F0D1F8002803D00120F8BD0020F8BDFDF7BEFF30680F3487
:402EC000015D491C0155FDF7B3FFF3E7C00F0020F8B50F46002400F031F8002817D10C4900220B460C334A600EE021011D680E466A501D680C36AA53B61C1D680F31AA554D
:402F00001D68641C6A54E4B2BC42EED31A71F8BDC00F002000280BD0C01C074A81085068890053884118994203D89368516018187047002070470000C00F0020F8B5064614
:402F400000200F4D009029700C0121466846FEF747FC00280CD129460C3100980860301B001F84B221466846FEF73AFC002801D0FF20F8BD6C800098A8600020F8BD000093
:402F8000C00F0020F8B5002827DB19490978884223DA174C05010C342168485900281CD028460C30085A009028460E300E5C401C0E5420682F1DC01900F064F800280CD14C
:402FC0002068002445590EE0094829460C300068C01900F03CF8002801D00120F8BD00982D18641CE4B2B442EED30020F8BD0000C00F002030B50D4604000BD0A800FFF746
:4030000089FF6060002805D000202570C0436080002030BD012030BD70B50D46040005D0002D03D00220205E002801DA012070BDFDF702FF0221615E60688900405828600E
:403040006088401E6080FDF7F3FE002070BD70B50D46040007D0002D05D002212078615E401E814201DB012070BDFDF7E5FE6088401C00B26080616880000D50FDF7D8FEC1
:40308000002070BD10B5040009D0227800216068FEF7FCF80020C0436080002010BD012010BDF0B500231D46002802D00224045F0AE00120F0BD46689F00F6598E4201D133
:4030C000012503E05B1CDBB29C42F4DA15700020F0BD00000148007870470000D40F00207CB505460024FEF70FF9A8796946087000A8062229460130FEF7BFF8002168467A
:4031000006F0D0FA0C2806D0072806D01F2806D0122806D006E0022404E0042402E0272400E0012420467CBD0148012141727047E818002010B500F0A1F9FFF7FBF9FFF786
:40314000FFF910BD70B504460025FEF7DDF8002C06D0A079012803D8214602F00BFE00E00125284670BD01460120002902D05020088000207047000001460120002903D074
:40318000024800780870002070470000D60F002001460120002905D003485422007850430880002070470000D60F002010B502460D49FE204870032410460FF089FA002803
:4031C00010D10FF02DFA00280CD107F035FA002808D100F02FFB002804D106F009FD002800D10024204610BDD40F002070B50025044600280ED0A07901280BD8FEF784F806
:40320000A0790028204602D003F0BCF903E003F091F900E00125284670BD0000014610B50120002904D006220248FEF726F8002010BD0000E00F002001460120002903D05D
:40324000087802490870002070470000D60F0020F0B589B015460F4606460124FEF754F8002E20D0002F1ED0002D1CD0102239466846FEF702F81022314604A8FDF7FDFF08
:40328000102168460FF046F9102104A80FF042F92B46102204A9684604F062FA102128460FF038F90024204609B0F0BD10B506F075F904F04BFB07F007F810BD0148007AE4
:4032C00070470000E818002038B504460120002C20D0617801291DD800290BD0FF25E535FEF712F80C4828180088C0B22070072803D00EE0FF25CD35F2E7002069460870F6
:403300006846FFF731F969460878012801D108202070002038BD000000102E40014A002192681047D40F002008B500226B461A7026280CD0094A342852680BD0352805D1CF
:40334000900703D50021352007F052FA08BD19462620F9E7D007F9D03420F5E7D40F00200149087270470000E8180020F8B504460120002C26D06178012902D92278092A88
:4033800020D8002905D0FF25E5352078092803D004E0FF25CD35F8E708202070FDF7B4FF2078114F114E08280DD00020FFF718F970780128207810D00D4969180880FE2064
:4033C00070700020F8BD0120FFF70AF90720B8810549203188800120F2E7B8810248217820308180EBE70000C0112E40D40F002000102E4070B50E46050001D0002400E0AB
:403400000C4C002C11D0E28A500609D5D107C90F022003F0B3F9E08A40218843E08204E0D107C90F012003F0A9F93146284602F015FE70BD48180020F8B5054600200446DB
:403440000D4E009013E022466946284601F032F80098002801D00FF01DF9A878214602F0C7FBA878214602F0B5FB641CE4B2308AA042E8D8F8BD00001419002038B51E4CF9
:40348000FFF758F8042813D0052811D0062812D003282AD007280AD100206946087002460120FEF769FFFFF745F80128FBD138BD00F09CFB38BD02F011FC00F097FB02F051
:4034C0007BFC8007800F0228F4D10C4841880029F0D05B21095D0029ECD101210170A07D0140022003F04AF938BD02F0FBFB0120FFF750F838BD000048180020FA0F00205F
:40350000F8B50646002403F0B7F90546304603F0CDF903460A480021068A0DE001228A401046174628401F40002803D0002F01D1224394B2491CC9B28E42EFD82046F8BD78
:40354000141900201CB50020694648706846FFF7BBFE01AA69460A20FEF70EFF6946042008561CBD70B50D4601F08AFB04000BD02079002808D0FDF7C7FEE178A0782A46B9
:4035800002F0F2FD002070BD022070BD01480079704700001C1800204030C07E002800D00120704700B500F001F800BD902148430749084A40186030417F491CC9B24177CA
:4035C000D289914201D300214177C8B270470000281800201419002013B501F051FB04000BD001F008FF002807D0214601AA0A310620FEF7C1FE00201CBD02201CBD00001C
:4036000010B50C4601F03CFB00280AD001F0F3FE002806D0224604490A20FEF7ADFE002010BD022010BD000009180020F3B581B0074601460026029803F016F90446002F25
:4036400001D0002500E0154D002D21D0284601F04DFB032C04D13946029803F061F906463846029902F0B6FA032C06D0002C10D00121384601F040FC03E03146384603F033
:403680005FFB284602F062F90221284602F078F9FEBD3846029902F09DFAFEBD4818002010B5044600F04CFA002804D104F02AF8002801D00C2010BD2078611C02F06AFEB0
:4036C000FF2801D01F2010BD02F0B0FEFF280AD02178621C02F00CFA044821780068026B601C904710BD072010BD00002010002010B504F007F8002801D00C2010BD02F05C
:403700002BFE03480068C06A8047002010BD00002010002070B50D46044610210EF0FAFE1021601806460EF0F5FE334610221946204604F015F8102130460EF0EBFE02208F
:403740002870204606F08AF970BD0000FEB504464078217802028006870FE0781143A5780E050002360D0543304601F089FAEAB23B4621460096019000F0FAF90006000E42
:4037800014D10B48224600680199436928469847C0B2FF280AD10198EAB24030817EFF23491C81762146019800F0E1F8FEBD00003C1000200020704710B5044603F0A2FF6E
:4037C000002801D00C2010BD2078611C02F0E2FDFF2808D002F016FD044821780068426B601C904710BD1F2010BD00002010002010B500F06BF906F0FBF9002010BD10B5C2
:40380000044600786178E2780843A17811430843217908436179084305D003F065FF002803D00C2010BD122010BD204602F0AAFE002010BD10B5FDF717FB03F03FF8044839
:4038400003F0CCFF02F0E8FC012000F003F810BDF0170020F1B586B003A8009005A8019028489F22017B114001736846FDF766FD002845D169460989C90705D022480699BB
:403880000068C2686846904769460989890706D5002835D11D480068816A0698884700282ED11B4E0025757075737571F575357675767575B570F570B5713746F5730120EA
:4038C000D03738731F20F880FF2130467972A0300176457600F014FB00242046069901F035FD002803D1641C2406240EF5D0FD720749BD72B573C0310D704D704D600D7287
:4039000007B0F0BDDC1700203C100020201000202818002070B505460E46084602F0ACFF0446304602F0C2FF0121A9400A46224001400A4301D0012070BD002070BD10B556
:403940000446084602F0B2FF0121A140014201D0012010BD002010BD10B5FEF7EBFD032804D102F0BFF90120FEF714FE10BDFEB51C4616460F46054601F0E8FFA878FFF7DA
:4039800011FE02460190334639460094284600F00DF8002808D1A8780199FFF72BFDFF2C02D138460EF076FEFEBD0000FFB585B005460E980C46FF2810D02B49C0000968D6
:4039C0000A5840180179C0795278814201D9012601E09006860F6846038108E06078A1788006860FE0780002014368460181284601F032FD070007D021462846079A00F0FA
:403A0000EDFC384609B0F0BD304600F09BFD04AE0346039002AA29460096204600F005FC3C20405D002818D0284601F015FD012813D0684600890096C0B20190A878231D6F
:403A4000FF22079902F0BEFA68460089039BC2B2A878079902F064FED3E7684600890021C0B20091E9E7000038100020F8B5002600253046FFF744FD07001DD0902011498E
:403A8000704340186030447F12E0601CFDF7CAFACCB23846E040C007C00F07D02146304602F090F821463046FFF7C0FD6D1CEDB20548018AA942E8D8761C3606360ED7D0AE
:403AC000F8BD0000281800201419002010B502F0A3FB0020FFF7BEFE0EF072FE002010BDF8B5002400F0FCF80123012800D10124104F00203E4620360425082203E0002833
:403B000001D0002100E031460979002907D001290BD002290BD0114681402143CCB2401C0006000EEBD07C70F8BD1C43F7E72C43F5E700002818002010B5FFF7D1FF10BDA9
:403B400010B5044606F0B1F9002802D1601C00F001F810BD1CB500240094062269460194FDF77CFB002800D1122420461CBD0000F8B5044600201E4617460D46002C12D062
:403B8000002D10D0022E0ED0032E0CD0002F0AD02179092907D0002905D013494A7F5A21095D8A4207D82089002105F08CFE28460EF070FDFF20E18F012905D1002F03D0CF
:403BC000012E06D0002E04D0374301D10121E187F8BD0021E187069A2A70069A120A6A70AF70E970F8BD0000DC17002010B5FDF764F80446FEF79EFC012809D0FEF79AFC1F
:403C0000022805D0FDF760F82046FDF75AF8EEE72046FDF756F810BD10B50B4681791943817103D08078114602F016FD10BD10B582798A43827102D1807802F021FD10BDC9
:403C400030B50C4C0220A28A0B4B9978002901D0022906D11D785B78EB18282B01D9032002E0032900D101205105490DC0020143A18230BDC0112E40F00F002000B500F0D6
:403C800035F8002807D0012805D0032801D0042801D0002000BD012000BD000002460448018B0020C908114200D001207047000000102E40014600B50020C90701D000F0EF
:403CC0000FF800BD014600B50020C90701D000F007F800BD0148006870470000E80F002001480088000A704720102E400448008B410501D5042070474007800F704700008D
:403D000000102E400148406870470000E80F00207CB50446002568460570200610D5FFF7E5FF01280CD101A801F0ECFF6846007900F058FB012001F071FE0220FFF7FCFE16
:403D4000600712D50C48017901290ED10571684601F0D8FF6846007800F078FB0220FFF7EBFE00212620FFF7DFFA044800680169204688477CBD0000F40F00202010002073
:403D800010B501460A4A007800241070FFF7A8FF0128084603D002F061FB204610BD00F0E7F80400F9D1034801210170F5E70000F00F0020E818002070B50446FFF790FF95
:403DC000002801D00C2070BDA27B01211F48002A827801D00A4301E05208520082706279012A14D0C17849084900C170184D2868016820468847207901280CD0618820885A
:403E000003F02EFA2080207904280FD015E0C2780A43C270EAE72868C168E01D8847E01D02F09CFB0B48008D208006E02868C168E01D8847E01D02F091FB07492079887052
:403E4000204602F019FB002070BD00002818002020100020DC170020F00F002008B50178FFF73EFF814201D10C2008BD002914D0072069460870FFF701FF012807D1012144
:403E8000684600F0E5F8012801D0092008BDFFF7D7FE02F025FB012011E0FFF7EFFE012806D1684601F02EFF6846007800F0CEFA02F00CFBFFF714FF0028FBD10220FFF715
:403EC0003BFE002008BD000010B501460A4A007800245070FFF704FF0128084603D002F09BFB204610BD00F065F80400F9D1034801214170F5E70000F00F0020E818002096
:403F000038B568460EF05CFB002801D01F2038BD01210098C90201804180002505714571857107214173857302F0A6FA009C202200212046FDF7AAF925702A460021601C52
:403F4000FDF7A4F9204602F089FA204602F064FB00980EF09FFB062200210448FDF796F902480C388560002038BD0000F40F0020F8B5044600250D4800950078012806D0AE
:403F800068460EF01DFB002803D007250CE00C250AE0074E009830602278611C401CFDF76CF93168207808702846F8BDE8180020E80F0020F8B5044600250D480095407805
:403FC000012806D068460EF0FBFA002803D007250CE00C250AE0074E009870602278611C401CFDF74AF97168207808702846F8BDE8180020E80F00200346084800B5834236
:4040000009D8184600F03CFE002804D00089984201D1012000BD002000BD0000FF0E0000074A9179491C8906890E917138220A4092014907090E11430843024908407047AF
:4040400028180020FF0E0000C006C00E70470000F8B507460E4600240D4803E0002C01D0002500E005462979002905D0641C2406240EF3D00020F8BD0021204601F066F9A6
:404080002E712046FFF7CCFF28813C700120F8BD4818002010B503F097FB0222002100F003F802F055F810BD10B5094B40074907000F090F185A595A40185043C0086421D5
:4040C000FCF7B0FF002800D1012080B210BD0000284D0100F7B53D20405C88B015460C46002802D02878042802D200200BB0F0BD6946087200262046FFF74EFA012800D0F7
:404100000126204603A938300191009023460327A17E34333246206A03F07AFB02A8089900900B46019120463A4603A9243003F0F7FA02466846007A2870204601F0F2F868
:404140001046D3E7FFB587B00C4605461078694608723D20005D1746002826D000262046FFF71AFA012800D00126204603A93830019100902346A17E34333246206A03F08B
:4041800047FB02A80090291D019120462B1D03A924300A9A03F0C4FA02006846007A388002D1204601F0BEF810460BB0F0BDF0B505463C20405C89B016460C4600280CD055
:4041C000307869460873002806D000272046FFF7E3F9012803D003E01F2009B0F0BD012703200890204604A93830019100902346E17E34333A46E06903F00AFB6846007B73
:4042000003A928180290009120462B46019504A92430089A03F0B8FA02466846007B3070204601F089F81046D7E7FFB505463C20405C89B016460C46002810D0084601F098
:404240000BF901280BD0308869468883002809D000272046FFF7A0F9012805D005E000200DB0F0BD0220FBE70127204603A93830019100902346E17E34333A46E06903F087
:40428000C7FA291D2B1D07A8129A6D4607C5204603A924300C9A03F077FA02466846808B3080204601F048F81046D9E770B50C460646FFF771F9012824D060792279000251
:4042C0000243E079A37900020343607A921F0102207A0843E17A0D02A17A154C294335464035A24207D20A38221F904203D2FF20F43083420DD91E202873304600F0C8FB30
:404300001E2070BD00222421304602F0EFFE242070BDB07801F018FE012801D0002070BD28202873304600F0B3FB282070BD00007B0C0000002801D0002000E003484030C8
:40434000C07F012800D0002070470000481800200146002049070ED50021084B03E0002901D0002200E01A461279022A04D0491C0906090EF3D07047012070474818002079
:404380000146002049070ED50021084B03E0002901D0002200E01A461279022A04D0491C0906090EF3D07047012070474818002010B5044680346068002803D00EF07EF9CD
:4043C0000020606010BD4030417070474030817070474030017070470171704792001018C166704770B53C2501F030FA040004D020460021433001F0F5FCFF22294620467C
:4044000000F0E8FB002C02D0A07801F0A1F970BD10B5002801D0002000E00348002802D0008905F097FA10BD4818002010B5002801D0002000E00448002804D001790729CC
:4044400001D100F047F810BD4818002010B501F0FDF9002802D0807801F07AF910BD00207047000070B50546008A00281ED01049F122097B1140C90618D5294640314A8A87
:40448000098A521C4A4392B2D10800D10121540801E0621A94B2A042FBD9FEF71BFE012804D1298AA878224601F014FE70BD0000DC17002010B50023054C0B60248A9442F7
:4044C00004D992001018C26E0A60C36610BD00001419002038B5044600200090A079002814D14020015D052901D00E290ED168460EF076F8002809D12046009902F0D4FD8A
:4045000003481021428B2046FFF786FB38BD0000DC17002010B50B4604460146184602F033FA002802D020460EF0BEF810BD13B5044601AA11460620FDF71EFF6846818846
:4045400061811CBD002800D10220704770470000F8B504462346401D543300909A1EA078911E01F0EBFB25464035A88A298A8000FCF758FD401E81B2688A884203D969822C
:40458000A07802F045F9698A8C20015120460021433001F027FC27480088E88103F014F9E989891C8AB26179FFF77EFD01F0D0FD03F00AF92A8A6179FFF776FD074601F0CD
:4045C000BBFD688A002806D01B49088A032212021043088202E0002002F00EF91648803801886E8A002E0CD0304648431349FCF703FE0004000C01D0401C80B2104948808A
:4046000002E00F4800214180288A704381B2A07802F010F8FF2228374932B9B21346204602F022FEE98AA07801F064FFA07801F003FBF8BD80102E40E0112E407102000013
:40464000FA0F00207FB504468034616805460E46183108226846FCF710FE31462031082202A8FCF70AFE102168460DF053FF6068102108300DF04EFF60682B46083024334D
:404680001022694603F06CF87FBD10B504460821FFF7CDFA10212046FFF7C9FA207905281FD006281DD008281AD12189002005F0C9F8072020712046FEF76EFF01462046A9
:4046C0004030012913D00E21017000210176204601F050F82046FFF76BFE2046FFF7C2FE10BD20890122002105F090F8E1E70521EAE70000FFB581B01F4604460821FFF7DC
:4047000096FA10212046FFF792FA2079082803D0092804D0042203E00422012501E009220025204600F05EFE264600204036307022712046FFF73CFE0398002D02D0012869
:4047400008D00BE001280AD120890022029905F05DF804E02189029805F074F8012700203076012F04D0204601F004F805B0F0BD02983073204602F0E5FC05460548012162
:40478000428B2046FFF748FA002DEFD109202071ECE70000DC17002070B50C460546FEF7FBFE012809D108212846FFF740FA0023012221462846FFF79DFF70BD10B504469E
:4047C00000F010FE2046FFF7F3FD00214034217010BD70B505461A24FEF7DEFE012809D108212846FFF723FA0023012221462846FFF780FF70BD0000F8B5044600200090EC
:404800000E4668460DF0ECFE002801D00D20F8BD8420005908212030009D00F02CFA20460421383000F027FA002E02D1204600F03BFE2946204602F0C2FB0E480821428B27
:404840002046FFF7E9F9204601F005F825464035002808D0204600F023F8002801D0092028700020F8BD08202870204601F06EF8F7E70000DC170020014610B540310A468B
:404880000978082906D0092907D00A2901D100F091F810BD0B20107010BD00F001F810BD70B50446007925464035052805D0062803D008280FD00C2070BD03220621204609
:4048C00002F014FC0D480821428B2046FFF7A4F91120287010E006202873204602F032FC0646AA8A0A20424301212046FFF794F9002E01D109202071002070BDDC1700201E
:4049000038B504460020009068460DF069FE002801D00D2038BD2046009D00F0C3F908202071204600F0C0FD2946204602F07EFB00213D2001550F2040210855204601F090
:4049400005F8002038BD00B5024600F04BFD10214032117000BD10B50446FEF71DFE012809D04020005D112805D100231A4606212046FFF7BFFE10BD10B5FFF786FE10BD86
:4049800038B504460021684600910DF029FE00280CD12046009902F0CAFB05480821428B2046FFF739F90D204034207038BD0000DC17002038B504460021684600910DF0E3
:4049C0000FFE002801D00D2038BD2046009902F0A3FB05480821428B2046FFF71DF90C2040342070002038BDDC17002000787047F8B5002569460D70002801D0002400E0C9
:404A00001F4C002C18D0204600F0F5FC002813D0207903280BD005280CD026464036B18AA07801F011FEB078012806D01DE0042020711DE006202071F8BD0021204601F00E
:404A4000C0FF274680373868002802D00DF036FE3D600020B0702079072802D12046FFF701FD0221204600F08BFF20790428E3D1207A694608703420FEF756FCF8BD000029
:404A80004818002010B54C22115400F052F810BD10B50446FF21FFF7CAF809202071A07801F0F8FD10BD000038B5FF216A461180002801D0002400E00B4C002C12D0114664
:404AC0000620FDF759FC684601882046FFF72FFD204600F0C7FC002804D104480068C1692046884738BD0000481800203C10002010B504468079002809D022214C20015570
:404B0000FF212046FFF793F8204600F012F810BD10B5037902464032002B03D01173092B02D003E0002100E02221117300F001F810BDFEB5044600890027009027812079DF
:404B400026464036002817D0012815D002280AD112E002AA01A9204601F004FF002807D101980DF0A1FD204601F024FF0028F0D02046FEF761FCB77625468035286800283C
:404B800002D00DF09BFD2F606868002802D00DF095FD6F60317B002919D0009800F064F8A078002101F064F82046FFF773FAA07801F0B4F9A07800F0CBFDFF212046FFF7E4
:404BC00036F80B20FEF7B8FF00F0A8FCFEBD1F213173E2E7F8B517460E46054602F0F0FD04003CD020460C3001F0ECF82046062200211830FCF74AFB204606220021123085
:404C0000FCF744FB1648224600683946436A28469847074626702846FEF7BEFC012148406070002D10D02889608028464030C1782171002E0FD169796171018AE180418A61
:404C40002181808A608106E00648008BC005C00F2071002060803946204604F076FDF8BD2010002000102E400A4610B50146002004F088FE10BD10B50DF028FA10BD000080
:404C800000B50146FFF7E0F9002801D0002000E00348002802D002898A4200D0002000BD4818002038B5044680346068002806D168460DF0A5FC002801D10098606060684F
:404CC00038BD000010B5014600F0C6FB0128887802D0FEF76BFC10BD90214843024940186030007F10BD00002818002070B5054604464035A87F012811D1A1789020084A47
:404D0000484380186030067F3046FEF703FE002805D10220A877A078314601F0A9F970BD2818002010B50C4CA07A002813D0FEF79DFE0A48027F417F408B00F0F7FB0128A6
:404D400009D10020A07200F0F3FF05498989090B01D000F03BFA10BDF818002028180020A0102E4070477047490510B5490F0B00FCF798FC060704080C0C0F073E21FFF759
:404D800081FE10BD0821FFF7C3FE10BDFFF7D1FE10BDFFF7ADFE10BDF8B507460025002D01D0002600E0204E00F086FF3046403044890021418100F089FF304600F01BFB6A
:404DC00001282BD1A00702D52846FFF711FEE00602D52846FFF768FEA00601D5FEF746FE600601D500F054FB200602D5284600F01DF8600702D5284600F046FA380402D587
:404E00002846FFF713FB780402D52846FFF700FBE00703D021463046FFF7A6FF6D1C2D062D0EBCD0F8BD000048180020F8B5002801D0002400E0284C002C4BD0254640351F
:404E4000A878012846D1FF278820493700593E46002805D02149097B890601D5878AC68A2046FEF799FB012834D002F0ADFC2A8A6179FFF719F9009001F05EF900983346C0
:404E8000283081B23A46204602F0EEF9E98AA07801F030FB12480188688A124E002810D048431149FCF7A8F90004000C01D0401C80B27080A07DC107C90F002001F05EFCC4
:404EC00001E000207080288A698A484381B2A07801F0B0FBF8BD000048180020DC17002060112E40FA0F00207102000001490968096808473C10002070B50D460026194AFF
:404F00000146002801D0002401E014462034002C26D0204600F0A0FA01280AD19020484380186030007FFEF7F5FC002801D102F089F80D48006881692046884700280CD053
:404F400020464030817EA94202D3491B817600E086762089294604F0B6FC204600F0F6FC70BD0000281800203C10002070B503460088FFF785FE040013D000F03CFA0028C2
:404F80000FD02079092819D02546997840352973204602F0D7F80646A878012803D0AA8A02E0022070BDEA880A20424301212046FEF732FE002E01D109202071002070BD09
:404FC0000EB5002217216B460292198100905A810120029B00990DF011FC0EBDF8B518480024807A002822D1164E0025B089000B22E0204600F06CFF1249A039401807882D
:405000002A462146384600F091FA012810D00E480122478305770A4944778A72002D01D0002000E02030002801D000F08FFCF8BDB089000B641CE4B20028DAD1F8BD000075
:40504000F8180020A0102E402818002010B50088FFF716FE002809D0014640310C460978082905D00B2903D00C2010BD022010BDFFF716FC002801D009202070002010BD03
:4050800070B503460088FFF7FBFD040008D0254640352878082805D00B2803D00C2070BD022070BD8420005910220830991CFCF7E4F82046FFF7C6FA2878082804D02046EC
:4050C000FFF778FC002801D00A202870204600F03DFC002070BD000010B50C46002121700088FFF7CDFD03000BD000F084F9002807D00948F121007B0840C00603D4112060
:4051000010BD022010BD022020701A8A1889002104F054FC002010BDDC170020F8B50F46002100910088FFF7ABFD040012D000F062F900280ED0E079410641D4617E02268A
:405140004A07002A08DB8907402500291ADA2843E07135E00220F8BD02F032FB0021017021894180A1898180217E4170E189C1803E7005460178134804F0CAF8284604F0F0
:40518000C1FB1DE0204600F06DF9012806D068460DF026FA002803D00720F8BD2A20F8BDE07900992843E071204601F0F5FF607E0421304360760448428B2046FEF72CFDF8
:4051C0000020F8BD1D040000DC1700203EB500220F236C460292238100910190628169460EC900200DF00AFB3EBD0000F8B50F46054600F02BFB04002AD000F007F9002854
:405200002AD003202071254600264035EE76E6702046FFF79DF901F059F90920FEF78CFCA07800F069FE0121204600F0A9FB2E706E70AE703A4600212046FFF7CBFC0F49E4
:40524000887B401C8873A078FFF750FE022012E0284601F01FFAF8BD002001F01BFA0848008B4007800F012802D1064801F076F901F036F90120FEF75FFCF8BD2818002010
:4052800000102E402810002010B5002801D0002000E0094800280DD0014640310A464978022901D100215170807DC107C90F002001F064FA10BD00004818002070B5034695
:4052C0000D460088FFF7DCFC04000BD000F093F8002807D01248F121007B0840C00603D4112070BD022070BD20464030418A008A491C41430804C10C5888884201D2122097
:4053000070BD20822079072802D12046FFF7AAF8022028702089002104F078FB002070BDDC170020016A491C016204D1817E491C4906490E81767047C169491CC16104D174
:40534000C17E491C4906490EC1767047F0B5074687B003A8009005A800260D460190002F01D0002400E01B4C002C05D06846FBF7E5FF002803D00BE0022007B0F0BD6846D0
:405380000089C00704D1902200212046FBF77EFF114829460068826820469047050016D1A77066762746267140373E70204600F019F8204601F0FAFA084820820848BE7798
:4053C000007BF121084000D001202075E682E8B2D3E70000481800203C100020B80B0000DC170020002101628176C161C17620300177417770470079002805D0012803D057
:40540000022801D001207047002070470F49008908820E49603108880D4A801F904210D28888121F0A3890420BD20889FF21F431884206D8074800890006C00E401F0C2846
:4054400001D300207047012070470000A0102E407B0C0000E0112E404030807F002800D00120704740300078002807D0012805D0052803D00E2801D00120704700207047CB
:4054800010B5807801F012FA002800D0012010BD10B500F04DFC03498989090B01D0FFF795FE10BDA0102E4070B5054604464035A87F002825D1FF206075A0789021154A07
:4054C000484380186030417F9023491CC9B24177A0785843104B8018DB896030994201D300214177A0789021484380186030467F0677A1783046FEF70DFA002802D0012068
:40550000A87770BD0220A877A078314600F0B0FD70BD000028180020141900200020401C0006000EFBD0002070470000F0B516468207920F87B0000A02926A469080002EB8
:4055400001D0002400E07F4C002C21D0084600F0BFFC074668468088002810D00298032817D0002000906846808821890491214620310391497F0546012964D067E072485B
:40558000381801882046FEF7D2FF304600F060FBD6E00020029002A80DF002F8002807D03D20005D0128F3D12046FFF7BBFEC7E00298009068468388202B14D31F23002142
:4055C0003846009AFCF7EAFD684680881F3885B2012305AA00213846FCF7E0FD6D1E2D042D0CF5D104E000213846009AFCF7D6FD5548381801882046FEF799FF304600F0C6
:4056000027FB01AA21460098FEF764FD0028009805D00DF035F83D204C2108555EE0C677009869460078898801F00EFE00280099204602D001F02CFB82E001F03EFC0098E4
:405640000DF01EF87CE0042820D3281F80B23F49097B890605D5882109594989814202D314E01B2812D9012305AA00213846FCF795FD6D1E2D042D0CF5D10398407F0128E2
:4056800000D07CE72046FFF74DFE78E768460CF077FF002802D0002007B0F0BD6846009D83882A1D00213846FCF778FD2648381801882046FEF73BFF304600F0C9FA204604
:4056C000FFF799FE002805D026464036307E00281DD107E028460CF0C9FF31E02046FFF7D7F92DE00298012809D0022807D00398407F0128EED12046FFF714FEEAE70346B0
:4057000001AA21462846FEF71DFD002805D028460CF0ACFF3D203073E0E70298FEF716FF01460498287004980901000A0843687068468088A870000AE8702846FFF740FC3F
:405740000120A9E74818002000102E40DC17002010B5074A917B002901D0491E91730021FFF7F4FD002801D0002010BD012010BD28180020F8B5074606464037B87F002888
:405780002DD0B078902100904843234945186035287F0099FEF7D3F801281ED0287F401CC4B21E48C089A04200D800240020B877FF276F772F77A87702460146009800F046
:4057C000D7FD717DFF2903D0304601F0B0F8777501F038FC0025114F19E00320B877F8BD00200090224669463046FEF763FE0099002904D0FF231A463046FEF7B8F8641C01
:40580000F889E4B2A04200D800246D1CEDB2F889A842E5D8F8BD0000281800201419002010B502460021084B03E0002901D0002000E018460479944204D0491C0906090E53
:40584000F3D0002010BD00004818002000B50120FFF7E6FF00BD10B5044601F0B1FF2189018080346168416061682831816004F003F810BDF7B50646087982B00C460928A4
:4058800007D0A078F0770846FFF7E6FD012806D010E030460CF008FF022005B0F0BDA1789020294A484380186030007FFEF732F8012810D0A078FEF73DFD01280BD03778EF
:4058C0000121304601F066FB25462035062F38D00B2F0FD107E06846027C21463046FEF719FE0D20D9E72046FDF756FE012801D1002028772046FFF7E5F9054604AA2146BC
:405900003046FEF754FC01205F2108556946097C002001910090A07833463A46294600F051FB69460A7CA0780323294600F0F8FEA0782946FDF75EFD30460CF0B5FE002099
:40594000ABE70120D5E700002818002010B502464032937F0021002B03D1927E002A00D00121064A927A002A00D000210279092A00D10121807800F021FF10BDF81800205E
:4059800070B50C460546FDF707FE00280BD1012C06D92879092806D02846FFF771FD0446002C02D004E0012402E0A87DC007FAD1A87DC107C90F204600F0E0FE70BD000092
:4059C000012807D0082804D104480282034808300180704701488038FAE70000A0102E40014908817047000000102E4010B50446FF20F130012C01D1FF20D530002200F08B
:405A00001FFF044A108A044980B2A0430880108210BD000000102E40FE0F0020034B198A034A89B2814311801982704700102E40FE0F002010B50446012802D0082C07D18B
:405A400002E0FF20D53001E0FF20F13000F0F0FE0348018A034A89B221431180018210BD00102E40FE0F0020034B198A034A89B2014311801982704700102E40FE0F002088
:405A800070B5054604462035A87FF122800012018018164A86183088400840003080002906D10121AB7FFF220903601D00F006FE89212046AB7F80224901113000F0FEFD48
:405AC00083212046AB7F202249010B3000F0F6FD43212046AB7F40228901173000F0EEFD208801210843308070BD000000102E40F8B505460120A84086B214460F4601224B
:405B000031467C2000F09CFE3A463146782000F097FE6078267800020643E078A2780002024360792379000203430C2045430D2080010549281844182680001D4418228070
:405B4000001D40180380F8BD00102E40CB065B0E0343480901021943D00108430121C902084301490881704780142E404278037812021343084A1382C37880781B021843B9
:405B8000908248780B78000203431383C8788978000201439183704700142E40024A1080000C90801181704700142E40044A002180180288491C89B21029FAD3704700002D
:405BC00000102E40024A10820148803081817047A0102E4010B5054A1082084600F054FE024A0021A03A8018018010BDA0102E4010B50B46044600F017F819462046FFF7DE
:405C0000E1FF10BD002310B5F121064A090118468C182380091D401CC0B289B20828F7D310BD000000102E40024A10820148803001817047A0102E4010B504490882FF2061
:405C4000002220211D3000F0FBFD10BDA0102E40000202494D3008807047000000102E400249888A0422904388827047C0112E4010B5084B074C0202A03B0029208202D0DD
:405C800075321A8010BD04490020088088807632F7E70000A0102E40201A2E40054B198807229202002801D0114300E09143198070470000001F2E4000B5034908884880A8
:405CC000FFF7ACFE00BD0000FE0F002000B502484088FFF7C9FE00BDFE0F002010B5FCF713FC10BD014952200880704700102E40034908880122D203104308807047000039
:405D0000001F2E4000210170704700000748808806492039098B884201D8081A03E00022D243101A401880B27047000020112E400148008AC0B27047A0102E4070B5084C7E
:405D4000049D2082074804890548603006880E8001891180808818806007400F287070BDA0102E40E0112E400148008970470000C0102E4000280FD00D4A108B0870000A16
:405D80004870908B8870000AC8700948203000880871000A48717047064A10880870000A487090888870000AC8701089F0E7000040102E40C0112E400148008A704700004F
:405DC000001A2E40064B1A8999891B8A0270120A42708170090AC1700371190A4171704760102E40012904D00549098BC90B017070470349403109898907C90FF7E700009C
:405E000000102E40FFB581B00024FF232B4D0B9E002805D0022803D003283CD006281CD12C8B2F46A004850E2007000F012802D0252D1AD916E00C2D14D106230021F820FD
:405E4000FCF7ACF906230021F820029AFCF7A6F9002E01D0388B1CE0002304980480184605B0F0BDFFF744FFF9E706230021F820FCF794F9062DEFD30A98002806D0AD1FDD
:405E80000246ABB20021F820FCF788F9388B002EE2D03080E0E72C8BA004800E0C28E1D106230021F820FCF779F906230021F820029AFCF773F9288BCEE70000E0102E40BD
:405EC000024800884005C00F70470000001F2E40014840897047000014190020044A10820448028980894843101880B270470000A0102E40141900209021074B414300B55F
:405F0000C918FF2260314A770A7700228A77114600F02EFA00BD00002818002090225043074A10B58018FF21603041770177002181770448C18EFF201D3000F079FC10BDB8
:405F400028180020DC17002000B5044A1082034880308088022200F003F800BDA0102E4010B50023884201D8081A03E00024E443201A4018044980B2884201D8824200D900
:405F80000123184610BD0000FF7F000070B55478157824022543D47888232602947834435679127936023243002900D09823044908820348A038181805808480028170BD48
:405FC000A0102E40FFB581B014460D4607460A9E0B9BFFF783FF002E0AD0009333460021049AFCF76BF905484019C45505B0F0BD0021049AFCF748F9F5E700000210002092
:4060000070B502460448054D808808242C800B460021FCF739F970BD14190020A0142E4010B5212402466401044953200880102300212046FCF728F910BD000000102E402A
:40604000417802780902044B0A431A83C1788078090208439883704760142E40034A1082802001430148803001817047A0102E40054A1082044A6032908B0009000108432A
:406080009115084390837047A0102E4030B500210F4B0A46012809D0032802D005280AD107E04021198102210A2204E004210C2201E004210D221882054C20342088C0B25A
:4060C00005460D42FAD022800021198230BD000080142E4010B5044607480482074801808280032189030820FFF7A4FC200202497530A039088010BDA0102E40201A2E40C5
:40610000054A1082044A60321183000202494B30A039088070470000A0102E40054A491E1082044A60321183000202494C30A03908807047A0102E400349884200D9084614
:406140000249088070470000FF0F000060112E400349884200D908460249888070470000FF0F000060112E408823002900D09823084908820748A038191808881070000AC8
:40618000507088889070000AD07008891071000A50717047A0102E4010B51446024606480B46C0880021FCF755F8012C02D103495420088010BD00001419002000102E4084
:4061C000064A11880170090A417091888170090AC1700349542008807047000080142E4000102E403E21095CF1238A001B01D218082903D2024900885118088070470000CB
:4062000000102E400121814010B589B200227C2000F016FB10BD0000FEB5FF210120FFF7E5FBFF210820FFF7E1FB3020FFF7F6FB4148802101804148414D00784007400F86
:40624000022873D001286FD100202880002211460320FCF791F83B4E3B49308E88823A4F002420373448A0300482B08F38822046FFF754FE641C2406240EF3D0314C324880
:40628000403421882030018320462C3800F052F9B16970690191009069464879C021084369464871684600F06DF900F055F8224FE088A03738832089B8831F496089C031FD
:4062C00088802148F18E203001802048002404823920FFF7C9FB184E532030801C490720088354203080E020FFF760FCE820FFF75DFCF020FFF75AFC0020FDF7CBFE1348B7
:406300008482282101838015B8810F48403084815B203080094800784007400F022807D0012801D10B482880FEBDFFE703208CE70848C01CF7E7000000102E401419002063
:40634000001F2E40DC170020C0112E40001A2E4080142E40E0230000044800218183018302497420603908807047000060102E40074B1882064B6033988B000900010843DF
:4063800099158843002A01D11021484098837047A0102E40F3B50D2284B0920100924A780B78120213430393CA788B78120213434A790979FF20120211431A4A8C46918B7D
:4063C0009E460291118B01911649742260390A80154900220F7921E00121124B9140009C603BE3181D8889B21C881B88039E6E407546654064462E435C4026430CD1029BE5
:40640000194209D00199D140CB070499DB0F8B4202D1104606B0F0BD521CD2B29742DBD8F8E7000060102E401C18002030B50949FF208C8B084A00210125137905E02A4655
:406440008A40224204D0491CC9B28B42F7D830BD084630BD60102E401C18002010B50446E020FFF7A3FB20782246401CC3B20021E020FBF7AFFE10BD42790021012A02D961
:4064800001214171090342790A430179042914D049001143827B032A01D8D2001143427B52010A43817909021143012252031143054A1183008890837047114601229202DE
:4064C00011430222E5E7000000102E4000B50120FFF7A4FA01494120088000BD00102E4000B50120FFF7C0FA01494020088000BD00102E40024A108201486030818170479F
:40650000A0102E4010B5044C208204488180028183815143018210BDA0102E40A0132E40034B1882024820388180028070470000A0102E404178027809020A4306490A8049
:40654000C2788378120213438B804279007912021043088170470000C0112E404178027809020A4306490A81C2788378120213438B8142790079120210430882704700006B
:4065800060102E40417802780902084B0A431A83C178827809020A439A8341790079090208430249203108807047000040102E404178027809020A4306498A80C27883789F
:4065C000120213430B814279007912021043888170470000001F2E40F0B5F12600213601FF240C4D01348A00921953191A88D7070AD0520852001A80884201D1224300E0D6
:40660000A24301273A431A80491CC9B20829EAD3F0BD000000102E4010B50446E820FFF7C5FA20782246401CC3B20021E820FBF7D1FD10BD024A1082024881837047000007
:40664000A0102E40001A2E40024A10820148603081807047A0102E4010B5044688000521FAF7E0FC04490C8204498880200202497230A039088010BDA0102E40001A2E404A
:4066800003490882000202497330A03908807047A0102E4003490882000202497030A03908807047A0102E4003490882000202497130A03908807047A0102E40F0B51546EB
:4066C0000F4604461E46FF2A04D000222946184600F082F86078237800020343E078A1780002014360792279000202430C207043C0190A4C80B207193B80001D80B203198E
:406700001980001D80B200190280FF2D04D001222946304600F060F8F0BD000000102E40F8B505461C4617460E46084600F0ACF8054AB90021431582034AA03A801801802B
:40674000024880194455F8BDA0102E40071000203E21095CF122890012018918064A89180A88D30706D0520852000A8000880122104308807047000000102E4030B50E4C1C
:40678000238A01251A46012804D0022804D000290BD00CE02A430AE0002908D12A4322825008400020821A4601E05A0852009A4200D0228230BD0000001A2E40054A10827C
:4067C000044A6032908B4023984389010143918370470000A0102E40F12380001B01C018044BC3181888002A01D0084300E088431880704700102E40044A118A0223002863
:4068000001D0194300E0994311827047001A2E4000B5064A1082054860300181002901D0012000E00020FFF7E7FF00BDA0102E40024A801802880A430280704700102E4063
:4068400070B5084BC5182C880023080003D104E040085B1C9BB2C607FAD08C439A4022432A8070BD00102E40024A1018405C8007800F704707100020024908820148803044
:4068800080897047A0102E408000FF3041307047044B02461B8AFF208B4202D902484018805C70471419002002100020024908820148803000897047A0102E401749024698
:4068C0000B680020002B08D10A605207520F012A04D0022A10D0086012207047112292018A80CA80032252020A810122D2024A8140228A8105220DE0092252028A80CA804D
:40690000012252030A810322D2024A81012252028A810422CA810A8270470000141900200A4600B501461046FFF7B2FF00BD38B50C4605460021684600910BF051FE0028AB
:4069400004D1009928464C7000F018FC38BD10B5044680780021FFF7CDFD01212046FFF70FF810BD436E002B0CD00B60014660318B781370826E4266CA788A7000218166EF
:4069800008467047FF20704710B50346446E6033002C04D0846E002C04D0FF2010BD41669A7001E08166DA70002010BD0021416681667047406E002801D000207047FF2018
:4069C000704770B50446C0790D46810610D5DF210840E07100F0F4FE0570218941804034218A8180618AC180A18A018102F080FE70BD000010B50446FEF72EFD01280AD155
:406A0000A1789020054A484380186030007FFCF781FF012801D000F015FB10BD28180020F8B50E460446FCF7B7FD01282BD02079042801D0072825D1F079B77900020743BC
:406A4000A0783946FFF780FA25464035012820D03A46711C204600F09EFA02212046FDF7B2FCA07DC107C90F0220FFF787FE688A002807D0E87E002804D1032109020820EB
:406A8000FEF7D8FFF8BD01222421204600F02EFBF8BD282028732046FDF7FAFFF8BD70B50D460646FDF702FC002852D120213046FDF7BDF83446687840346073E87820222A
:406AC0000002E081A9780843E0816879010228790843218A814203D0F1791143F1712082E8790102A8790843618A814203D0F1791143F1716082687A0102287A0843A18A43
:406B0000E180814203D0F1791143F171A082A08A218A8000FAF786FA401E618A80B2814200D9608201213046FDF750FCE87AA97A000201430022304600F048FB608A0028DD
:406B400007D0E07E002804D1032109020820FEF771FF70BDF8B50C4605460027FCF71CFD012847D0284E307BC00709D02846403000900078002806D0102803D01F212CE041
:406B80001A212AE001272846FEF78CF8002823D02E4680360822611C7068FAF76EFB7068617A20300172A17A417270682146183008220B31FAF761FB2146284604221331A6
:406BC0003430FAF75AFB39462846FDF715FE002810D1002F0FD012E007210322284600F085FA728B08212846FDF716F811212846FDF7EFFBF8BD06212846FDF7EDFB0098F2
:406C000001210176F8BD0000DC17002010B5FDF733FE10BDF8B504460020009020790D46032803D0042801D0072825D12046FCF7B3FC012821D068460BF0D2FC00281BD1DC
:406C400011486978007B009E0840F12108402075FAF70AF9C0B2022803D0207D4006400E2075607E0821084360763146204600F0C1F92046FDF7F3FBF8BD082224212046E0
:406C800000F034FAF8BD0000DC17002070470000F3B581B004460298FDF7A8FE06462046FEF7A9FB00282FD0162E04D32046029900F003F928E025464035287800270300B4
:406CC000FAF7F0FC0E1B1B1B08081B1B1B0808080808081B0298194A01780020135C8B4201D1012702E0401C0728F7D3E87E002801D1072901D0002F0AD01049B0000831FD
:406D00000A5820460299904702980BF0B9FCFEBDA078FFF7BFFC002301223D212046FDF7E9FC3D2028732046FFF711FE02980BF0A7FC2046FDF7FDFEFEBD0000384D010037
:406D400070B50D460021002801D0002400E00C4C002C14D020464030C177807F032802D12046FEF707FD2046FFF744FE162D04D20449A800095820468847FEF7CFFB70BD7D
:406D800048180020C44D010010B5014640310C4609780E2903D1FDF7B3FD0120207610BD10B54021095C0F2901D1FDF7CCFD10BD4021095C0F2902D10021203041777047EE
:406DC00038B5044600220E4800920D46007BF1210840C0060ED52046FEF744FB012809D068460BF0FDFB002803D12046009900F067F938BD2946204600F05FF838BD0000F3
:406E0000DC17002010B51021FCF711FF10BD10B54022125C002A02D04978FDF7BDFC10BD10B5FDF798FD10BD012120304177704710B54021095C0C2901D1FDF7A1FD10BDC0
:406E400010B54021095C0D2901D1FDF795FD10BD70B5044600790D46052803D0062801D0082802D12046FDF7A9FC68784C21085509212046FDF7B0FA2046FFF768FD2046F1
:406E8000FCF78AFB0128A07805D0FFF703FC2046FEF75CFD70BDFFF707FCF8E710B50446FF21FCF7C4FE16214C200155A078FFF7F1FB2046FEF74AFD10BD70B50C4605468E
:406EC000FEF7CAFA002802D02078687570BD21782846FFF72CFD70BD70B5054648780C46032802D12846FDF774FC6078122803D110212846FCF79BFE0348214600684268C3
:406F00002846904770BD00003C100020704738B5044600200D46009004212046FCF787FE68782076E8780002A081A9780843A08168790002E08129790843E081607E042164
:406F40000843607680070CD468460BF049FB00281ED12046009900F01FF9607E022108436076E079410613D5BF210840E07100F027FC00210090017021894180A189818090
:406F8000217E4170E189C18002F0BCFCFEF7C6FA38BD7047704770B50446C07815460A4600280AD00020E070C1B2A078FEF7EEFFA0782946FFF7A4F870BD0120F3E770B57D
:406FC0000546042008700C468420415908222031601CFAF752F929462046042238310930FAF74BF90D2229462046FEF743FC002070BD000070B5054609200C460870082203
:407000000021601CFAF742F9287D607006480922407BA0700020E070207129462046FEF729FC002070BD0000DC1700200B4610B501460B20187001221846FEF71BFC0020C1
:4070400010BD0000FEB50024164F03E0002C01D0002500E03D462846FFF7ACFC00281BD15F20405D002817D16A4601A92846FFF779FC002810D1019869460A780678294660
:40708000FEF7F8FB022E07D1A8780121FFF796FB09212846FDF7A0F9641C2406240ED5D0FEBD00004818002010B50B46122119708178D977014601221846FEF7DBFB10BDBB
:4070C00010B50B46132119708178D97706490989C90603D1C18A40221143C182014601221846FEF7C7FB10BD20112E4038B50546002000900C4668460BF072FA002801D079
:40710000072038BD00980D210170447002222946FEF7B0FB002038BD0B4610B501460520187001221846FEF7A5FB002010BD0B4610B501460620187001221846FEF79AFBDD
:40714000002010BD38B505460020009068460BF047FA002801D01F2038BD009C022020704C20405D6070A878E0772846FFF7EFFB022229462046FEF77DFB38BD10B50B46C6
:40718000072119708178D977014602221846FEF771FB002010BD000010B50B460A49044608880C221A704A795A709870000AD870C8881871000A5871062221461846FEF74E
:4071C00059FB002010BD0000DC170020F8B50446403417460E460546E289617B8078FFF79FF9002F0DD100F0EFFAE2896979FCF75BFFFEF7ADFF608A002800D00120FFF7ED
:40720000FBFAE388A08A984200D90346628A218AA878FFF777F9E089E188C0080A30081881B21920C001814200D90146A878FFF70BFAA8783146FEF771FFA87DC107C90FCB
