:400000000080002011000000C1030000C103000010B500F0F5F9C04670B51222224B1A6000F0E0FB214800F003FF012000F0FAFB302000F0F1FA1E4A1E4B1A601E4C8025ED
:40004000ED0525601D4A116802230B4313601C4A1C4B1A6000221C4B1A601C4A136808218B431360FA20C00000F088FB184800F0C9FA9C229202174B1A60174A174B1A60E3
:4000800080221206164B1A608022D202154B1A604022154B1A601549082000F089FA082000F07AFA256070BD30001040001BB7000600008004010B400C020B4078002E4081
:4000C0002D3E00007C002E4064F02E406CF02E40DC0500000003014040FF00800000014008010B4000010B402C0101403D09000070B572B60022424B1A600132414B1A70E7
:4001000000240FE040486200131959000B00411889881A5AC31858880004104300F046F90134E4B2022CEDD9002411E0364EA2001319590071188D8AC88A000428430A8B9E
:40014000498B09041143802200F036F90134E4B2002CEBD02C4920312C48583000F0FCF8802252002A4B1A80FF3A2A4B1A70EE221206294B1A60C0229203284B1A609923C0
:400180001B04274A13602749274A116080218904264A1160A221C905254A1160254A1360254A13600223254A1360254A136025490B783C22934314221343DBB20B70224A98
:4001C000117816230B43DBB21370D82212041F4B1A6020221E4B1A60C42292021D4B1A6040221D4B1A60802212031C4B1A60C022D2001B4B1A60FFF70FFF00F0C7F870BD1A
:400200006CF02E401C700F40B85F0100B861010000600F4002600F40000002400001024000500F400400990010500F4014500F4018500F4020500F4030500F4020001040AF
:4002400000800F4001700F4000700F4008000440000104400801044000020440080204400803044010B5064C2378002B07D1054B002B02D0044800E000BF0123237010BDFE
:400280002813002000000000405F0100084B10B5002B03D00749084800E000BF07480368002B00D110BD064B002BFBD09847F9E7000000002C130020405F0100B00E002088
:4002C0000000000010B5012802D0202804D011E0002000F0EFFB0DE00B7A1E2B0AD1C9681922054801F07EF8002803D1034A13880133138010BDC046445F010044130020E8
:4003000000B5C1B0FF220021684601F083F862B60D4800F073FB00F0F9F80C4800F012F901F0F4FC00F07AFD0028F9D1084B1B88084AFF21684601F075F8684600F002F9F9
:40034000002041B000BDC046C5020000985F010044130020B45F0100F0B50025002711E0BB00C658F3B2FF22964308E06A008A181478A419527822700135013BDBB2002B42
:40038000F4D10137072FEBD9F0BDC0460323044A1360044A13600022034B1A607047C0463000304030003140000E3F4010B50A00002101F02FF810BD10B501F022F810BD04
:4003C00010B500F0E3FF03680C2B00D1FEE7FEE710B50300084A1068C318084A9A1A802A02DC054A136005E000F0D0FF0C2303600120404210BDC046B40E00203026002068
:4004000070B50F4E0F4D13E029686B68AC68002202E001C901C30432A242FAD1E868002202E0002102C304328242FAD11035013E002EE9D100F0B0FFFFF762FFFEE7C046B0
:4004400001000000A466010010B50E4A136801218B43136000230AE0032B03D89A000A49505800E009489900094A885001332F2BF2D9FFF73DFE034A116801230B431360A0
:4004800010BDC0460000104000000000C1030000000000207222074B1A70523A064B1A701A3A064B1A704132054B1A700022054B1A70704781000F4080000F4023000F401E
:4004C00033000F4082000F4010B500F0BAFC04000B4A117820230B43DBB2137009490A7810231A43D2B20A70074A11780B43DBB21370FF2000F03AF8200000F0A6FC10BD61
:4005000091000F4090000F4092000F4010B5064B1B78002B04D1FFF7BDFF0122024B1A70FFF7D2FF10BDC04647140020034B1B785B07FBD4024B18707047C04662000F405C
:4005400042000F4070B50500074B1B78002B05D108E0FFF7EBFF0134A4B200E00024285D0028F6D170BDC04647140020044B1B68002BFBDB0002034B1843014B1860704768
:400580000000014040000080024B1B68012018407047C0460C002E401F2318401E3B8340014A13607047C04600E100E001BE704770B504000D001F2802D90020FFF7F6FFEF
:4005C0001034A40080239B059C4664442068256070BDC04610B5040006E0084B586800F027FC074B9C46644480231B029C42F4D8024B9868604300F01BFC10BDB80E002041
:400600000080FFFF10B5034B1B7B584300F010FC10BDC046B80E0020F0B557464E46C0B483B0040000F00DFC0190E71E2D2F74D83F4B1B78DBB29C4208D83E4B1B78DBB27A
:400640009A463D4B1B78DBB2994631E03B4B1B78DBB29C4208D83A4B1B78DBB29A46394B1B78DBB2994623E0374B1B78DBB29C4208D8364B1B78DBB29A46354B1B78DBB212
:40068000994615E0334B1B78DBB29C4208D8324B1B78DBB29A46314B1B78DBB2994607E02F4B1B78DBB29A462E4B1B78DBB299462D4BDE5D2F2E09D92A2C07D919222B4B60
:4006C0001A60052000F0B4FB192503E0274B1D683F231D40B54206D9234BDA5D234B1A60052000F0A5FB1F4B9C4664442378DBB21F4A13601F4B52461A601F4B4A461A60E5
:400700000520FFF77FFFB5420AD2174BDA5D174B1A60052000F08CFB02E00020FFF746FF019800F092FB03B00CBC91469A46F0BD40F3FF0F41F3FF0F42F3FF0F43F3FF0F00
:4007400044F3FF0F45F3FF0F46F3FF0F47F3FF0F48F3FF0F49F3FF0F4AF3FF0F4BF3FF0F4CF3FF0F4DF3FF0FB06201002CFF0B4028FF0B401CFF0B4020FF0B4010B5040006
:400780000F4A116801230B4313600E4A0E4B1A600E4A1368802109020B431360002809D100200CE00120FFF72DFFFFF7EDFE002804D1013C002CF5D1102000E0002010BDBC
:4007C00060F02E400220000078002E4010002E40034B1868C0231B02184000D00120704700010B4010B50D4B1A6801218A431A601A68022082431A60094A10683024A043AE
:40080000203C204310601068093CA043014311601A68802109060A431A6010BD00F02E4000FF2E4070B51D4B1B6801241C40002802D0012816D02BE0184B19680122914323
:4008400019601968022081431960154B19682E3081432038014319601968093881430A431A6018E00D4B1A6802218A431A600C4A10680725A8430143116011683020814357
:40088000103801431160196801220A431A6002E00020FFF78BFE200070BDC04600F02E4000FF2E4010B500F0CCFA044A1368C02109020B43136000F0C8FA10BD00010B4075
:4008C00010B500F0BEFA08490A68084B1A408024E40122430A600A6813408022120213430B6000F0B2FA10BD00010B40FF3FFFFF70B5050000F0A5FA0400FFF769FF002853
:4009000003D0FFF7DDFF012100E0002108482840084A1568084B2B40184310601368012901D1FFF7BFFF200000F08FFA70BDC0460404040010020B40FBFBFBFF10B5244B5B
:400940001B685B0715D5234B5B685B070ED5224B596A042001401F4C62688A4362605A6A82435A629B69002B00D098470420FFF7BFFF174B1B685B0518D5164B5B685B0528
:4009800010D5154B596A8022D2001140114842688A434260596A114A0A405A62DB69002B00D098478020C000FFF7A2FF084B1B685B030CD5074B5B685B0304D5064B1B6A88
:4009C000002B00D098478020C002FFF791FF10BD10020B40CC0E00204C140020FFFBFFFF0023034A1370034A1370034A1370704727260020202600202626002030B591B0EA
:400A00000400142222490BA800F0FBFC214B1B78002B04D1FFF7E4FF01221E4B1A70002C32D01D4B1C6008AC05AD099506AB0893032222811A321A805A80193A1A7101F0D0
:400A400055F908232B7001F057F916216944200001F038FA002818D1104B0293104B0193052300930BABDF2212010E490E4801F07FF9002809D101220C4B1A7009321A21F3
:400A80000B4810F025FF00E0012011B030BDC046E062010074140020142600207902000000740100C0000020E10B00001E260020F462010010B5022821D8002807D1114B0A
:400AC00000221A81C82292005A809A8009E0012807D10C4B96221A81802212015A80F83A9A80094B187007480EF0F4FB002807D1064A117804230B43DBB2137000E00120E3
:400B000010BDC046D40E0020262600202726002003784078000218437047C04670B5050083890D2B1FD1043033332A00002110F0E7FE041E11D16868FFF7EAFF830706D57A
:400B40000A4B1B68290082204000984705E0074B1B6829000620FF309847054A137801218B43137000E00024200070BD1426002027260020024B00225A701A707047C046B7
:400B80002426002010B582B00400FFF7C7FF0A4B1B78DB070ED4002809D001A912238B70A3890B80C87020680FF02AFC02E020680FF09EFC02B010BD272600208379002BDB
:400BC00007D000200BE0C25C002A07D10133DBB200E00023052BF6D9002000E001207047F0B583B005000C00784A117801230B43DBB213704C2800D9D7E08300744AD35832
:400C00009F4601AE0727377000237370300003F09BF8377001237370300003F095F801F061F86C4B1E683000FFF7C8FF002803D0300001F06FF821E0674B1F78674B1878AE
:400C40008001FC263601020032403F2139401143634B1B781B03F822520213401943614B1B785B04FE22120413400B435E4803701A0A42701B0C837001F04CF800200EF0AC
:400C800025FA01AE02225949300000F0BAFB30000EF03AFA564B338032001D2100200EF06BF831881D200EF03AFA0422514B1A707BE02278504B1A7077E02378002B74D134
:400CC0006378002B06D14D4B0022DA809A804C4A1A6063603D4A137801218B43137064E03A4B1B789B0660D4464B1B78102B5CD10522444BDA7058E002223E4B1A7054E031
:400D000002223C4B1A7050E004223A4B1A704CE0384B1B78022B48D02C4A1278D20744D52A4A1278520708D50322324B1A70274A137804218B43137037E0244A12781207A6
:400D400008D504222B4B1A70204A137808218B4313702AE0032B28D10422264B1A7024E0294E02222100300000F04BFB0022224B1A7033785A00D21853002449C918244B71
:400D80009C4661440622234800F03BFB0DE0FFF7F1FE0AE06188162900D9172120880FF039FB02E02000FFF7EDFE084B1A7811231A4209D0054A137801218B431370164B44
:400DC0001B6821002800984703B0F0BD2726002004650100E00E00207CF2FF0F7DF2FF0F7BF2FF0F78F2FF0FE40E002038660100480800001E2600202026002078140020A0
:400E0000B00E0020700F00202426002000740100790200001826002014260020024B1868800901231840704704020440000000000230800803D00138FDD1C046C046C046AA
:400E40007047EFF3108072B6704780F31088704710B5FFF7F6FF044A136804218B43136030BFFFF7F2FF10BD10ED00E00160704701607047324B1A781202324B1B781A4389
:400E8000314B1B781B02314909780B4330498B4201D1072A06D0D42109018B4206D1042A04D102E02B4B042200E02A4B2A490B602A4B1A602A4B1B781B022A4A12781343DF
:400EC00080229201934202D0002B02D002E0264B00E0254B254A1360254B1B781B02254A12781343244A934205D0244A934204D0052B05D103E0224B02E0214B00E0204B07
:400F0000204A1360204B1B681B09204A1268AA2A15D1012B13D9164B1B780E2B0FD11C4B1B781B021B4A127813431B4A13601B4B1B781B021A4A127813431A4A13607047E3
:400F400059F1FF0F58F1FF0F5FF1FF0F5EF1FF0F580B0000580D00006C002E4074002E405BF1FF0F5AF1FF0F0220000078002E405DF1FF0F5CF1FF0F0F0F000005050000E9
:400F8000050F000080002E40EC0F00F0E00F00F06DF2FF0F6CF2FF0F84002E406FF2FF0F6EF2FF0F94002E4010B5FFF72BFB10BD10B5FFF70FFB10BD10B500F04FF810BDB2
:400FC00010B500F053F810BD10B500F04FF8034800F02EF8032000F031F810BD9910000010B5024800F04AF810BDC0469910000000487047020200002B2070472B20704751
:401000002B2070472B2070472B2070472B2070472B2070472B2070472B2070472B2070472B2070477047C0460120704701207047014B18677047C0460000002010B50400C0
:40104000FFF7FFFE044A1368C0218B43A4011C431460FFF7FAFE10BD0CE400E080225201014B1A607047C04600E100E080225201014B1A607047C04680E100E010B5040047
:40108000FFF7F4FF2000FFF7D3FF0320FFF7D6FFFFF7E4FF10BDC04610B514F03DFF10BD002243088B4274D303098B425FD3030A8B4244D3030B8B4228D3030C8B420DD3E4
:4010C000FF22090212BA030C8B4202D31212090265D0030B8B4219D300E0090AC30B8B4201D3CB03C01A5241830B8B4201D38B03C01A5241430B8B4201D34B03C01A5241AB
:40110000030B8B4201D30B03C01A5241C30A8B4201D3CB02C01A5241830A8B4201D38B02C01A5241430A8B4201D34B02C01A5241030A8B4201D30B02C01A5241CDD2C3097A
:401140008B4201D3CB01C01A524183098B4201D38B01C01A524143098B4201D34B01C01A524103098B4201D30B01C01A5241C3088B4201D3CB00C01A524183088B4201D3D3
:401180008B00C01A524143088B4201D34B00C01A5241411A00D20146524110467047FFE701B5002000F0F0F802BDC0460029F7D076E7704703460B437FD4002243088B42FE
:4011C00074D303098B425FD3030A8B4244D3030B8B4228D3030C8B420DD3FF22090212BA030C8B4202D31212090265D0030B8B4219D300E0090AC30B8B4201D3CB03C01A3C
:401200005241830B8B4201D38B03C01A5241430B8B4201D34B03C01A5241030B8B4201D30B03C01A5241C30A8B4201D3CB02C01A5241830A8B4201D38B02C01A5241430A00
:401240008B4201D34B02C01A5241030A8B4201D30B02C01A5241CDD2C3098B4201D3CB01C01A524183098B4201D38B01C01A524143098B4201D34B01C01A524103098B4201
:4012800001D30B01C01A5241C3088B4201D3CB00C01A524183088B4201D38B00C01A524143088B4201D34B00C01A5241411A00D201465241104670475DE0CA0F00D04942F0
:4012C000031000D34042534000229C4603098B422DD3030A8B4212D3FC22890112BA030A8B420CD3890192118B4208D3890192118B4204D389013AD0921100E08909C3090F
:401300008B4201D3CB01C01A524183098B4201D38B01C01A524143098B4201D34B01C01A524103098B4201D30B01C01A5241C3088B4201D3CB00C01A524183088B4201D311
:401340008B00C01A5241D9D243088B4201D34B00C01A5241411A00D20146634652415B10104601D34042002B00D54942704763465B1000D3404201B5002000F005F802BD32
:401380000029F8D016E770477047C046014B18687047C046241300200E4B70B500251E000D4CE41AA410A54204D0AB00F35898470135F8E715F064F9084B00251E00084C2E
:4013C000E41AA410A54204D0AB00F35898470135F8E770BD8C6601008C6601008C6601009466010030B50024A24208D0035D651C0C5DA34201D0181B02E02C00F4E7002094
:4014000030BD002310B59A4203D0CC5CC4540133F9E710BD03008218934202D019700133FAE770470CB430B5164B9DB00C1E1D6804DA8B2301202B6040421DE0822302A965
:401440009B008B810023029008619C4200D0631E8B604B6101235B42CB81209A21AB2800019300F073F8431C01DA8B232B60002C02D00023029A13701DB030BC08BC02B055
:401480001847C04624130020F0B58E6885B007000C00039201939E4243D890238A89DB001A423ED003250969236801985B1A029363695D43EB0F5D19029B6D1001331B1839
:4014C000AB4200D91D00530510D52900380000F037FB061E14D0029A2169FFF792FFA289194B134080221343A38112E02A00380000F086FB061E0CD12169380000F0D4FA50
:401500000C23402201203B60A38940421343A38117E0029B2661F61826606561019EED1AA560019BB34200D21E0032000399206800F0A5FA0020A3689B1BA36023689E198A
:40154000266005B0F0BDC0467FFBFFFFF0B59FB0029005938B890F0016001B0610D50B69002B0DD1402100F0EBFA38603861002804D10C23029A01381360D8E040237B6159
:40158000002306AD6B6120336B761033AB7634002378002B03D1A31B049312D003E0252BF9D00134F4E7A31B320039000298FFF76BFF431C00D1B4E06A69049B9446634406
:4015C0006B612378002B00D1ABE00122002352426A6002A95432521801342B60EB60AB601370AB65534E21780522300000F03CFA002807D00123801B83402A6801341343C0
:401600002B60EFE72B68DA0604D55322202102A8121811701A0704D553222B2102A81218117022782A2A03D0099B00200A210EE0059A111D12680591002A01DB099204E0E2
:401640005242EA60022213432B6001340BE02278303A092A04D84B4301349B180120F6E7002800D0099323782E2B1ED163782A2B0AD1059B02341A1D1B680592002B01DA31
:4016800001235B42079310E000230A201A0001346B6021783039092904D84243013452180123F6E7002B00D00792234E21780322300000F0D9F9002806D04023801B8340CF
:4016C0002A68013413432B60217806221B48661C297600F0C9F9002812D0194B002B06D10722059B073393430833059314E005AB00933A00134B2900029800E000BF07E017
:4017000005AB00933A000F4B2900029800F08AF80390039B013304D06B69039A9B186B6135E7BB890B985B0601D5012040421FB0F0BDC0464A6601005066010054660100F2
:401740000000000089140000F7B5170001938A680B6900900C00934200DA130022003B6043321278002A01D001333B6023689B0602D53B6802333B60062523681D401ED0B4
:40178000230043331B785A1E9341226892061CD53020E1184331087021005A1C45310978A2184332023311700FE022000123193201990098089EB047431C0ED00135E368E9
:4017C0003A689B1A9D42F0DBDAE72200019943320098089DA847431C02D10120404220E006232068E1683A6803400025042B03D18D1AEB43DB171D40A3682269934201DD81
:401800009B1AED180027BD420AD0220001231A3201990098089EB047431CDED00137F2E70020FEBDF0B58BB006920A0043320793059004920A7E0C00109B6E2A00D1ABE0A5
:4018400011D8632A22D009D8002A00D1B5E0582A00D0C5E045310A70814A4FE0642A1DD0692A1BD0BCE0732A00D1AAE009D86F2A29D0702A00D0B3E0202209680A4322602F
:4018800037E0752A1FD0782A33D0A9E00E001A684236111D196013683370A4E021681A68080606D4490604D5111D19600023D55E02E0111D19601568002D3BDA2D23049AB6
:4018C0006D42137036E021681A68080606D4490604D51568111D1960ADB202E0111D196015685F4B227E039308276F2A1DD00A271BE022007821453211705A4A19680392CE
:40190000081D226818600D68100602D4500600D5ADB2D30702D520231A4322601027002D03D1202322689A4322602300002243331A7002E00A274A4B03936368A360002BE2
:4019400009DB0422216891432160002D05D1049E002B11D07BE0002D79D0049E28003900FFF724FC039B013E5B5C280033703900FFF796FB051EF1D1082F09D12368DB0762
:4019800006D563682269934202DC3023013E3370049B9B1B23612BE009681A68080607D4490605D5111D19601368A28A1A8004E0111D1960136862691A600023049E2361A9
:4019C00016E01A68111D1960166800216268300000F04AF8002801D0801B6060636803E0260042363270012323610023049A1370079B09AA00932100069B0598FFF7A4FEF0
:401A0000431C02D10120404227E02369320006990598079DA847431CF4D0236800259B070FD4099BE068984217DA180015E022000123193206990598079EB047431CE1D0A8
:401A40000135E368099A9B1A9D42F0DBE9E72600039B42361B7833708EE70BB0F0BDC0465B6601006C660100C9B28218904204D003788B4202D00130F8E70020704710B5A8
:401A8000884202D98B18984201D3002305E09B1A013A08D3995C8154FAE7934203D0CC5CC4540133F9E710BD70B50500002944D00C1F2368002B00DAE418280000F0D8F8E3
:401AC0001E4A13681100002B02D16360146031E0A3420DD92268A018834203D118685B688218226063600C6024E0A24203D813005A68002AF9D11E689819A0420BD121686E
:401B0000711858181960824214D110685268411819605A600EE0A04202D90C232B6009E021686018824203D1106852684118216062605C60280000F09CF870BD102600202C
:401B4000032370B5CD1C9D43083506000C2D01D20C2501E0002D01DBA94202D90C23336048E0300000F084F8234B1C681A002100002913D00B685B1B0DD40B2B02D90B601C
:401B8000CC181EE08C4202D1636813601AE04B6863600C0016E00C004968E9E7174C2368002B03D1300000F051F820602900300000F04CF8431C18D00323C41C9C43A042F4
:401BC0000DD12560300000F054F8200007220B30231D9043C31A0ED05A42E2500BE0211A300000F033F8431CEBD10C233000336000F03FF8002070BD102600200C2600205C
:401C0000F8B506000C001500002904D11100FFF797FF040018E0002A03D1FFF745FF2C0012E000F027F885420ED929003000FFF787FF071E07D021002A00FFF7E2FB210016
:401C40003000FFF731FF3C002000F8BD002370B5064C050008002360FEF7BAFB431C03D12368002B00D02B6070BDC04628260020704770470B1F1A68101F002A04DA891852
:401C800004390B68D018043870470000134A1088810703D08107890F401A001D11791030484381B25088820703D08207920F801A001D800040180A494030098980B2CA07E5
:401CC00001D0503080B2890706D504495422091F09785143081880B2704700007C0F00208C14002010B501F005FF10BD10B501F0C3FF0DF047F810BD10B501F0C5FF0DF003
:401D000049F810BD10B501F0FBFE10BD10B500F05BFA10BD10B50749044609780220002907D1204601F048FF002802D120460DF0B7FA10BD0A11002070B504460120002CCE
:401D400012D02368002B0FD0616800290CD0074D06222889208118462968FFF752FB6968606809780170002070BD00008C140020FFB585B0002768460E9D07734F481C46AA
:401D80000078002802D0082009B0F0BD10990F9801900095029105A807C800F007F90028F2D16946264603AB84460873002C19D0002115E08A00B75A082F09D99019807835
:401DC000002805D0083FB7521878401C187005E0002914D00027B75290198770491CC9B2A942E7D360460028CED10F98002809D0109901F02FFA002804D00120C4E701201A
:401E00008446EFE701F07CFE2D480021416081600599016021888180022D07D3A1798171A17AC171A1890181218A418100211EE0481C19E082008B00A75AE65ABE46BE428D
:401E400011D26F463E80B4461E190296B678BE7001967646E6521719029EBB78B3706646A652019EBE70401CA842E3D3491CA942DED3134822460C3000906846037B07996D
:401E8000069800F01BF90028B8D168460B4C007B60700B480C3001F06FFE0028AED1084907480C310AF0D6F90028A7D10AF0F0F90028A3D10121217066E70000760F002081
:401EC00080140020F8B5054636480F460078002802D002242046F8BD002F60D000243249002D16D02A89D0070DD02868002808D003881B3BE12B04D24088FB2801D81B28DE
:401F000001D2012409E0900707D56868002804D1F7E70020088108604860002CDAD122482E8906811F481B21801D01804180042101711C490020891C0870F00705D0194882
:401F40000622801D2968FFF75CFA1749B00703D56A68144812788270124D0E46AD1D281F0D60486001F04EFE284601F03DFE308910F086FD30890FF071FF28880FF074FFF0
:401F8000308910F0B5FE03461033FFF77FFE1F21C018890140183880A91F88809AE7012498E70000760F00208C140020FFB58446384F1C460020BB883F780546024606464A
:401FC000002F11D100290ED0029999420BD36146002908D0002C06D00A99002906D02E4B0B99994202D2012004B0F0BD002144E0AB001F19BF78002F3BD0E35A002B38D0D2
:402000007B43591889B22B0000F04AF8050410161C253100A7782388BC46FF27233BEB37BB4222D26346032B1FD322E0A388002B1FD0302B19D31CE02389002B19D0282B6F
:4020400013D316E0A289002A13D01346134F233BBB420AD20DE0268A002A0AD033460F4F233BBB4201D2964203D901200EE0002001E000280AD16D1CEDB2099B9D42B7D3B8
:402080001C2463435B1802998B42ACD89642AAD8AAE70000760F002079020000BAFF000030B47446641E2578641CAB4200D21D46635D5B00E31830BC18470000FFB583B070
:4020C000002469460C801F4606468C80002806D00598002803D004983043800701D0012466E0002FFBD03449049809888842F6D3FEF776FFFEF764FF00F016FC002855D113
:4021000000F066FD002851D12C49084601F0D6F805042D0C4AD12A480499066081800021C18007810C98007AC00704D0684601F000FD040007D10C98007A800703D501A86C
:4021400001F00CFD0446BF1DFEB2002C20D13146059800F05DF804001AD110F0D7FD040016D16A461088928808368518144AF1B29088D288AEB29319984207D3401B801A06
:4021800080B201F08BFB050007D000E0FF25012400F062FA002D04D008E0F8B200F01CF9F6E700F085FA07490120087000F0CEFB204607B0F0BD00007A0F0020FD2200000D
:4021C00098140020820F002010B503480078012801D101F005FA10BD820F002070B5084B0446DA889E8803205518B54206D8186880182060D8884018D880002070BD0000CD
:4022000098140020014800897047000098140020F0B587B007460D4600208900009006916846FFF7DBFF844600285DD1304800990160002117E02E4B88001A6806291154F2
:4022400006D22C4C0419667882185670628805E0C419203CA67A8218567022891B68C018491C4280C9B2A942E5D300242DE0601CC2B2059025E01E4FA3003968960058186E
:4022800040887118039604904E88B04217D938466F46FE80B6464F786E4677710297049F4F800168039F5E18767879184E700168764659184E800068029F18184770521C4D
:4022C000D2B2AA42D7D30598C4B2AC42CFD36046002809D168460699FFF780FF8446002802D1054900980860604607B0F0BD0000840F0020B8660100880F0020704700005A
:4023000010B5002809D005494A68002A05D0011F08788000105801F06FFA10BD840F002010B50446FFF76EFFC0B2801DA0420CD307484068002808D0A100405801F0CEF94C
:40234000002801D00470001D10BD002010BD0000840F0020F8B516460D460446FFF752FFC0B2801DA04203D20020C0430090F8BDB2B2E9B2684601F0D7F90099481C03D00D
:40238000024AA000526811500098F8BD840F0020F8B50746FFF736FF801DC6B20A49002005460C680DE06178002907D06188B94202D32078FFF7B4FF002804D1241D6D1C23
:4023C000EDB2B542EFD3F8BD840F002010B5002801D0FFF795FF10BD70B506460948002504680BE06178002905D062882078121D0023FFF7AFFF241D6D1CEDB2B542F1D357
:4024000070BD0000840F0020FFB581B00A9F16000C4620D000F0F6F8054604281BD0002F0CD03846FFF7B4FF20492A0151184860002810D03A460499FEF7E3FF1B49280136
:402440000E504618778101980570200406D47D20C000444304E0FF2005B0F0BD6404640C00F0BEF80746042807D000F053FAA0420BD800F04FFA201A03E0204600F0AEFA2F
:402480000020F06035720020E6E700F043FA009000F0BAFA00980121001B009000F0F0F802493A0151180098C860E6E7A4140020F8B5042801D3FF20F8BD060116483418F4
:4024C000217A042903D0E068002802D017E00020F8BD00F01FFA054600F096FA00F0A0F804280CD001010C480F18F8680021451900F0C6F80020F860284600F06FFA6068BE
:40250000054D002801D0FFF761FF042020720020A8516081E060DAE7A4140020FEB500266A46304601232549050169180D7A042D02D0C96800291BD000211154401CC0B236
:402540000428F0D300246846005D002830D01B48210108184189476805680291002101604160042241810272C160002E02D015E01354E3E700F054F804280ED001010F4892
:4025800008180190C6680021304600F079F801980021C160304600F021FA0126002D07D038460299A847002F02D03846FFF70EFF641CE4B2042CC6D3FEBD0000A4140020C1
:4025C0000EB5002005216A4600901181508103486946006811F021FA0EBD00008C0F0020074A0020010189180B7A042B02D0C968002903D0401CC0B20428F3D370470000ED
:40260000A41400200549002002015218127A042A03D0401CC0B20428F6D37047A414002030B50A4B04200A4C00210A011219157A042D06D0D268002A03D09A4201D808462D
:402640001346491CC9B20429EFD330BDFFFF0000A41400207047000030B50020074C05460423020111190B72A5504D60401C4D81C0B2CD600428F4D330BD0000A414002021
:4026800030B5094C00231A011219157A042D04D0D568002906D02D18D5605B1CDBB2042BF1D330BD2D1AF7E7A4140020002070471CB5002469460C70142001902346054AD8
:4026C000054811F0AFF904480068401C00D1FF2420461CBD2D2700008C0F00203EB5124A0146FF2000230124126800290DD0012914D0042908D104206946009308814B8146
:40270000104611F08AF980B23EBD68460093048143816946104611F07BF9F4E768460093048143816946EBE78C0F002070B545890468416800890300FFF7B2FC0828050977
:40274000091E22282628002007F0BEFF1EE0022908D0C8B22A4621460FF0DAFA2046FFF735FE13E002202A4621460FF0D1FA2946204600F00DF809E0002010F04DFE05E059
:402780002046FFF7CBFE01E0FEF74CFC002070BD014B0022DB681847900F002070B5448905680089022803D0032809D0FF2070BD2246094C0023A46829460120A04708E03A
:4027C000FFF7A0FA241DA2B200232946022009F0F4FB002070BD0000900F002070470000024800214160018041807047900F002070B50C46002186B016460391012802D0D8
:40280000022859D116E003A9012009F02BFC01281BD1039D324621462846FEF7F2FD0095287801900220694608814E816846FFF7B5FF41E0214D002B686809D0049004A990
:40284000022009F00FFC01281DD0022006B070BD002812D0298840182146FEF7D2FD28880024801980B228806988091D884206D12C801348FFF792FF03E00320E6E78842AF
:402880001AD96C6018E004986860E278A378110219430B4A698000231060E3565360032313815181A1788170E178C1706178417021780170042028800020C7E7900F00204F
:4028C000E41400203EB515460C46022803D004280CD000203EBD0091019002206946088107484A81006811F098F807E00FF010FA044B0022DB6829462046984701203EBDFD
:402900008C0F0020900F0020014AD16090607047900F0020034801688068081A0A21484300097047F014002010B5FEF74DFB4C2204490548FEF765FD03490120C8700020BD
:4029400010BD0000D4660100F418002010B5FEF733FB10BD70B5134C2368002B08D0207B1149C20705D04008400020738868A08070BD88680B4AA18880B29268814203D938
:402980000A4D691A091802E0814202D2411A5118A160A080A0689842EAD311F05BF800F013F870BDF0140020C0102E40FFFF000010B508461946FFF7A7FF10BD704710B5EC
:4029C000FFF780FF10BD000003480021016041608160C16070470000F0140020024610B5FF20002A0CD0FFF7EFFF064C0321207B0843207310010A21FEF7D8FB20600020A1
:402A000010BD0000F014002000B504480A21806848430209FFF7D8FF104600BDF01400200248007B8007C00F70470000F014002010B54B490868002802DA4A4B01221A70F2
:402A4000022290430860484800694549C00B4031096A0246C907C90F0A4259D0012000F07FFA3F480E216C30FEF702FA3E4820218430FEF7FDF93C4814219C30FEF7F8F9BE
:402A80003948FF21C131A430FEF7F2F93648FF212F31B030FEF7ECF933483449BC30FEF7E7F931483249AC30FEF7E2F930492E48491CB430FEF7DCF92B482E49B830FEF7F5
:402AC000D7F929482C49CC30FEF7D2F926482B490830FEF7CDF924482949A830FEF7C8F9214828498830FEF7C3F91F4826498C30FEF7BEF91C481921C9029030FEF7B8F9D3
:402B0000FEF7B8F9FEF774FAC0B2022812D01FE000290BD0002101420AD0114801216030FEF7A6F90120FEF743FA97E70121F2E7FF2010BD15491648FEF79AF91448154978
:402B4000001DFEF795F9124800210830FEF790F954200449C043891C0870002010BD000000F02E40A00F002000002E40320300002F3F00003102000010520000EC160000E1
:402B8000FA12000031D000003AE300009956000080012E40F80F000070B50646581C80B245086D00002408E0304600F0A9F81055000A1119A41C4870A4B2AC42F4D3D80727
:402BC00005D0D0182038D15CC47FD454C17770BD10B5FF2000F0C4F90F49FF2048700E481021801D41800121417001700A490020C91C4870FFF71CFF04000AD100F010F9E1
:402C000007210648FEF732F9044807211830FEF72DF9204610BD0000A00F0020CC112E4070B5002405465B1E0AE0284600F068F8010A161971702D1D1055A41CADB2A4B2E6
:402C40009C42F2DB9C4203D1284600F059F8105570BD000070B500210A4D5B1E0AE0541864782602545C344346193480001D891C80B289B29942F2DB994202D1515C401981
:402C8000018070BD00102E40F0B50599091FCFB200217E1E0BE0541864782502545C2C43164D45192C80001D891C80B289B2B142F1DBFC0712D01C78515C24020F4A0C4377
:402CC00081180C809C785D78001D210280B2294384182180001D80B2D9780CE059781A7809021143054A84182180001DD9789B78090280B2194380180180F0BD00102E4073
:402D0000014940180088704700102E4010B50B490020487000F084F8002000F047F9002000F034F907210648FEF7A0F8044807211830FEF79BF8002010BD0000A30F002044
:402D4000CC112E4010B50B46062812D006DC01280CD0032801D1FFF7D9FF10BD0A28FCD00B28FAD105480078107010BDFFF730FF10BD1146184600F035F910BDA60F0020EE
:402D8000F8B5244DAC6A0127A007234E002816DA307806280ED1286A384328621F480069F903084381B21D481030FEF761F8042000F0D6F8174802212830FEF757F8E00717
:402DC00018D000F069FF01280FD1002000F0B6FF062000F0C5F81049FF20C91E48707078002802D1686B384368630A4801212830FEF73CF8E0050BD53078042802D1052059
:402E000000F0AEF80348FF2101312830FEF72EF8F8BD000040F02E40A30F002000002E4010B503212348FEF723F80120FEF7BCF820483038406A204C80076178800F8900CD
:402E400001431C480C38FEF713F86078002808D0401E022181401820FEF792FAC000083800E0B82081B21548FEF702F81348032109021438FDF7FCFF10481149B830FDF709
:402E8000F7FF612189010F48FDF7F2FF0D480321001FFDF7EDFF0C490C48FDF7E9FF0B480B496038FDF7E4FF084801218838FDF7DFFF10BD70F02E40A60F0020D8102E40F7
:402EC00090890000041E2E40FF0F000058122E40209000000848017806290BD140780749002803D1486B400840004863C86A01221043C86270470000A30F002040F02E40DC
:402F00000148007870470000A30F002000B50300FFF7C6F8080D050D0B070507090D012000BD032000BD042000BD022000BDFF2000BD0000074A9168D26889B2064B92B2D2
:402F4000994204D105498A4201D1012100E000210170704780002E4033D000003FE3000010B50446FEF72CF8072C01D9FF2C01D102480470FEF720F810BD0000A30F0020BB
:402F80000149487070470000A00F002010B5064A012805D01921C9021046FDF769FF10BD1D21C902F8E7000090002E4010B50A4A141D012808D009491046FDF759FF08497C
:402FC0002046FDF755FF10BD04491046891CFDF74FFF0349491DF3E788002E4031D000003AE3000070B50C460546FEF701F8C0B202280E49287804D0FF2810D04C280CD8B6
:4030000010E0FF2809D10A4AD0680004800F032801D0087807E09069000A553803E00878207070BD4F382070087070BDA20F002000002E40F0B50122002834D0002932D053
:403040000424420600D00524792342065B06D21800D0641C034600221EE00C2516466E43124D00277519AF72104F002ABB51696007D0661EB24209D10D4E86197606760E0B
:4030800005E05E06760E8027BE1B00E080269B198919521C2E81D2B2A242DED303480549006B002288611046F0BD00007C17002079020000AC0F002018B500206946087082
:4030C0000A48006900280ED0132149014018047E684604704F21C900054800F05BF8A04201D0012018BD002018BD0000AC0F002000150020074900200C2242435218927A85
:40310000012A05D0401CC0B20628F5D300207047012070477C170020F8B50F000446164609D01A4D1A496868A04202D94018A04201D38E4201D90120F8BD39462046FEF76F
:4031400051F9002820D0324639462046FEF759F90E49F0B2012620318E7600210C220B4653430A4A9A1813895568EF18A74207D9641B1B1B9672834206DAC01A1469C0B244
:40318000491CC9B20629E9D30020F8BD7C17002079020000034610B50020024604E09C5C2018521CC0B292B28A42F8D310BD000070B500F05FF8084C064A216907480D46F3
:4031C000FEF71FF905492846FFF734FFFFF774FF207070BD79020000AC0F002000150020002070470020054A002902D0012902D002E0906000E0D06000207047AC0F00205B
:4032000070B5084C154608460549E26889182A46FEF7F7F8E0684019E06028B270BD000000150020AC0F00203EB50A226946FFF7E7FF044606480A2200686946FEF7D2F8A3
:40324000002802D00020C0433EBD20463EBD0000B00F0020002802D0044A914201D2FF20704703494A6108610020704779020000AC0F0020024800218160C1607047000081
:40328000AC0F002070B5074C15460548A26880182A46FFF741FFA0684019A06028B270BD00150020AC0F002010B503490A220968FFF7E8FF10BD0000B00F002010B50F4AFE
:4032C000002313600E4A13600E4B18600E4801600E49012008600E490860000290600E490C4808600D4914300860FF381538506000F0BCF800F0CAF9002010BDE00F0020B8
:40330000C80F0020F40F0020F80F0020E40F0020D40F0020C4180020D80F0020EC0F0020014610B50020002910D0094B1A689C685118A14209D25868196080188A0704D0AC
:403340008A07920F891A091D196010BD002010BDC80F0020F8B50024164E671E321F3D463168136806E01422624310328A58521C1BD0641C9C42F6D36A1C14D02C4614220F
:40338000544322460C3288500C214843FFF7C8FF3168002808510AD031680020103408517068401C70602846F8BD2546E4E73846F8BD0000D80F0020F3B50026F64381B06A
:4033C00000281BDB1E490968884217D80299002914D01B4F142204463F1D54432546396810354859401C09D0FDF7EAFD38682F1F4159C359994203DBFDF7DEFD3046FEBD3A
:40340000214608310091465801590C20704308180C220299FDF7F5FF0948761C001D0068C159B14200D100260549009A091D865008684159491C4151FDF7BEFD0020FEBDD8
:40344000D40F0020002803DB07490968884202D90020C043704704491422091D096850431030085870470000D40F0020F0B500200D4A451E0346171F50600FE014260146DE
:40348000714314680E1DA3510C461668083433511668083435511468401C635039688842ECD30020F0BD0000D80F0020F3B50026F64381B0002841DB2349096888423DD82C
:4034C000029900293AD0204F142204463F1D54432546396810354859401C2FD0FDF770FD3868415900292BD0211D009146580C21005971430F46C1190C220298FDF781FFFE
:4035000011480021001D0068761C00590C34C0190160416081600C48001D00680159B14200D100260849009A091D865008684159491E4151FDF740FD0020FEBD3046FEBD61
:40354000FDF73AFDFAE70000D40F0020FEB504460D4600201E49089E0860471E009001900290002C11D0486885420ED2002A0CD0002E0AD0642E08D808460C3001681C202C
:4035800068430C18207A002801D03846FEBD0120226020721846FFF7DDFE6060401C13D06681A6810A4827610C3067610179A94200D205710021684601810A462846029BC8
:4035C00000F040F82846FEBD00202072DDE70000E00F002038B50124009400F039F838BDFEB50027164EFF433D4600240EE01C20316860430818017A002906D04068FFF774
:4036000021FF002801D0254603E0641C3079A042EDDA681C12D01C2130684D434419FDF7CFFC69466068FFF741FF0546FDF7C4FC002DD9D1216868468847D5E7FEBD00006A
:40364000EC0F002038B50024009400F001F838BD1FB500220C49541E0A60002811DB496888420ED808491C220C31096850430818406801A9FFF7A0FE401C02D0002004B038
:4036800010BD2046FBE70000E00F0020F0B50021114A4D1E174611710C3F0B46BD6016E008461C2460431668041D355114680646235014680836A3551468361DA35304467A
:4036C00016680A34335318301468491C255078688142E5D30020F0BDEC0F002038B500210091002811DB0F49097888420DDA0D4D04010C3529680859002807D0201D08187C
:40370000694600F06FF9002801D0002038BDFDF757FC28680F34015D491E0155FDF74CFC009838BDFC0F0020F7B582B0002502986E1E06602E48D21C024017462D4A2C46D0
:4037400010460C380178106805E02301C358002B0FD0641CE4B28C42F7D3711C28D03401211D40180191039900F02AF900281FD101E02646F1E71F48016820460C300F5241
:403780001C480399026820460E30115419480399026820460F3011540398784300F0A0F8144900280968085102D00024009011E001251AE00F48016801980818009900F05F
:4037C0002CF9002801D0012502E00098C0190090641CE4B203988442ECD3002D05D10298066004480179491C0171284605B0F0BDFCFF000008100020F8B50D4600216A46F8
:403800008C461180002839DB23490978884235DA214B04010C3319680A59002A2ED020460C300B5A801C0E5C184670438018954224D3854222D2002006E007465F43BF185C
:40384000AF4206D0401CC0B2B042F6D36046002814D0114E271DC8190C366A46294600F006F900280AD168460088012808D030682946C01900F0D1F8002803D00120F8BDCE
:403880000020F8BDFDF79CFB30680F34015D491C0155FDF791FBF3E7FC0F0020F8B50F46002400F031F8002817D10C4900220B460C334A600EE021011D680E466A501D6807
:4038C0000C36AA53B61C1D680F31AA551D68641C6A54E4B2BC42EED31A71F8BDFC0F002000280BD0C01C074A81085068890053884118994203D893685160181870470020D9
:4039000070470000FC0F0020F8B5064600200F4D009029700C0121466846FEF75FFC00280CD129460C3100980860301B001F84B221466846FEF752FC002801D0FF20F8BD1F
:403940006C800098A8600020F8BD0000FC0F0020F8B5002827DB19490978884223DA174C05010C342168485900281CD028460C30085A009028460E300E5C401C0E5420685B
:403980002F1DC01900F064F800280CD12068002445590EE0094829460C300068C01900F03CF8002801D00120F8BD00982D18641CE4B2B442EED30020F8BD0000FC0F00207F
:4039C00030B50D4604000BD0A800FFF789FF6060002805D000202570C0436080002030BD012030BD70B50D46040005D0002D03D00220205E002801DA012070BDFDF7E0FA0A
:403A00000221615E60688900405828606088401E6080FDF7D1FA002070BD70B50D46040007D0002D05D002212078615E401E814201DB012070BDFDF7C3FA6088401C00B240
:403A40006080616880000D50FDF7B6FA002070BD10B5040009D0227800216068FDF7DAFC0020C0436080002010BD012010BDF0B500231D46002802D00224045F0AE0012049
:403A8000F0BD46689F00F6598E4201D1012503E05B1CDBB29C42F4DA15700020F0BD00000148007870470000101000207CB505460024FEF727F9A8796946087000A806228B
:403AC00029460130FDF79DFC0021684607F0F8F80C2806D0072806D01F2806D0122806D006E0022404E0042402E0272400E0012420467CBD0148012141717047001A0020B0
:403B000010B500F039FAFFF7FBF9FFF7FFF910BD70B504460025FEF7F5F8002C06D0A079012803D8214602F0B9FE00E00125284670BD01460120002902D050200880002037
:403B40007047000001460120002903D00248007808700020704700001210002001460120002905D0034854220078504308800020704700001210002010B502460D49FE2083
:403B800048700324104610F06BFA002810D110F00FFA00280CD108F0C1FA002808D100F0EDFB002804D107F05BFB002800D10024204610BD1010002070B500250446002832
:403BC0000ED0A07901280BD8FEF79CF8A0790028204602D003F01EFA03E003F0F3F900E00125284670BD0000014610B50120002904D006220248FDF704FC002010BD0000D5
:403C00001C10002001460120002903D008780249087000207047000012100020F0B589B015460F4606460124FEF76CF8002E20D0002F1ED0002D1CD0102239466846FDF779
:403C4000E0FB1022314604A8FDF7DBFB1021684610F028F9102104A810F024F92B46102204A9684604F0ACFD1021284610F01AF90024204609B0F0BD10B506F09DFF08F0C4
:403C800009F906F0BFF910BD10B506F095FF04F011FF07F061FF10BD0148007970470000001A002038B504460120002C20D0617801291DD800290BD0FF25E535FEF722F8A0
:403CC0000C4828180088C0B22070072803D00EE0FF25CD35F2E70020694608706846FFF729F969460878012801D108202070002038BD000000102E40014A00219268104778
:403D00001010002008B500226B461A7026280CD0094A342852680BD0352805D1900703D50021352008F0D6FA08BD19462620F9E7D007F9D03420F5E71010002001490871BE
:403D400070470000001A0020F8B504460120002C26D06178012902D92278092A20D8002905D0FF25E5352078092803D004E0FF25CD35F8E708202070FDF7C4FF2078114F4D
:403D8000114E08280DD00020FFF710F970780128207810D00D4969180880FE2070700020F8BD0120FFF702F90720B8810549203188800120F2E7B88102482178203081803D
:403DC000EBE70000C0112E401010002000102E4070B50E46050001D0002400E00C4C002C11D0E28A500609D5D107C90F022003F053FAE08A40218843E08204E0D107C90FFE
:403E0000012003F049FA3146284602F0B3FE70BD60190020F8B50546002004460D4E009013E022466946284600F050FF0098002801D010F0F7F8A878214602F057FCA8786D
:403E4000214602F045FC641CE4B2308AA042E8D8F8BD0000281A0020F7B58E462249086820308078002802D08446002338E0FF20FEBD1D48212100680D5CE9000A18567951
:403E80009779D47912794058B2420DD310F0CAF81548006820304178491C8907890F41708178491E8170E2E78118B61A0098F6B20160BC4212D1A64204D290197146C0B24B
:403EC0000E7003E010197146C0B20C700299EA000D70054909685118087103E05B1CDBB26345C6D30020FEBD5C100020064A02235188891C89B25180814201D8102900D9B4
:403F0000538050887047000022100020014840787047000022100020F8B50D460446FDF74FF8144E3068034620339A78042A1CD0E178A77809020F431978521C491C8907B3
:403F4000890F19709A70CA00845010184771316800205118087130681018C571306810188571FDF729F80020F8BDFDF725F8FF20F8BD00005C10002038B51E4CFEF7C0FFEB
:403F8000042813D0052811D0062812D003282AD007280AD100206946087002460120FEF7D1FEFEF7ADFF0128FBD138BD00F006FC38BD02F027FC00F001FC02F091FC8007B7
:403FC000800F0228F4D10C4841880029F0D05B21095D0029ECD101210170A07D0140022003F05AF938BD02F011FC0120FEF7B8FF38BD00006019002026100020F8B506467E
:40400000002403F0B7F90546304603F0CDF903460A480021068A0DE001228A401046174628401F40002803D0002F01D1224394B2491CC9B28E42EFD82046F8BD281A002004
:404040001CB50020694648706846FFF72BFE01AA69460A20FEF776FE6946042008561CBD70B50D4601F0DEF904000BD02079002808D0FDF747FEE178A0782A4602F010FE52
:40408000002070BD022070BD0148007970470000341900204030C07E002800D00120704700B500F001F800BD902148430749084A40186030417F491CC9B24177D289914259
:4040C00001D300214177C8B27047000040190020281A002013B501F0A5F904000BD001F068FE002807D0214601AA0A310620FEF729FE00201CBD02201CBD000010B50C46E1
:4041000001F090F900280AD001F053FE002806D0224604490A20FEF715FE002010BD022010BD000021190020F3B581B0074601460026029803F016F90446002F01D0002508
:4041400000E0154D002D21D0284601F0A1F9032C04D13946029803F061F906463846029902F0B6FA032C06D0002C10D00121384601F03EFB03E03146384603F0F9FA28466E
:4041800002F076F90221284602F08CF9FEBD3846029902F09DFAFEBD6019002010B5044600F0B6FA002804D104F0DCFA002801D00C2010BD2078611C02F080FEFF2801D000
:4041C0001F2010BD02F0C6FEFF280AD02178621C02F014FA044821780068026B601C904710BD072010BD00004410002010B504F0B9FA002801D00C2010BD02F041FE0348C9
:404200000068C06A8047002010BD00004410002070B50D46044610210FF044FE1021601806460FF03FFE334610221946204604F0C7FA102130460FF035FE02202870204641
:4042400006F032FF70BD0000FEB504464078217802028006870FE0781143A5780E050002360D0543304601F0DDF8EAB23B4621460096019000F064FA0006000E14D10B4892
:40428000224600680199436928469847C0B2FF280AD10198EAB24030817EFF23491C81762146019800F007F9FEBD0000601000200020704710B5044604F054FA002801D0A9
:4042C0000C2010BD2078611C02F0F8FDFF2808D002F03AFD044821780068426B601C904710BD1F2010BD00004410002010B500F0A9F906F0B5FF002010BD000010B504460A
:404300000F4801F07FFD012817D00D4805222146AC30FDF776F80A490522AC310846BC38FDF76FF800F086FD054880222038C17B1143C17300F0BCF910BD3A2010BD00007D
:404340006019002010B5044600786178E2780843A17811430843217908436179084305D004F0F2F9002803D00C2010BD122010BD204602F04FFE002010BD000010B5FCF7EC
:4043800037FE03F019F8044804F07AFA02F0E6FC012000F003F810BD08190020F1B586B003A8009005A8019028489F22017B114001736846FDF7C0FC002845D1694609897E
:4043C000C90705D0224806990068C2686846904769460989890706D5002835D11D480068816A0698884700282ED11B4E0025757075737571F575357675767575B570F5701D
:40440000B5713746F5730120CC3738731F20F880FF2130467972A0300176457603F0EAFE01F0A8FC00242046069901F055FC002803D1641C2406240EF5D0FD720649BD7203
:40444000B573C0310D600D7107B0F0BDF418002060100020441000204019002070B505460E46084602F086FF0446304602F09CFF0121A9400A46224001400A4301D0012018
:4044800070BD002070BD10B50446084602F08CFF0121A140014201D0012010BD002010BD10B5FEF72DFD032804D102F0AFF90120FEF756FD10BDFEB51C4616460F460546F1
:4044C00001F0D6FFA878FFF7EBFD02460190334639460094284600F00DF8002808D1A8780199FFF775FCFF2C02D138460FF09AFDFEBD0000FFB585B005460E980C46FF28EE
:4045000010D02B49C00009680A5840180179C0795278814201D9012601E09006860F6846038108E06078A1788006860FE0780002014368460181284601F050FC070007D072
:4045400021462846079A00F061FB384609B0F0BD304600F053FC04AE0346039002AA29460096204600F04DFA3C20405D002818D0284601F033FC012813D068460089009694
:40458000C0B20190A878231DFF22079902F0A6FA68460089039BC2B2A878079902F04EFED3E7684600890021C0B20091E9E700005C100020F8B5002600253046FFF71EFD0E
:4045C00007001DD090201149704340186030447F12E0601CFCF7EAFDCCB23846E040C007C00F07D02146304602F06AF821463046FFF79AFD6D1CEDB20548018AA942E8D848
:40460000761C3606360ED7D0F8BD000040190020281A002070B50024094D03E0002C01D0002000E028464121095C012901D100F0A6FA641C2406240EF0D000F039F870BD07
:404640006019002010B502F089FB0020FFF7A6FE0FF07EFD002010BDF8B5002403F066FD012800D10224114F00203E46203601230425082203E0002801D0002100E03146D9
:404680000979002907D001290BD002290BD0114681402143CCB2401C0006000EEBD07C70F8BD1C43F7E72C43F5E700004019002070B5144E0024F07BC00921D03546203506
:4046C00003E0002C01D0002000E0284601F07CFB012814D0641C2406240EF2D0F07B4006400EF073002403E0002C01D0002000E0284600F044FA641C2406240EF4D0002097
:4047000070BD00004019002010B5FFF7A5FF10BD10B5044606F08CFF002802D1601C00F001F810BD1CB500240094062269460194FCF758FE002800D1122420461CBD00003E
:40474000F8B5044600201E4617460D46002C12D0002D10D0022E0ED0032E0CD0002F0AD02179092907D0002905D013494A7F5A21095D8A4207D82089002106F08BFB2846C9
:404780000FF050FCFF20E18F012905D1002F03D0012E06D0002E04D0374301D10121E187F8BD0021E187069A2A70069A120A6A70AF70E970F8BD0000F418002010B5FCF721
:4047C00040FB0446FEF79CFB012809D0FEF798FB022805D0FCF73CFB2046FCF736FBEEE72046FCF732FB10BD10B50B4681791943817103D08078114602F0A6FC10BD10B59D
:4048000082798A43827102D1807802F0B1FC10BD0346084800B5834209D8184600F002FE002804D00089984201D1012000BD002000BD0000FF0E0000074A9179491C8906FC
:40484000890E917138220A4092014907090E1143084302490840704740190020FF0E0000C006C00E70470000F8B507460E4600240D4803E0002C01D0002500E005462979AE
:40488000002905D0641C2406240EF3D00020F8BD0021204601F020FA2E712046FFF7CCFF28813C700120F8BD60190020F7B53D20405C88B015460C46002802D0287804281A
:4048C00002D200200BB0F0BD6946087200262046FFF7E0FB012800D00126204603A938300191009023460327A17E34333246206A03F0E6FF02A8089900900B460191204603
:404900003A4603A9243003F03BFF02466846007A2870204601F0CCF91046D3E7FFB587B00C4605461078694608723D20005D1746002826D000262046FFF7ACFB012800D006
:404940000126204603A93830019100902346A17E34333246206A03F0B3FF02A80090291D019120462B1D03A924300A9A03F008FF02006846007A388002D1204601F098F9E3
:4049800010460BB0F0BDF0B505463C20405C89B016460C4600280CD0307869460873002806D000272046FFF775FB012803D003E01F2009B0F0BD012703200890204604A929
:4049C0003830019100902346E17E34333A46E06903F076FF6846007B03A928180290009120462B46019504A92430089A03F0FCFE02466846007B3070204601F063F910467E
:404A0000D7E7FFB505463C20405C89B016460C46002810D0084601F0E1F901280BD0308869468883002809D000272046FFF732FB012805D005E000200DB0F0BD0220FBE721
:404A40000127204603A93830019100902346E17E34333A46E06903F033FF291D2B1D07A8129A6D4607C5204603A924300C9A03F0BBFE02466846808B3080204601F022F912
:404A80001046D9E710B518490446484028D0002101231A468A40904221D0491C2029F8D300212046C840C243520618D0400616D0491C1929F5D3A0B2210C020AC3B288420C
:404AC00001D193420BD01F21204600F09CF9182805D8A00E062100F096F9022801D2002010BD012010BD0000D6BE898E002801D0002000E003484030C07F012800D0002009
:404B000070470000601900200146002049070ED50021084B03E0002901D0002200E01A461279022A04D0491C0906090EF3D0704701207047601900200146002049070ED53D
:404B40000021084B03E0002901D0002200E01A461279022A04D0491C0906090EF3D07047012070476019002010B5044680346068002803D00FF06AFA0020606010BD38B5FE
:404B80000546002000902846FFF784FA01281FD1284601F00EF900281AD028792C46C01E40340300FDF77CFA07050511110511141100284601F018F9012806D068460FF02B
:404BC000D7F9002805D0012008E060780028FAD038BD2846009902F015FF0220607038BD40308170704770B50546403528780C46052904D0002C05D1801E022802D8022075
:404C000003F09CF82C7070BD0171704792001018C166704710B5002801D0002000E00348002802D0008906F0A9F910BD6019002010B5002801D0002000E00448002804D0D3
:404C40000179072901D100F097F810BD6019002070B5044605464034A078002805D12078012802D1284601F073FA6078012802D12846FFF784FF002070BD000070B50546B7
:404C8000008A00281ED01049F122097B1140C90618D5294640314A8A098A521C4A4392B2D10800D10121540801E0621A94B2A042FBD9FEF7F5FE012804D1298AA87822462F
:404CC00001F094FF70BD0000F418002010B50023054C0B60248A944204D992001018C26E0A60C36610BD0000281A0020FEB506460020009001908020855968460FF038F98A
:404D0000002801D00720FEBD20213046009FFFF776FD34464034A08AE080608AA080208A2081304603F07CF8A88C218A884207D1288A618A884203D1688AA18A884203D0B9
:404D4000F07920210843F071688AA082288A6082A88C2082E98CE182FFF7C8F8E081208AFFF7D4F860733946304602F073FE0120A0700198FEBD000038B50446002000906D
:404D8000A079002814D14020015D052901D00E290ED168460FF0ECF8002809D12046009902F046FF03481021428B2046FFF71CFD38BD0000F418002010B50446807803F058
:404DC0005FF8204601F0E2F9002010BD10B50B4604460146184602F05CFB002802D020460FF02AF910BD13B5044601AA11460620FDF7A8FF6846818861811CBD002800D160
:404E000002207047704770B500231A46491E0CE00446D440E507ED0F541C0646E640F407E40FA54200D05B1C521C8A42F0D3D8B270BD000030B50021124C0A46A05C00231C
:404E400008E0C50701D0491CC9B201290AD840085B1CDBB20028F4D1012903D8521CD2B2052AEBD302290BD207488118C87B0122082B03D29A400243D0B200E01043C87337
:404E800030BD00000C1A0020401900207FB504468034616805460E46183108226846FCF7B0FA31462031082202A8FCF7AAFA102168460EF0F7FF6068102108300EF0F2FFC8
:404EC00060682B46083024331022694603F078FC7FBD10B504460821FFF791FC10212046FFF78DFC2079052822D0062820D008281DD12189002005F0B3FF07202071204612
:404F0000FFF7C8F8012819D00E212046FFF76BFE002158200155204601F0BEF92046FFF723FE2046FFF7AAFE2046FFF791FE10BD20890122002105F077FFDEE70521E4E771
:404F4000FFB581B01F4604460821FFF758FC10212046FFF754FC2079082803D0092804D0042503E00425012601E009250026204600F016FF00212046FFF735FE2571204604
:404F8000FFF7F2FD0398002E02D0012808D00BE001280AD120890022029905F045FF04E02189029805F05CFF01272046002140300176012F07D0204601F06EF92046FFF7B3
:404FC00047FE05B0F0BD02990173204602F073FE054605480121428B2046FFF705FC002DEFD109202071ECE7F418002070B50C460546FFF74FF8012809D108212846FFF719
:40500000FEFB0023012221462846FFF799FF70BD10B5044600F0C4FE2046FFF7A5FD00212046FFF7E0FD10BD70B505461A24FFF731F8012809D108212846FFF7E0FB002360
:40504000012221462846FFF77BFF70BD38B505460021684600910EF08BFF002801D00D2038BD2846009C00F0EBFE2146284602F089FD06480821428B2846FFF7B5FB0621B1
:405080002846FFF7B0FD002038BD0000F4180020F8B50446002000900E4668460EF068FF002801D00D20F8BD204604213430009D00F0B3F9842000590821183000F0ADF989
:4050C000012E02D1204600F0BBFE2946204602F007FD06480821428B2046FFF785FB02212046FFF780FD0020F8BD0000F418002010B50446FFF7CAFE03212046FFF773FDFA
:40510000204601F0B5F910BD10B50021FFF7C0FF10BD000038B504460021684600910EF027FF002811D12046009A00F039FE1146204602F032FD05480821428B2046FFF7CC
:4051400053FB07212046FFF74EFD38BDF418002038B504460021684600910EF009FF002810D12046009902F09BFD07480821428B2046FFF739FB04212046FFF734FD2046D5
:4051800001F076F938BD0000F418002010B5FFF7A0FE10BD00787047F8B5002569460D70002801D0002400E01E4C002C18D0204600F0FFFD002813D0207903280BD0052877
:4051C0000CD026464036B18AA07801F0B5FFB078012806D01CE0042020711CE006202071F8BD0021204602F084F9274680373868002802D00EF02AFF3D600020B07020469B
:40520000FFF726FD2079072802D12046FFF736FD20790428E4D1207A694608703420FEF771FDF8BD6019002010B54C22115400F052F810BD10B50446FF21FFF7E0FA092024
:405240002071A07801F09EFF10BD000038B5FF216A461180002801D0002400E00B4C002C12D011460620FDF76DFD684601882046FFF7B9FD204600F0B7FD002804D1044803
:405280000068C1692046884738BD0000601900206010002010B504468079002809D022214C200155FF212046FFF7A9FA204600F012F810BD10B5037902464032002B03D0B6
:4052C0001173092B02D003E0002100E02221117300F001F810BDFEB50446008900270090278120792646403600281AD0012818D0022816D0002002F021FD09E002AA01A9C1
:40530000204602F0B4F8002807D101980EF094FE204602F0D4F80028F0D02046FEF77AFDB776254680352868002802D00EF08EFE2F606868002802D00EF088FE6F60317BA9
:40534000002916D0009800F061F8A078002101F023FAA07801F07AFBA07800F08BFFFF212046FFF74CFA0B20FFF7CEF900F0CAFDFEBD1F213173E5E7F8B517460E46054671
:4053800003F05EFA04003CD020460C3001F0AEFA2046062200211830FCF73CF82046062200211230FCF736F81648224600683946436A28469847074626702846FEF76AFED2
:4053C000012148406070002D10D02889608028464030C1782171002E0FD169796171018AE180418A2181808A608106E00648008BC005C00F2071002060803946204605F028
:40540000B2FCF8BD4410002000102E400A4610B50146002005F0CAFD10BD10B50EF01EFB10BD000000B50146FFF71AFA002801D0002000E00348002802D002898A4200D0FE
:40544000002000BD6019002038B5044680346068002806D168460EF09BFD002801D100986060606838BD000010B5014600F0B6FC0128887802D0FEF717FE10BD90214843F5
:40548000024940186030007F10BD00004019002070B5054604464035A87F012811D1A1789020084A484380186030067F3046FEF7D5FF002805D10220A877A078314601F042
:4054C00063FB70BD4019002010B50C4CA07A002813D0FFF76FF80A48027F417F408B00F025FD012809D10020A07201F0C3F905498989090B01D000F023FB10BD0C1A002051
:4055000040190020A0102E4070477047490510B5490F0B00FCF7C4FD060704080C0C0F073E21FFF781FE10BD0821FFF7C3FE10BDFFF7D1FE10BDFFF7ADFE10BDF8B50746AD
:405540000025002D01D0002600E0204E01F048F93046403044890021418101F04BF9304600F027FC01282BD1A00702D52846FFF713FEE00602D52846FFF768FEA00601D5F3
:40558000FFF718F8600601D500F04EFC200602D5284600F01DF8600702D5284600F036FB380402D52846FFF743FB780402D52846FFF730FBE00703D021463046FFF7A6FF69
:4055C0006D1C2D062D0EBCD0F8BD000060190020F8B5002801D0002400E0144C002C23D025464035A87801281ED1FF278820493700593E46002805D00D49097B890601D532
:40560000878AC68A2046FEF745FD01280CD10096E88A2A8A3B46014602F0E0FBE882A2780146104601F0AEFCF8BD000060190020F4180020014909680968084760100020D4
:4056400070B505460088FFF7EDFE04002AD000F0B0FB002826D02079092823D0204600F0D1FB012820D02046FEF714FD0646E07920210843E071204601F053FF002815D0FE
:40568000294600F0E7FE4220005D002810D02325E079DF210840E0712946204601F095FF284670BD022070BD3A2070BD072070BD002E05D02046FFF719FB0500E8D1EFE77F
:4056C0000C2070BD70B50E460C2500F03BFE040012D0002522892946094805F067F8FF2202212046FFF748FEA07801F039F82046FFF7F1FD022000E000203070284670BDED
:405700000E200000FEB5044600F01CFE002801D00C20FEBD022101A8FFF7A6F8012859D168460079304F002801D0002601E03E462036002E4ED000213046FFF754FA35467F
:40574000002040356870A8700620FEF7DDFF208A6882228AE189A08902F08EFB28820246608AFF23A88249330093E18AA08A02F035FBE882288AFEF7C9FB6873288AFEF71A
:40578000B5FBE881184806228778A11DB030FBF738FE207901281FD06079E870A01D01F025FCFB20074010488770217EC278012917D0FB210A40C2700C4821460068826892
:4057C00030469047B178204601F04CFA3046FFF7F3FAFEBD0920FEBD0020E87004200743E1E704210A43E6E7401900204410002070B50D460026194A0146002801D000245F
:4058000001E014462034002C26D0204600F0E6FA01280AD19020484380186030007FFEF71DFE002801D102F0C3F90D48006881692046884700280CD020464030817EA94243
:4058400002D3491B817600E086762089294605F021FB204600F00CFE70BD0000401900206010002070B503460088FFF7DBFD040013D000F09EFA00280FD02079092819D070
:405880002546997840352973204602F014FA0646A878012803D0AA8A02E0022070BDEA880A20424301212046FEF79EFF002E01D109202071002070BD0EB5002217216B4618
:4058C0000292198100905A810120029B00990EF05DFC0EBDF8B518480024807A002822D1164E0025B089000B22E0204601F084F81249A039401807882A462146384600F04E
:4059000015FB012810D00E480122478305770A4944778A72002D01D0002000E02030002801D000F0A5FDF8BDB089000B641CE4B20028DAD1F8BD00000C1A0020A0102E40B1
:405940004019002010B50446C0060ED500200B4A03E0002801D0002100E011460979022909D0401C0006000EF3D00548006881692046884710BD00F005F8F6E76019002090
:405980004410002070B51A4D002801D0002401E02C4620342179022904D0002901D001F0F1FB70BD01225B210A5501F039F8032020710820FEF7A8FE00212046FFF713F966
:4059C000204643300121064600F0A0FF09480068016A30468847024600212046FFF7CCFCA078FFF727FEA87B401CA87370BD0000401900204410002010B50C46002121702B
:405A00000088FFF70FFD03000BD000F0D2F9002807D00948F121007B0840C00603D4112010BD022010BD022020701A8A1889002105F0D8FA002010BDF418002070B50088EF
:405A4000FFF7F0FC040008D000F0B3F9002804D0E079C10903D0002070BD022070BDC1068025002908DA2843E07108480221428B2046FEF7B9FEEEE7204600F01BFA002851
:405A8000ECD1E1792943E17170BD0000F4180020F8B50F46002100910088FFF7C3FC040012D000F086F900280ED0E079410641D4617E02264A07002A08DB89074025002934
:405AC0001ADA2843E07135E00220F8BD02F0B8FE0021017021894180A1898180217E4170E189C1803E7005460178134804F01EFF284605F01BFA1DE0204600F075F90128FF
:405B000006D068460EF034FA002803D00720F8BD2A20F8BDE07900992843E071204602F0F3F8607E0421304360760448428B2046FEF75AFE0020F8BD1D040000F4180020B4
:405B40003EB500220F236C460292238100910190628169460EC900200EF018FB3EBD0000F8B50446002000902088FFF75BFC05001AD0FEF78FFA002812D02348007BC0077D
:405B800010D0284600F015F900280DD0287903280CD004280AD0072808D009282AD103E00C20F8BD1120F8BD0220F8BD2F464037387801281ED02846FFF746FC06001BD0E8
:405BC0000822211DFBF71DFC3046A1782030017261881022090A417221460C311838FBF710FCB878002809D001212846FEF7FBFF0098F8BD0D20F8BD0720F8BD284600F0F4
:405C0000A7FA0090F8BD0000F418002010B5002801D0002400E00B4C002C11D0214640314878022801D100204870A07DC107C90F002001F031FB2046FFF70AF8FEF7EAFC8D
:405C400010BD00006019002070B503460D460088FFF7E8FB04000BD000F0ABF8002807D01248F121007B0840C00603D4112070BD022070BD20464030418A008A491C41439E
:405C80000804C10C5888884201D2122070BD20822079072802D12046FEF7F0FF022028702089002105F0C6F9002070BDF4180020016A491C016204D1817E491C4906490EE5
:405CC00081767047C169491CC16104D1C17E491C4906490EC1767047F0B5064687B003A8009005A800270D460190002E01D0002400E01C4C002C05D06846FCF71DF80028D3
:405D000003D00BE0022007B0F0BD68460089C00704D1902200212046FBF77CFB124829460068826820469047050018D1A6706776277100212046FEF756FF204600F030F88A
:405D4000204601F0B8FB094820825E2007550848F121007B084000D001202075E782E8B2D1E700006019002060100020B80B0000F418002010B50020074B084AFF211954B8
:405D80001418401CC0B221740428F8D31F2119541018017410BD00000C1A002040190020002101628176C161C17620300177417770470079002805D0012803D0022801D00F
:405DC000012070470020704740304078012803D0022801D000207047012070474030807F002800D00120704740300078002807D0012805D0052803D00E2801D00120704723
:405E000000207047074A0146927B0020002A07D040314A78022A02D08978012900D10120704700004019002010B500F023FD03498989090B01D0FFF783FE10BDA0102E40CD
:405E400070B5054604464035A87F002825D1FF206075A0789021154A484380186030417F9023491CC9B24177A0785843104B8018DB896030994201D300214177A0789021E9
:405E8000484380186030467F0677A1783046FEF7E5FA002802D00120A87770BD0220A877A078314600F070FE70BD000040190020281A002038B5002105460091FFF794FF7A
:405EC000012806D068460EF053F8002803D0072038BD2A2038BD2846009CFEF7DBF800280BD02146284601F023FE05480221428B2846FEF779FC002038BD112038BD00004A
:405F0000F418002070B50024074D03E0002C01D0002000E02846FEF79BFE641C2406240EF4D0002070BD000060190020F0B516468207920F87B0000A02926A469080002E48
:405F400001D0002400E07F4C002C21D0084600F053FD074668468088002810D00298032817D0002000906846808821890491214620310391497F0546012964D067E07248BC
:405F8000381801882046FEF72EFF304600F0F2FBD6E00020029002A80DF0CAFF002807D03D20005D0128F3D12046FFF781FEC7E00298009068468388202B14D31F230021B5
:405FC0003846009AFCF7E8FD684680881F3885B2012305AA00213846FCF7DEFD6D1E2D042D0CF5D104E000213846009AFCF7D4FD5548381801882046FEF7F5FE304600F067
:40600000B9FB01AA21460098FEF750FC0028009805D00DF0FDFF3D204C2108555EE0C677009869460078898801F0CCFE00280099204602D001F01AFB82E001F060FC0098C0
:406040000DF0E6FF7CE0042820D3281F80B23F49097B890605D5882109594989814202D314E01B2812D9012305AA00213846FCF793FD6D1E2D042D0CF5D10398407F01280B
:4060800000D07CE72046FFF713FE78E768460DF03FFF002802D0002007B0F0BD6846009D83882A1D00213846FCF776FD2648381801882046FEF797FE304600F05BFB20467F
:4060C000FFF777FE002805D026464036307E00281DD107E028460DF091FF31E02046FFF7A9F82DE00298012809D0022807D00398407F0128EED12046FFF7DAFDEAE7034669
:4061000001AA21462846FEF709FC002805D028460DF074FF3D203073E0E70298FEF772FE01460498287004980901000A0843687068468088A870000AE8702846FFF7BCFBAB
:406140000120A9E76019002000102E40F418002070B501790546032904D0042904D0072908D109E0052400E006240121FEF790FF002805D00D2070BD0824FEF767FFF7E7B9
:40618000284600F075F92C71002070BDFEB5064602F056FB044602F04CFB074602F03FFB054602F051FB029002F060FB01902570280A6070280CA070280E3546E0704035A1
:4061C000687B20716771380AA071380CE071A87B2072E8892549000A6072287CA072288A0522000AE072A87C2073688A000A6073287DA073A88A000AE0732046103000910C
:40620000FBF7FFF80027F770B078009901F000F8777101984101029867750143A175080AE07503E0298A49004018308000F030FB3188042200F020FC01283088F2D00C4F58
:4062400038801821204600F0F5FCA88A298AC000FAF7ACFF3881B07800F06CFAE98AB07800F090FE00F072FAFEBD00005019002000122E4010B5074A917B002901D0491EB2
:4062800091730021FFF728FD002801D0002010BD012010BD40190020F8B5074606464037B87F00282DD0B078902100904843234945186035287F0099FEF7E5F801281ED0BD
:4062C000287F401CC4B21E48C089A04200D800240020B877FF276F772F77A87702460146009800F0D9FD717DFF2903D0304601F09CF8777501F05CFC0025114F19E00320D1
:40630000B877F8BD00200090224669463046FEF7DDFC0099002904D0FF231A463046FEF7CAF8641CF889E4B2A04200D800246D1CEDB2F889A842E5D8F8BD00004019002036
:40634000281A002000B5022000F002F800BD000010B502460021084B03E0002901D0002000E018460479944204D0491C0906090EF3D0002010BD000060190020F7B506468E
:40638000087982B00C46092807D0A078F0770846FFF724FD012806D010E030460DF04CFE022005B0F0BDA1789020294A484380186030007FFEF752F8012810D0A078FEF7F9
:4063C00095FB01280BD037780121304601F004FB25462035062F38D00B2F0FD107E06846027C21463046FEF7F1FC0D20D9E72046FDF750FE012801D1002028772046FFF73E
:4064000033F8054604AA21463046FEF7BCFA01205F2108556946097C002001910090A07833463A46294600F059FB69460A7CA0780323294600F002FFA0782946FDF7C8FC66
:4064400030460DF0F9FD0020ABE70120D5E70000401900208A8802804A884280CA8882800A89C2808A890281498941817047000010B502464032937F0021002B03D1927EB8
:40648000002A00D00121064A927A002A00D000210279092A00D10121807800F01DFF10BD0C1A002070470000094B022809D0042809D008280AD10648A03002820448A830AD
:4064C00003E0382000E05020C01801807047000000102E40014908817047000000102E4010B50446FF20F130022C02D0042C05D102E0FF20D93001E0FF20DD30002200F0FD
:406500001DFF044A108A044980B2A0430880108210BD000000102E402A100020034B198A034A89B2814311801982704700102E402A10002010B50446022804D0042C05D02C
:40654000082C07D10EE0FF20D93001E0FF20DD3000F0ECFE0548018A054A89B221431180018210BDFF20F130F2E7000000102E402A100020034B198A034A89B2014311802C
:406580001982704700102E402A10002070B5054604462035A87FF122800012018018164A86183088400840003080002906D10121AB7FFF220903601D00F0F8FD8921204664
:4065C000AB7F80224901113000F0F0FD83212046AB7F202249010B3000F0E8FD43212046AB7F40228901173000F0E0FD208801210843308070BD000000102E40F8B505463B
:406600000120A84086B214460F46012231467C2000F094FE3A463146782000F08FFE6078267800020643E078A2780002024360792379000203430C2045430D2080010549BF
:40664000281844182680001D44182280001D40180380F8BD00102E40401880B270470000CB065B0E0343480901021943D00108430121C902084301490881704780142E4041
:406680004278037812021343084A1382C37880781B021843908248780B78000203431383C8788978000201439183704700142E40024A1080000C90801181704700142E40DF
:4066C000024A10820148803081817047A0102E4010B5054A1082084600F054FE024A0021A03A8018018010BDA0102E4010B50B46044600F017F819462046FFF7E1FF10BDA4
:40670000002310B5F121064A090118468C182380091D401CC0B289B20828F7D310BD000000102E40024A10820148803001817047A0102E4010B504490882FF20012220219F
:406740001D3000F0FBFD10BDA0102E4000B50349442008800420FFF70DFF00BD00102E400349088202494520A039088070470000A0102E40000202494D30088070470000E6
:4067800000102E40034A1082024880308088401880B27047A0102E4010B5084B074C0202A03B0029208202D075321A8010BD04490020088088807632F7E70000A0102E4085
:4067C000201A2E40054B198807229202002801D0114300E09143198070470000001F2E4000B5034908884880FFF798FE00BD00002A10002000B502484088FFF7BBFE00BD36
:406800002A10002010B5FCF765FB10BD014952200880704700102E40034908880122D2031043088070470000001F2E40884201D8081A03E00022D243101A401880B2704763
:4068400010B50B4602460021F820FCF7A5F910BD0748808806492039098B884201D8081A03E00022D243101A401880B27047000020112E400148008AC0B27047A0102E408D
:40688000024908820148803080887047A0102E400148008970470000C0102E4000280FD00D4A108B0870000A4870908B8870000AC8700948203000880871000A48717047C2
:4068C000064A10880870000A487090888870000AC8701089F0E7000040102E40C0112E400148008A70470000001A2E40064B1A8999891B8A0270120A42708170090AC17075
:406900000371190A4171704760102E40012904D00549098BC90B017070470349403109898907C90FF7E7000000102E40FFB581B00024FF232B4D0B9E002805D0022803D044
:4069400003283CD006281CD12C8B2F46A004850E2007000F012802D0252D1AD916E00C2D14D106230021F820FCF716F906230021F820029AFCF710F9002E01D0388B1CE0BC
:40698000002304980480184605B0F0BDFFF744FFF9E706230021F820FCF7FEF8062DEFD30A98002806D0AD1F0246ABB20021F820FCF7F2F8388B002EE2D03080E0E72C8B83
:4069C000A004800E0C28E1D106230021F820FCF7E3F806230021F820029AFCF7DDF8288BCEE70000E0102E40024800884005C00F70470000001F2E400148408970470000D0
:406A0000281A0020044A10820448028980894843101880B270470000A0102E40281A002000B5084908829021074B4143C918FF2260314A770A7700228A77114600F02CFA9C
:406A400000BD0000A0102E404019002090225043074A10B58018FF21603041770177002181770448C18EFF201D3000F05FFC10BD40190020F418002010B50023884201D887
:406A8000081A03E00024E443201A4018044980B2884201D8824200D90123184610BD0000FF7F000070B55478157824022543D47888232602947834435679127936023243B3
:406AC000002900D09823044908820348A038181805808480028170BDA0102E40FFB581B014460D4607460A9E0B9BFFF78BFF002E0AD0009333460021049AFCF7C5F80548E4
:406B00004019C45505B0F0BD0021049AFCF7A2F8F5E700002E10002070B502460448054D808808242C800B460021FCF793F870BD281A0020A0142E4010B5212402466401B8
:406B4000044953200880102300212046FCF782F810BD000000102E40417802780902044B0A431A83C1788078090208439883704760142E40034A10828020014301488030ED
:406B800001817047A0102E40054A1082044A6032908B0009000108439115084390837047A0102E4030B500210F4B0A46012809D0032802D005280AD107E0402119810221B8
:406BC0000A2204E004210C2201E004210D221882054C20342088C0B205460D42FAD022800021198230BD000080142E4010B504460748048207480180828003218903082065
:406C0000FFF798FC200202497530A039088010BDA0102E40201A2E40054A1082044A60321183000202494B30A039088070470000A0102E40024610B50B460F200021800142
:406C4000FCF708F810BD0000054A491E1082044A60321183000202494C30A03908807047A0102E40017E012901D9012101764279C9B253000B430179CA001A4310210A4387
:406C800003490A8102880A80408888807047000040102E400148008B70470000E0102E408823002900D09823084908820748A038191808881070000A507088889070000A35
:406CC000D07008891071000A50717047A0102E4010B51446024606480B46C0880021FBF79FFF012C02D103495420088010BD0000281A002000102E40064A11880170090A41
:406D0000417091888170090AC1700349542008807047000080142E4000102E400148008B70470000E0102E403E21095CF1238A001B01D218082903D20249008851180880BA
:406D40007047000000102E400121814010B589B200227C2000F0F2FA10BD0000FEB53F210220FFF7BDFB1F210420FFF7B9FBFF210820FFF7B5FB3020FFF7D0FB3848802183
:406D800001803848384D00784007400F022862D001285FD100202880002211460320FBF7D1FF324E3248718E0183B18E8183304F002420372A48A0300482B08F3882204683
:406DC000FFF744FE641C2406240EF3D0274C40342088388320462C3800F0F4F82349486989690191009069464879C021084369464871684600F00EF900F042F8184EE088FA
:406E0000A03630832089B08315486189C03081801648C08E38801748002404823E20FFF7A9FB0F4853210180134A07211183542101808115B1810E4940318C815B2101805B
:406E4000084800784007400F022806D0012801D10A482880FEBD03209DE70848C01CF8E700102E40281A0020001F2E40F4180020C0112E40001A2E4080142E40E0230000ED
:406E8000044800218183018302497420603908807047000060102E40074B1882064B6033988B00090001084399158843002A01D11021484098837047A0102E40F3B50D220B
:406EC00084B0920100924A780B78120213430393CA788B78120213434A790979FF20120211431A4A8C46918B9E460291118B01911649742260390A80154900220F7921E061
:406F00000121124B9140009C603BE3181D8889B21C881B88039E6E407546654064462E435C4026430CD1029B194209D00199D140CB070499DB0F8B4202D1104606B0F0BDCE
:406F4000521CD2B29742DBD8F8E7000060102E403419002030B50949FF208C8B084A00210125137905E02A468A40224204D0491CC9B28B42F7D830BD084630BD60102E40FE
:406F800034190020024A10820148603081817047A0102E4010B5044C208204488180028183815143018210BDA0102E40A0132E40034B188202482038818002807047000064
:406FC000A0102E404178027809020A4306490A80C2788378120213438B804279007912021043088170470000C0112E404178027809020A4306490A81C27883781202134347
:407000008B81427900791202104308827047000060102E40417802780902084B0A431A83C178827809020A439A8341790079090208430249203108807047000040102E4045
:407040004178027809020A4306498A80C2788378120213430B814279007912021043888170470000001F2E40F0B5F12600213601FF240C4D01348A00921953191A88D70733
:407080000AD0520852001A80884201D1224300E0A24301273A431A80491CC9B20829EAD3F0BD000000102E4010B500222021302000F044F905494320088001F037F8C007ED
:4070C000FBD10220FFF72AFA10BD000000102E4010B590B0044640216846FFF7B1FB00210A4AC94311830220FFF744FA62782021302000F023F9054942202039088001F0D9
:4071000015F8C007FBD010B010BD000020102E4001794279490011438279D2000A43FF2101310A4303490A8202880A81408888817047000020102E40024A10820148603030
:4071400081807047A0102E4010B5044688000521FAF72CF804490C8204498880200202497230A039088010BDA0102E40001A2E4003490882000202497330A0390880704776
:40718000A0102E4003490882000202497030A03908807047A0102E4003490882000202497130A03908807047A0102E40F0B515460F4604461E46FF2A04D0002229461846CF
:4071C00000F098F86078237800020343E078A1780002014360792279000202430C207043C0190A4C80B207193B80001D80B203191980001D80B200190280FF2D04D00122B6
:407200002946304600F076F8F0BD000000102E40094A108248780A7800020243064820380281CA788B781202134383814A7909791202114301827047A0102E40F8B5054699
