:400000000080002011000000F5030000F503000010B500F0F7F9C04670B51222224B1A6000F0E2FB214801F07FF8012000F0FCFB302000F0F3FA1E4A1E4B1A601E4C802507
:40004000ED0525601D4A116802230B4313601C4A1C4B1A6000221C4B1A601C4A136808218B431360FA20C00000F08AFB184800F0CBFA9C229202174B1A60174A174B1A60DF
:4000800080221206164B1A608022D202154B1A604022154B1A601549082000F08BFA082000F07CFA256070BD30001040001BB7000600008004010B400C020B4078002E407D
:4000C0002D3E00007C002E4064F02E406CF02E40DC0500000003014040FF00800000014008010B4000010B402C0101404109000070B572B60022424B1A600132414B1A70E3
:4001000000240FE040486200131959000B00411889881A5AC31858880004104300F060F90134E4B2022CEDD9002411E0364EA2001319590071188D8AC88A000428430A8B84
:40014000498B09041143802200F050F90134E4B2002CEBD02C4920312C48583000F016F9802252002A4B1A80FF3A2A4B1A70EE221206294B1A60C0229203284B1A6099238B
:400180001B04274A13602749274A116080218904264A1160A221C905254A1160254A1360254A13600223254A1360254A136025490B783C22934314221343DBB20B70224A98
:4001C000117816230B43DBB21370D82212041F4B1A6020221E4B1A60C42292021D4B1A6040221D4B1A60802212031C4B1A60C022D2001B4B1A60FFF70FFF00F0E1F870BD00
:400200006CF02E401C700F40A47A0100A47C010000600F4002600F40000002400001024000500F400400990010500F4014500F4018500F4020500F4030500F4020001040A1
:4002400000800F4001700F4000700F4008000440000104400801044000020440080204400803044010B5064C2378002B07D1054B002B02D0044800E000BF0123237010BDFE
:400280006013002000000000287A0100084B10B5002B03D00749084800E000BF07480368002B00D110BD064B002BFBD09847F9E70000000064130020287A0100B00E002012
:4002C0000000000010B5202807D026281DD001282ED1184810F0C0F92AE00B7A1E2B27D1C9681922144801F0F9F9002820D110F0DDF9124B1B78042BFBD00321104810F0CE
:40030000D1FA002000F00EFC12E00E4A138801339BB21380022B0BD100F046FC074B1B78032BFBD00022074B1A80024810F094F910BDC046AC2600202C7A0100E22600204D
:40034000FC0E00207C13002010B562B60C4B00221A705A70FA2189005980F539FF3999809A71DA711A819A72064800F07DFB00F0CFF8054800F0E8F801F010FAFCE7C04693
:40038000AC260020C5020000807A0100F0B50025002711E0BB00C658F3B2FF22964308E06A008A181478A419527822700135013BDBB2002BF4D10137072FEBD9F0BDC046C2
:4003C0000323044A1360044A13600022034B1A607047C0463000304030003140000E3F4010B50A00002101F091F910BD10B501F084F910BD10B501F045F903680C2B00D141
:40040000FEE7FEE770B50F4E0F4D13E029686B68AC68002202E001C901C30432A242FAD1E868002202E0002102C304328242FAD11035013E002EE9D101F02AF9FFF784FF3A
:40044000FEE7C04601000000887F010010B50E4A136801218B43136000230AE0032B03D89A000A49505800E009489900094A885001332F2BF2D9FFF73BFE034A116801237B
:400480000B43136010BDC0460000104000000000F5030000000000207222074B1A70523A064B1A701A3A064B1A704132054B1A700022054B1A70704781000F4080000F409B
:4004C00023000F4033000F4082000F4010B500F034FE04000B4A117820230B43DBB2137009490A7810231A43D2B20A70074A11780B43DBB21370FF2000F03AF8200000F0E2
:4005000020FE10BD91000F4090000F4092000F4010B5064B1B78002B04D1FFF7BDFF0122024B1A70FFF7D2FF10BDC0467F140020034B1B785B07FBD4024B18707047C046EA
:4005400062000F4042000F4070B50500074B1B78002B05D108E0FFF7EBFF0134A4B200E00024285D0028F6D170BDC0467F140020044B1B68002BFBDB0002034B1843014BAE
:40058000186070470000014040000080024B1B68012018407047C0460C002E401F2318401E3B8340014A13607047C04600E100E001BE704770B504000D001F2802D90020AB
:4005C000FFF7F6FF1034A40080239B059C4664442068256070BDC04610B5040006E0084B586800F0A1FD074B9C46644480231B029C42F4D8024B9868604300F095FD10BD46
:40060000B40E00200080FFFF10B5034B1B7B584300F08AFD10BDC046B40E0020F0B557464E46C0B483B0040000F087FD0190E71E2D2F74D83F4B1B78DBB29C4208D83E4BC6
:400640001B78DBB29A463D4B1B78DBB2994631E03B4B1B78DBB29C4208D83A4B1B78DBB29A46394B1B78DBB2994623E0374B1B78DBB29C4208D8364B1B78DBB29A46354B12
:400680001B78DBB2994615E0334B1B78DBB29C4208D8324B1B78DBB29A46314B1B78DBB2994607E02F4B1B78DBB29A462E4B1B78DBB299462D4BDE5D2F2E09D92A2C07D9F1
:4006C00019222B4B1A60052000F02EFD192503E0274B1D683F231D40B54206D9234BDA5D234B1A60052000F01FFD1F4B9C4664442378DBB21F4A13601F4B52461A601F4B46
:400700004A461A600520FFF77FFFB5420AD2174BDA5D174B1A60052000F006FD02E00020FFF746FF019800F00CFD03B00CBC91469A46F0BD40F3FF0F41F3FF0F42F3FF0F42
:4007400043F3FF0F44F3FF0F45F3FF0F46F3FF0F47F3FF0F48F3FF0F49F3FF0F4AF3FF0F4BF3FF0F4CF3FF0F4DF3FF0F9C7D01002CFF0B4028FF0B401CFF0B4020FF0B4084
:4007800010B504000F4A116801230B4313600E4A0E4B1A600E4A1368802109020B431360002809D100200CE00120FFF72DFFFFF7EDFE002804D1013C002CF5D1102000E0E0
:4007C000002010BD60F02E400220000078002E4010002E40034B1868C0231B02184000D00120704700010B4010B50D4B1A6801218A431A601A68022082431A60094A1068F8
:400800003024A043203C204310601068093CA043014311601A68802109060A431A6010BD00F02E4000FF2E4070B51D4B1B6801241C40002802D0012816D02BE0184B1968E3
:400840000122914319601968022081431960154B19682E3081432038014319601968093881430A431A6018E00D4B1A6802218A431A600C4A10680725A84301431160116874
:4008800030208143103801431160196801220A431A6002E00020FFF78BFE200070BDC04600F02E4000FF2E4010B500F046FC044A1368C02109020B43136000F042FC10BDB5
:4008C00000010B4010B500F038FC08490A68084B1A408024E40122430A600A6813408022120213430B6000F02CFC10BD00010B40FF3FFFFF70B5050000F01FFC0400FFF723
:4009000069FF002803D0FFF7DDFF012100E0002108482840084A1568084B2B40184310601368012901D1FFF7BFFF200000F009FC70BDC0460404040010020B40FBFBFBFF83
:4009400010B5244B1B685B0715D5234B5B685B070ED5224B596A042001401F4C62688A4362605A6A82435A629B69002B00D098470420FFF7BFFF174B1B685B0518D5164B17
:400980005B685B0510D5154B596A8022D2001140114842688A434260596A114A0A405A62DB69002B00D098478020C000FFF7A2FF084B1B685B030CD5074B5B685B0304D53B
:4009C000064B1B6A002B00D098478020C002FFF791FF10BD10020B40C80E002084140020FFFBFFFF10B500F055FB10BD10B50022144B1A70144B1A70144B1A70144B1A7032
:400A00001449488C144B1880888C5880203188791873C97919710621D9812231198200245A82FA2189009982DA82013A1A831F320A4B1A80FFF7D6FF094B1C70094B1C70CC
:400A400010BDC046EC260020E4260020EB260020EA260020D00E0020C4260020DE260020B8260020C026002030B591B00400142223490BA800F041FE2023224AD35C002BFF
:400A800005D1FFF7B3FF012120231E4AD154002C32D01D4B1C6008AC05AD099506AB0893032222811A321A805A80193A1A7100F065FE08232B7000F067FE1621694420008C
:400AC00000F048FF002818D1104B0293104B0193052300930BABDF2212010E490E4800F08FFE002809D101220C4B1A70093212210B4812F0F5F900E0012011B030BDC046B4
:400B0000CC7D0100AC140020BC26002079020000008D0100C0000020ED0C0000E2260020E07D010010B502282ED81B4B1B78062B2CD11A4B1B785B072BD4002808D1184B48
:400B400000229A87A032196B0A801B6B5A800CE001280AD1124B96229A87C822D200196B0A801B6B8022D2015A800E4B18700C482C300FF0EBFD00280DD1084A11780423AD
:400B80000B43DBB2137006E0012004E00420FF3001E00420FF3010BDE2260020EC260020D00E0020EB26002010B50FF067FE034A117808230B43DBB2137010BDEC26002088
:400BC0007047C04610B50B4B1B78052B0ED10FF039FD0400084B1B88002B01D00CF058FC002C05D10622034B1A7001E00424FF34200010BDE2260020DE2600200378407856
:400C0000000218437047C04670B5050083890F2B1FD1043031332A00002112F079F9041E11D16868FFF7EAFF830706D50A4B1B68290082204000984705E0074B1B68290026
:400C40000620FF309847054A137801218B43137000E00024200070BDBC260020EC26002010B50378042B05D1034B1B78052B01D1FFF7A8FF10BDC046E226002010B5034B9B
:400C800000225A701A7000F007FA10BDE826002010B582B00400FFF7B7FF0A4B1B78DB070ED4002809D001A912238B70A3890B80C870206810F0ACFE02E0206810F020FFFA
:400CC00002B010BDEC2600208379002B07D000200BE0C25C002A07D10133DBB200E00023052BF6D9002000E001207047F0B583B004000D00C54A117801230B43DBB213707C
:400D0000282800D1FEE01CD8062800D1A8E009D8022800D19CE0052800D19DE0012800D0A1E12BE0242800D1D4E003D8212800D1AAE098E1262800D1E8E0272800D1D7E059
:400D400091E1422800D149E109D8312800D1C5E0412800D12DE12B2800D084E101E14C2800D146E103D8432800D13AE17BE14E2800D142E1FA2800D170E174E101AE072760
:400D8000377000237370300002F042FD377001237370300002F03CFD00F0ECFC9C4B1E683000FFF791FF00280CD0300000F0FAFC974E00213068FFF703FF30680121FFF7C1
:400DC000FFFE2AE0934B1F78934B18788001FC263601020032403F21394011438F4B1B781B03F8225202134019438D4B1B785B04FE22120413400B438A4E33701A0A7270C4
:400E00001B0CB370300000F0CDFC00213000FFF7D7FE01213000FFF7D3FE00200FF0F4FA01AE02228049300000F067FC30000FF009FB7E4B338032001D2100200FF0C6F822
:400E400031881D200FF018FB0622794B1A700AE12800FFF705FF06E12A78764B1A7002E12B78002B00D0FEE06B78002B06D1724B0022DA809A80714A1A606B60634A137844
:400E800001218B431370EEE0604B1B789B0600D5E9E06B4B1B78102B02D10522684BDA70684B187866490FF013FC01AB1880002804D0654B1B6801A936209847534A117881
:400EC00001230B43DBB213705E4B18785C490EF0CFFFC8E06A785D4B1A70C4E05C4B1B88002B01D00CF0D4FA0222514B1A70BAE0574B1B88002B01D00CF0CAFA02224C4BB6
:400F00001A70B0E006224A4B1A70ACE0484B1B78022B00D1A7E03D4A1278D20700D4A2E03A4A1278520708D50322414B1A70374A137804218B43137095E0344A1278120742
:400F400008D506223A4B1A70304A137808218B43137088E0032B00D085E00622344B1A7081E0334B1B78022B00D17CE0274A1278D20778D5254A1278520707D504212C4B2B
:400F80001970224A13788B4313706CE01F4A1278120708D50622264B1A701C4A137808218B4313705FE0042B5DD10622204B1A7059E0244E02222900300000F09EFB002211
:400FC0001C4B1A7031783D31FF314900214B591801310232204800F090FB44E0FFF74EFE41E06988162900D91721288810F01AFD39E02800FFF74CFE35E0044B1B78DB0761
:4010000031D5280000F05CF82DE0C046EC260020100F00207CF2FF0F7DF2FF0F7BF2FF0F78F2FF0F140F0020507F010048080000E2260020E4260020D0140020B00E002037
:40104000880F0020E8260020BC260020C0260020DE260020008D0100E02600200A4A117801230B431370094B1A7811231A4209D0064A137801218B431370054B1B68290040
:401080002000984703B0F0BDB8260020EC260020BC2600207047C04600B585B00F236B4400221A70123269460A81009301238B80002300220021684611F02AFF05B000BD7B
:4010C00010B582B00400154B1B68002B23D08389122B20D10389012B1DD143681B78022B19D8043040232200002111F011FF002811D123886A4613800023937004340194E2
:40110000064B1B686946BE20FF309847044A137801218B43137002B010BDC046D8140020EC260020000000000230800803D00138FDD1C046C046C0467047EFF3108072B63A
:40114000704780F31088704710B5FFF7F6FF044A136804218B43136030BFFFF7F2FF10BD10ED00E00160704701607047324B1A781202324B1B781A43314B1B781B02314931
:4011800009780B4330498B4201D1072A06D0D42109018B4206D1042A04D102E02B4B042200E02A4B2A490B602A4B1A602A4B1B781B022A4A1278134380229201934202D0A6
:4011C000002B02D002E0264B00E0254B254A1360254B1B781B02254A12781343244A934205D0244A934204D0052B05D103E0224B02E0214B00E0204B204A1360204B1B6815
:401200001B09204A1268AA2A15D1012B13D9164B1B780E2B0FD11C4B1B781B021B4A127813431B4A13601B4B1B781B021A4A127813431A4A1360704759F1FF0F58F1FF0FFC
:401240005FF1FF0F5EF1FF0F580B0000580D00006C002E4074002E405BF1FF0F5AF1FF0F0220000078002E405DF1FF0F5CF1FF0F0F0F000005050000050F000080002E4093
:40128000EC0F00F0E00F00F06DF2FF0F6CF2FF0F84002E406FF2FF0F6EF2FF0F94002E4010B5FFF7B1F910BD10B5FFF795F910BD10B500F04FF810BD10B500F053F810BDDC
:4012C00010B500F04FF8034800F02EF8032000F031F810BD9113000010B5024800F04AF810BDC0469113000000487047020200002B2070472B2070472B2070472B20704721
:401300002B2070472B2070472B2070472B2070472B2070472B2070472B2070477047C0460120704701207047014B18677047C0460000002010B50400FFF7FFFE044A136805
:40134000C0218B43A4011C431460FFF7FAFE10BD0CE400E080225201014B1A607047C04600E100E080225201014B1A607047C04680E100E010B50400FFF7F4FF2000FFF701
:40138000D3FF0320FFF7D6FFFFF7E4FF10BDC04610B516F035FB10BD002243088B4274D303098B425FD3030A8B4244D3030B8B4228D3030C8B420DD3FF22090212BA030CE3
:4013C0008B4202D31212090265D0030B8B4219D300E0090AC30B8B4201D3CB03C01A5241830B8B4201D38B03C01A5241430B8B4201D34B03C01A5241030B8B4201D30B03F2
:40140000C01A5241C30A8B4201D3CB02C01A5241830A8B4201D38B02C01A5241430A8B4201D34B02C01A5241030A8B4201D30B02C01A5241CDD2C3098B4201D3CB01C01AED
:40144000524183098B4201D38B01C01A524143098B4201D34B01C01A524103098B4201D30B01C01A5241C3088B4201D3CB00C01A524183088B4201D38B00C01A52414308D4
:401480008B4201D34B00C01A5241411A00D20146524110467047FFE701B5002000F0F0F802BDC0460029F7D076E7704703460B437FD4002243088B4274D303098B425FD3EC
:4014C000030A8B4244D3030B8B4228D3030C8B420DD3FF22090212BA030C8B4202D31212090265D0030B8B4219D300E0090AC30B8B4201D3CB03C01A5241830B8B4201D3C9
:401500008B03C01A5241430B8B4201D34B03C01A5241030B8B4201D30B03C01A5241C30A8B4201D3CB02C01A5241830A8B4201D38B02C01A5241430A8B4201D34B02C01AF7
:401540005241030A8B4201D30B02C01A5241CDD2C3098B4201D3CB01C01A524183098B4201D38B01C01A524143098B4201D34B01C01A524103098B4201D30B01C01A524179
:40158000C3088B4201D3CB00C01A524183088B4201D38B00C01A524143088B4201D34B00C01A5241411A00D201465241104670475DE0CA0F00D04942031000D3404253403F
:4015C00000229C4603098B422DD3030A8B4212D3FC22890112BA030A8B420CD3890192118B4208D3890192118B4204D389013AD0921100E08909C3098B4201D3CB01C01AC0
:40160000524183098B4201D38B01C01A524143098B4201D34B01C01A524103098B4201D30B01C01A5241C3088B4201D3CB00C01A524183088B4201D38B00C01A5241D9D2B2
:4016400043088B4201D34B00C01A5241411A00D20146634652415B10104601D34042002B00D54942704763465B1000D3404201B5002000F005F802BD0029F8D016E770472D
:401680007047C046014B18687047C0465C1300200E4B70B500251E000D4CE41AA410A54204D0AB00F35898470135F8E716F05AFC084B00251E00084CE41AA410A54204D031
:4016C000AB00F35898470135F8E770BD707F0100707F0100707F0100787F010030B50024A24208D0035D651C0C5DA34201D0181B02E02C00F4E7002030BD002310B59A4259
:4017000003D0CC5CC4540133F9E710BD03008218934202D019700133FAE77047134A1088810703D08107890F401A001D11791030484381B25088820703D08207920F801AB5
:40174000001D800040180A494030098980B2CA0701D0503080B2890706D504495422091F09785143081880B270470000940F0020E814002010B501F01DFF10BD10B501F0F1
:40178000DBFF0EF029FC10BD10B501F0DDFF0EF02BFC10BD10B501F013FF10BD10B500F05BFA10BD10B50749044609780220002907D1204601F060FF002802D120460EF057
:4017C00027FF10BD3E11002070B504460120002C12D02368002B0FD0616800290CD0074D06222889208118462968FFF786FF6968606809780170002070BD0000E81400205A
:40180000FFB585B0002768460E9D07734F481C460078002802D0082009B0F0BD10990F9801900095029105A807C800F007F90028F2D16946264603AB84460873002C19D049
:40184000002115E08A00B75A082F09D990198078002805D0083FB7521878401C187005E0002914D00027B75290198770491CC9B2A942E7D360460028CED10F98002809D0E0
:40188000109901F047FA002804D00120C4E701208446EFE701F094FE2D480021416081600599016021888180022D07D3A1798171A17AC171A1890181218A418100211EE0E6
:4018C000481C19E082008B00A75AE65ABE46BE4211D26F463E80B4461E190296B678BE7001967646E6521719029EBB78B3706646A652019EBE70401CA842E3D3491CA94250
:40190000DED3134822460C3000906846037B0799069800F01BF90028B8D168460B4C007B60700B480C3001F087FE0028AED1084907480C310BF062FD0028A7D10BF07CFD01
:401940000028A3D10121217066E700008E0F0020DC140020F8B5054636480F460078002802D002242046F8BD002F60D000243249002D16D02A89D0070DD02868002808D078
:4019800003881B3BE12B04D24088FB2801D81B2801D2012409E0900707D56868002804D1F7E70020088108604860002CDAD122482E8906811F481B21801D0180418004217F
:4019C00001711C490020891C0870F00705D019480622801D2968FFF790FE1749B00703D56A68144812788270124D0E46AD1D281F0D60486001F066FE284601F055FE30899A
:401A000012F05EFC308911F07FFD288811F082FD308912F0D5FD03461033FFF77FFE1F21C018890140183880A91F88809AE7012498E700008E0F0020E8140020FFB584465A
:401A4000384F1C460020BB883F78054602460646002F11D100290ED0029999420BD36146002908D0002C06D00A99002906D02E4B0B99994202D2012004B0F0BD002144E039
:401A8000AB001F19BF78002F3BD0E35A002B38D07B43591889B22B0000F04AF8050410161C253100A7782388BC46FF27233BEB37BB4222D26346032B1FD322E0A388002B76
:401AC0001FD0302B19D31CE02389002B19D0282B13D316E0A289002A13D01346134F233BBB420AD20DE0268A002A0AD033460F4F233BBB4201D2964203D901200EE0002012
:401B000001E000280AD16D1CEDB2099B9D42B7D31C2463435B1802998B42ACD89642AAD8AAE700008E0F002079020000BAFF000030B47446641E2578641CAB4200D21D460C
:401B4000635D5B00E31830BC18470000FFB583B0002469460C801F4606468C80002806D00598002803D004983043800701D0012466E0002FFBD03449049809888842F6D362
:401B8000FFF7AAFBFFF798FB00F016FC002855D100F07EFD002851D12C49084601F0EEF805042D0C4AD12A480499066081800021C18007810C98007AC00704D0684601F04D
:401BC00018FD040007D10C98007A800703D501A801F024FD0446BF1DFEB2002C20D13146059800F05DF804001AD112F0F7FC040016D16A461088928808368518144AF1B263
:401C00009088D288AEB29319984207D3401B801A80B201F0A3FB050007D000E0FF25012400F062FA002D04D008E0F8B200F01CF9F6E700F085FA07490120087000F0CEFBE5
:401C4000204607B0F0BD0000920F00208D1D0000F41400209A0F002010B503480078012801D101F01DFA10BD9A0F002070B5084B0446DA889E8803205518B54206D81868EE
:401C800080182060D8884018D880002070BD0000F41400200148008970470000F4140020F0B587B007460D4600208900009006916846FFF7DBFF844600285DD130480099DB
:401CC0000160002117E02E4B88001A680629115406D22C4C0419667882185670628805E0C419203CA67A8218567022891B68C018491C4280C9B2A942E5D300242DE0601C29
:401D0000C2B2059025E01E4FA30039689600581840887118039604904E88B04217D938466F46FE80B6464F786E4677710297049F4F800168039F5E18767879184E70016866
:401D4000764659184E800068029F18184770521CD2B2AA42D7D30598C4B2AC42CFD36046002809D168460699FFF780FF8446002802D1054900980860604607B0F0BD0000C6
:401D80009C0F0020987F0100A00F00207047000010B5002809D005494A68002A05D0011F08788000105801F087FA10BD9C0F002010B50446FFF76EFFC0B2801DA0420CD321
:401DC00007484068002808D0A100405801F0E6F9002801D00470001D10BD002010BD00009C0F0020F8B516460D460446FFF752FFC0B2801DA04203D20020C0430090F8BDB9
:401E0000B2B2E9B2684601F0EFF90099481C03D0024AA000526811500098F8BD9C0F0020F8B50746FFF736FF801DC6B20A49002005460C680DE06178002907D06188B94217
:401E400002D32078FFF7B4FF002804D1241D6D1CEDB2B542EFD3F8BD9C0F002010B5002801D0FFF795FF10BD70B506460948002504680BE06178002905D062882078121DD2
:401E80000023FFF7AFFF241D6D1CEDB2B542F1D370BD00009C0F0020FFB581B00A9F16000C4620D000F0F6F8054604281BD0002F0CD03846FFF7B4FF20492A015118486042
:401EC000002810D03A460499FFF717FC1B4928010E504618778101980570200406D47D20C000444304E0FF2005B0F0BD6404640C00F0BEF80746042807D000F053FAA04231
:401F00000BD800F04FFA201A03E0204600F0AEFA0020F06035720020E6E700F043FA009000F0BAFA00980121001B009000F0F0F802493A0151180098C860E6E70015002017
:401F4000F8B5042801D3FF20F8BD060116483418217A042903D0E068002802D017E00020F8BD00F01FFA054600F096FA00F0A0F804280CD001010C480F18F86800214519C6
:401F800000F0C6F80020F860284600F06FFA6068054D002801D0FFF761FF042020720020A8516081E060DAE700150020FEB500266A46304601232549050169180D7A042D15
:401FC00002D0C96800291BD000211154401CC0B20428F0D300246846005D002830D01B48210108184189476805680291002101604160042241810272C160002E02D015E07D
:402000001354E3E700F054F804280ED001010F4808180190C6680021304600F079F801980021C160304600F021FA0126002D07D038460299A847002F02D03846FFF70EFFE8
:40204000641CE4B2042CC6D3FEBD0000001500200EB5002005216A4600901181508103486946006813F051F90EBD0000A40F0020074A0020010189180B7A042B02D0C968CD
:40208000002903D0401CC0B20428F3D370470000001500200549002002015218127A042A03D0401CC0B20428F6D370470015002030B50A4B04200A4C00210A011219157AC7
:4020C000042D06D0D268002A03D09A4201D808461346491CC9B20429EFD330BDFFFF0000001500207047000030B50020074C05460423020111190B72A5504D60401C4D8160
:40210000C0B2CD600428F4D330BD00000015002030B5094C00231A011219157A042D04D0D568002906D02D18D5605B1CDBB2042BF1D330BD2D1AF7E70015002000207047E9
:402140001CB5002469460C70142001902346054A054813F0DFF804480068401C00D1FF2420461CBDBD210000A40F00203EB5124A0146FF2000230124126800290DD0012900
:4021800014D0042908D104206946009308814B81104613F0BAF880B23EBD68460093048143816946104613F0ABF8F4E768460093048143816946EBE7A40F002070B5458961
:4021C0000468416800890300FFF7B2FC08280509091E22282628002009F0E4FA1EE0022908D0C8B22A46214611F0E2F82046FFF735FE13E002202A46214611F0D9F82946BD
:40220000204600F00DF809E0002012F07DFD05E02046FFF7CBFE01E0FFF780F8002070BD014B0022DB681847A80F002070B5448905680089022803D0032809D0FF2070BDFC
:402240002246094C0023A46829460120A04708E0FFF7A0FA241DA2B20023294602200AF080FF002070BD0000A80F002070470000024800214160018041807047A80F00200A
:4022800070B50C46002186B016460391012802D0022859D116E003A901200AF0B7FF01281BD1039D324621462846FFF726FA0095287801900220694608814E816846FFF7F3
:4022C000B5FF41E0214D002B686809D0049004A902200AF09BFF01281DD0022006B070BD002812D0298840182146FFF706FA28880024801980B228806988091D884206D146
:402300002C801348FFF792FF03E00320E6E788421AD96C6018E004986860E278A378110219430B4A698000231060E3565360032313815181A1788170E178C170617841700C
:4023400021780170042028800020C7E7A80F0020401500203EB515460C46022803D004280CD000203EBD0091019002206946088107484A81006812F0C8FF07E011F018F8EE
:40238000044B0022DB6829462046984701203EBDA40F0020A80F0020014AD16090607047A80F0020034801688068081A0A214843000970474C15002010B5FEF781FF4C2298
:4023C00004490548FFF799F903490120C870002010BD0000B47F01005019002010B5FEF767FF10BD70B5134C2368002B08D0207B1149C20705D04008400020738868A080AF
:4024000070BD88680B4AA18880B29268814203D90A4D691A091802E0814202D2411A5118A160A080A0689842EAD312F08BFF00F013F870BD4C150020C0102E40FFFF0000CD
:4024400010B508461946FFF7A7FF10BD704710B5FFF780FF10BD000003480021016041608160C160704700004C150020024610B5FF20002A0CD0FFF7EFFF064C0321207BF4
:402480000843207310010A21FFF70CF82060002010BD00004C15002000B504480A21806848430209FFF7D8FF104600BD4C1500200248007B8007C00F704700004C150020BC
:4024C00010B54B490868002802DA4A4B01221A70022290430860484800694549C00B4031096A0246C907C90F0A4259D0012000F097FA3F480E216C30FEF736FE3E482021EF
:402500008430FEF731FE3C4814219C30FEF72CFE3948FF21C131A430FEF726FE3648FF212F31B030FEF720FE33483449BC30FEF71BFE31483249AC30FEF716FE30492E48F4
:40254000491CB430FEF710FE2B482E49B830FEF70BFE29482C49CC30FEF706FE26482B490830FEF701FE24482949A830FEF7FCFD214828498830FEF7F7FD1F4826498C30A5
:40258000FEF7F2FD1C481921C9029030FEF7ECFDFEF7ECFDFEF7A8FEC0B2022812D01FE000290BD0002101420AD0114801216030FEF7DAFD0120FEF777FE97E70121F2E71D
:4025C000FF2010BD15491648FEF7CEFD14481549001DFEF7C9FD124800210830FEF7C4FD54200449C043891C0870002010BD000000F02E40B80F002000002E4032030000C2
:402600002F3F00003102000010520000EC160000FA12000031D000003AE300009956000080012E40F80F000070B50646581C80B245086D00002408E0304600F0C1F8105525
:40264000000A1119A41C4870A4B2AC42F4D3D80705D0D0182038D15CC47FD454C17770BD30B50A4C002100195B1E07E0541864782502545C2C430480891C89B29942F5DB40
:40268000994201D1515C018030BD000000102E4010B5FF2000F0C4F90F49FF2048700E481021801D41800121417001700A490020C91C4870FFF704FF04000AD100F010F90A
:4026C00007210648FEF74EFD044807211830FEF749FD204610BD0000B80F0020CC112E4070B5002405465B1E0AE0284600F068F8010A161971702D1D1055A41CADB2A4B2D4
:402700009C42F2DB9C4203D1284600F059F8105570BD000070B500210A4D5B1E0AE0541864782602545C344346193480001D891C80B289B29942F2DB994202D1515C4019C6
:40274000018070BD00102E40F0B50599091FCFB200217E1E0BE0541864782502545C2C43164D45192C80001D891C80B289B2B142F1DBFC0712D01C78515C24020F4A0C43BC
:4027800081180C809C785D78001D210280B2294384182180001D80B2D9780CE059781A7809021143054A84182180001DD9789B78090280B2194380180180F0BD00102E40B8
:4027C000014940180088704700102E4010B50B490020487000F084F8002000F047F9002000F034F907210648FEF7BCFC044807211830FEF7B7FC002010BD0000BB0F002032
:40280000CC112E4010B50B46062812D006DC01280CD0032801D1FFF7D9FF10BD0A28FCD00B28FAD105480078107010BDFFF730FF10BD1146184600F035F910BDBE0F00201B
:40284000F8B5244DAC6A0127A007234E002816DA307806280ED1286A384328621F480069F903084381B21D481030FEF77DFC042000F0D6F8174802212830FEF773FCE0071C
:4028800018D000F069FF01280FD1002000F0B6FF062000F0C5F81049FF20C91E48707078002802D1686B384368630A4801212830FEF758FCE0050BD53078042802D105207E
:4028C00000F0AEF80348FF2101312830FEF74AFCF8BD000040F02E40BB0F002000002E4010B503212348FEF73FFC0120FEF7D8FC20483038406A204C80076178800F89009B
:4029000001431C480C38FEF72FFC6078002808D0401E022181401820FEF7AEFEC000083800E0B82081B21548FEF71EFC1348032109021438FEF718FC10481149B830FEF7D3
:4029400013FC612189010F48FEF70EFC0D480321001FFEF709FC0C490C48FEF705FC0B480B496038FEF700FC084801218838FEF7FBFB10BD70F02E40BE0F0020D8102E408A
:4029800090890000041E2E40FF0F000058122E40209000000848017806290BD140780749002803D1486B400840004863C86A01221043C86270470000BB0F002040F02E4009
:4029C0000148007870470000BB0F002000B50300FFF7AEF8080D050D0B070507090D012000BD032000BD042000BD022000BDFF2000BD0000074A9168D26889B2064B92B218
:402A0000994204D105498A4201D1012100E000210170704780002E4033D000003FE3000010B50446FEF748FC072C01D9FF2C01D102480470FEF73CFC10BD0000BB0F0020A8
:402A40000149487070470000B80F002010B5064A012805D01921C9021046FEF785FB10BD1D21C902F8E7000090002E4010B50A4A141D012808D009491046FEF775FB084977
:402A80002046FEF771FB10BD04491046891CFEF76BFB0349491DF3E788002E4031D000003AE3000070B50C460546FEF71DFCC0B202280E49287804D0FF2810D04C280CD8A9
:402AC00010E0FF2809D10A4AD0680004800F032801D0087807E09069000A553803E00878207070BD4F382070087070BDBA0F002000002E40F0B50122002834D0002932D081
:402B00000424420600D00524792342065B06D21800D0641C034600221EE00C2516466E43124D00277519AF72104F002ABB51696007D0661EB24209D10D4E86197606760E50
:402B400005E05E06760E8027BE1B00E080269B198919521C2E81D2B2A242DED303480549006B002288611046F0BD0000D817002079020000C40F002018B500206946087053
:402B80000A48006900280ED0132149014018047E684604704F21C900054800F05BF8A04201D0012018BD002018BD0000C40F00205C150020074900200C2242435218927A56
:402BC000012A05D0401CC0B20628F5D30020704701207047D8170020F8B50F000446164609D01A4D1A496868A04202D94018A04201D38E4201D90120F8BD39462046FEF759
:402C00006DFD002820D0324639462046FEF775FD0E49F0B2012620318E7600210C220B4653430A4A9A1813895568EF18A74207D9641B1B1B9672834206DAC01A1469C0B249
:402C4000491CC9B20629E9D30020F8BDD817002079020000034610B50020024604E09C5C2018521CC0B292B28A42F8D310BD000070B500F05FF8084C064A216907480D46DC
:402C8000FEF73BFD05492846FFF734FFFFF774FF207070BD79020000C40F00205C150020002070470020054A002902D0012902D002E0906000E0D06000207047C40F0020F4
:402CC00070B5084C154608460549E26889182A46FEF713FDE0684019E06028B270BD00005C150020C40F00203EB50A226946FFF7E7FF044606480A2200686946FEF7EEFC34
:402D0000002802D00020C0433EBD20463EBD0000C80F0020002802D0044A914201D2FF20704703494A6108610020704779020000C40F0020024800218160C1607047000096
:402D4000C40F002070B5074C15460548A26880182A46FFF741FFA0684019A06028B270BD5C150020C40F002010B503490A220968FFF7E8FF10BD0000C80F002010B50F4A9F
:402D8000002313600E4A13600E4B18600E4801600E49012008600E490860000290600E490C4808600D4914300860FF381538506000F0BCF800F0CAF9002010BDF80F0020E5
:402DC000E00F00200C10002010100020FC0F0020EC0F002020190020F00F002004100020014610B50020002910D0094B1A689C685118A14209D25868196080188A0704D0EA
:402E00008A07920F891A091D196010BD002010BDE00F0020F8B50024164E671E321F3D463168136806E01422624310328A58521C1BD0641C9C42F6D36A1C14D02C4614223C
:402E4000544322460C3288500C214843FFF7C8FF3168002808510AD031680020103408517068401C70602846F8BD2546E4E73846F8BD0000F00F0020F3B50026F64381B097
:402E800000281BDB1E490968884217D80299002914D01B4F142204463F1D54432546396810354859401C09D0FEF706FA38682F1F4159C359994203DBFEF7FAF93046FEBD4C
:402EC000214608310091465801590C20704308180C220299FEF711FC0948761C001D0068C159B14200D100260549009A091D865008684159491C4151FEF7DAF90020FEBDEB
:402F0000EC0F0020002803DB07490968884202D90020C043704704491422091D096850431030085870470000EC0F0020F0B500200D4A451E0346171F50600FE014260146F3
:402F4000714314680E1DA3510C461668083433511668083435511468401C635039688842ECD30020F0BD0000F00F0020F3B50026F64381B0002841DB2349096888423DD859
:402F8000029900293AD0204F142204463F1D54432546396810354859401C2FD0FEF78CF93868415900292BD0211D009146580C21005971430F46C1190C220298FEF79DFB11
:402FC00011480021001D0068761C00590C34C0190160416081600C48001D00680159B14200D100260849009A091D865008684159491E4151FEF75CF90020FEBD3046FEBD8E
:40300000FEF756F9FAE70000EC0F0020FEB504460D4600201E49089E0860471E009001900290002C11D0486885420ED2002A0CD0002E0AD0642E08D808460C3001681C2040
:4030400068430C18207A002801D03846FEBD0120226020721846FFF7DDFE6060401C13D06681A6810A4827610C3067610179A94200D205710021684601810A462846029B0D
:4030800000F040F82846FEBD00202072DDE70000F80F002038B50124009400F039F838BDFEB50027164EFF433D4600240EE01C20316860430818017A002906D04068FFF7A1
:4030C00021FF002801D0254603E0641C3079A042EDDA681C12D01C2130684D434419FEF7EBF869466068FFF741FF0546FEF7E0F8002DD9D1216868468847D5E7FEBD00007E
:403100000410002038B50024009400F001F838BD1FB500220C49541E0A60002811DB496888420ED808491C220C31096850430818406801A9FFF7A0FE401C02D0002004B064
:4031400010BD2046FBE70000F80F0020F0B50021114A4D1E174611710C3F0B46BD6016E008461C2460431668041D355114680646235014680836A3551468361DA3530446A7
:4031800016680A34335318301468491C255078688142E5D30020F0BD0410002038B500210091002811DB0F49097888420DDA0D4D04010C3529680859002807D0201D0818A8
:4031C000694600F06FF9002801D0002038BDFEF773F828680F34015D491E0155FEF768F8009838BD14100020F7B582B0002502986E1E06602E48D21C024017462D4A2C46CB
:4032000010460C380178106805E02301C358002B0FD0641CE4B28C42F7D3711C28D03401211D40180191039900F02AF900281FD101E02646F1E71F48016820460C300F5286
:403240001C480399026820460E30115419480399026820460F3011540398784300F0A0F8144900280968085102D00024009011E001251AE00F48016801980818009900F0A4
:403280002CF9002801D0012502E00098C0190090641CE4B203988442ECD3002D05D10298066004480179491C0171284605B0F0BDFCFF000020100020F8B50D4600216A4625
:4032C0008C461180002839DB23490978884235DA214B04010C3319680A59002A2ED020460C300B5A801C0E5C184670438018954224D3854222D2002006E007465F43BF18A2
:40330000AF4206D0401CC0B2B042F6D36046002814D0114E271DC8190C366A46294600F006F900280AD168460088012808D030682946C01900F0D1F8002803D00120F8BD13
:403340000020F8BDFDF7B8FF30680F34015D491C0155FDF7ADFFF3E714100020F8B50F46002400F031F8002817D10C4900220B460C334A600EE021011D680E466A501D68F3
:403380000C36AA53B61C1D680F31AA551D68641C6A54E4B2BC42EED31A71F8BD1410002000280BD0C01C074A81085068890053884118994203D89368516018187047002005
:4033C0007047000014100020F8B5064600200F4D009029700C0121466846FEF747FC00280CD129460C3100980860301B001F84B221466846FEF73AFC002801D0FF20F8BD7C
:403400006C800098A8600020F8BD000014100020F8B5002827DB19490978884223DA174C05010C342168485900281CD028460C30085A009028460E300E5C401C0E54206887
:403440002F1DC01900F064F800280CD12068002445590EE0094829460C300068C01900F03CF8002801D00120F8BD00982D18641CE4B2B442EED30020F8BD000014100020AB
:4034800030B50D4604000BD0A800FFF789FF6060002805D000202570C0436080002030BD012030BD70B50D46040005D0002D03D00220205E002801DA012070BDFDF7FCFE2F
:4034C0000221615E60688900405828606088401E6080FDF7EDFE002070BD70B50D46040007D0002D05D002212078615E401E814201DB012070BDFDF7DFFE6088401C00B246
:403500006080616880000D50FDF7D2FE002070BD10B5040009D0227800216068FEF7F6F80020C0436080002010BD012010BDF0B500231D46002802D00224045F0AE0012055
:40354000F0BD46689F00F6598E4201D1012503E05B1CDBB29C42F4DA15700020F0BD00000148007870470000281000207CB505460024FEF70FF9A8796946087000A80622D0
:4035800029460130FEF7B9F80021684608F006FC0C2806D0072806D01F2806D0122806D006E0022404E0042402E0272400E0012420467CBD01480121417270475C1A00206C
:4035C00010B500F03DFAFFF7FBF9FFF7FFF910BD70B504460025FEF7DDF8002C06D0A079012803D8214603F047FC00E00125284670BD01460120002902D050200880002004
:403600007047000001460120002903D00248007808700020704700002A10002001460120002905D0034854220078504308800020704700002A10002010B502460D49FE2098
:4036400048700324104612F083F9002810D112F027F900280CD109F035FE002808D100F0F1FB002804D108F099FE002800D10024204610BD2810002070B50025044600286E
:403680000ED0A07901280BD8FEF784F8A0790028204602D004F048F803E004F01DF800E00125284670BD0000014610B50120002904D006220248FEF720F8002010BD0000C6
:4036C0003410002001460120002903D00878024908700020704700002A100020F0B589B015460F4606460124FEF754F8002E20D0002F1ED0002D1CD0102239466846FDF7A7
:40370000FCFF1022314604A8FDF7F7FF1021684612F040F8102104A812F03CF82B46102204A9684605F02EFE1021284612F032F80024204609B0F0BD10B508F0ABFA09F0EE
:403740007DFC07F09FFC10BD10B508F0A3FA05F0A1FF09F0D5FA10BD0148007A704700005C1A002038B504460120002C20D0617801291DD800290BD0FF25E535FEF70AF838
:403780000C4828180088C0B22070072803D00EE0FF25CD35F2E70020694608706846FFF729F969460878012801D108202070002038BD000000102E40014A002192681047BD
:4037C0002810002008B500226B461A7026280CD0094A342852680BD0352805D1900703D50021352009F04AFE08BD19462620F9E7D007F9D03420F5E728100020014908725A
:40380000704700005C1A002010B500F007FF10BDF8B504460120002C26D06178012902D92278092A20D8002905D0FF25E5352078092803D004E0FF25CD35F8E7082020705D
:40384000FDF7A8FF2078114F114E08280DD00020FFF70CF970780128207810D00D4969180880FE2070700020F8BD0120FFF7FEF80720B8810549203188800120F2E7B8812C
:403880000248217820308180EBE70000C0112E402810002000102E4070B50E46050001D0002400E00C4C002C11D0E28A500609D5D107C90F022004F091F8E08A40218843B0
:4038C000E08204E0D107C90F012004F087F83146284603F05BFC70BDBC190020F8B50546002004460D4E009013E022466946284601F0C8F90098002801D012F00BF8A878C0
:40390000214603F0B3F9A878214603F0A1F9641CE4B2308AA042E8D8F8BD0000881A0020F7B58E462249086820308078002802D08446002338E0FF20FEBD1D4821210068F9
:403940000D5CE9000A1856799779D47912794058B2420DD311F0DEFF1548006820304178491C8907890F41708178491E8170E2E78118B61A0098F6B20160BC4212D1A642D9
:4039800004D290197146C0B20E7003E010197146C0B20C700299EA000D70054909685118087103E05B1CDBB26345C6D30020FEBD90100020064A02235188891C89B25180CB
:4039C000814201D8102900D953805088704700003A10002001484078704700003A100020F8B50D460446FDF767FC144E3068034620339A78042A1CD0E178A77809020F43F3
:403A00001978521C491C8907890F19709A70CA00845010184771316800205118087130681018C571306810188571FDF741FC0020F8BDFDF73DFCFF20F8BD000090100020DB
:403A400038B51E4CFEF7BCFF042813D0052811D0062812D003282AD007280AD100206946087002460120FEF7CDFEFEF7A9FF0128FBD138BD00F010FC38BD03F097F900F088
:403A80000BFC03F01BFA8007800F0228F4D10C4841880029F0D05B21095D0029ECD101210170A07D0140022003F098FF38BD03F081F90120FEF7B4FF38BD0000BC19002072
:403AC00052100020F8B50646002404F005F80546304604F01BF803460A480021068A0DE001228A401046174628401F40002803D0002F01D1224394B2491CC9B28E42EFD8B0
:403B00002046F8BD881A00201CB50020694648706846FFF727FE01AA69460A20FEF772FE6946042008561CBD70B50D4601F0DAFD04000BD02079002808D0FDF72BFEE17866
:403B4000A0782A4603F0D0FB002070BD022070BD0148007970470000901900204030C07E002800D00120704700B500F001F800BD902148430749084A40186030417F491C5D
:403B8000C9B24177D289914201D300214177C8B2704700009C190020881A002013B501F0A1FD04000BD002F04CFB002807D0214601AA0A310620FEF725FE00201CBD02201B
:403BC0001CBD000010B50C4601F08CFD00280AD002F037FB002806D0224604490A20FEF711FE002010BD022010BD00007D190020F3B581B0074601460026029803F064FF3F
:403C00000446002F01D0002500E0154D002D21D0284601F09DFD032C04D13946029803F0AFFF06463846029903F012F8032C06D0002C10D00121384601F07AFF03E0314627
:403C4000384604F081FA284602F09CFE0221284602F0B2FEFEBD3846029902F0F9FFFEBDBC19002010B5044600F0C0FA002804D105F052FB002801D00C2010BD2078611CBD
:403C800003F05AFCFF2801D01F2010BD03F0A0FCFF280AD02178621C02F064FF044821780068026B601C904710BD072010BD00007810002010B505F02FFB002801D00C203C
:403CC00010BD03F01BFC03480068C06A8047002010BD00007810002070B50D460446102111F058FD10216018064611F053FD334610221946204605F045FB1021304611F0D8
:403D000049FD02202870204608F06CFA70BD0000FEB504464078217802028006870FE0781143A5780E050002360D0543304601F0D9FCEAB23B4621460096019000F06EFA7C
:403D40000006000E14D10B48224600680199436928469847C0B2FF280AD10198EAB24030817EFF23491C81762146019800F00BF9FEBD0000941000200020704710B50446A5
:403D800005F0CAFA002801D00C2010BD2078611C03F0D2FBFF2808D003F0FAFA044821780068426B601C904710BD1F2010BD00007810002010B500F0ADF908F0EFFA002073
:403DC00010BD000010B504460F4802F091FA012817D00D4805222146B030FDF78EFC0A490522B0310846C038FDF787FC01F078F8054880222038C17B1143C17300F0C6F98F
:403E000010BD3A2010BD0000BC19002010B5044600786178E2780843A17811430843217908436179084305D005F060FA002803D00C2010BD122010BD204603F075FC0020D1
:403E400010BD000010B5FDF74FFA03F067FE044805F0F8FA03F0A6FA012000F003F810BD64190020F1B586B003A8009005A801902A489F22017B114001736846FDF7A4FCD4
:403E8000002849D169460989C90705D0244806990068C2686846904769460989890706D5002839D11F480068816A06988847002832D11D4E0025757075737571F575357630
:403EC00075767575B570F570B5713746F5730120D03738731F20F880FF2130467972A0300176457600F062FB04F008FF02F08AF900242046069902F037F9002803D1641CC7
:403F00002406240EF5D0FD720749BD72B573C0310D704D704D600D7207B0F0BD5019002094100020781000209C19002070B505460E46084603F0D0FD0446304603F0E6FD5D
:403F40000121A9400A46224001400A4301D0012070BD002070BD10B50446084603F0D6FD0121A140014201D0012010BD002010BD10B5FEF725FD032804D102F01BFF01206C
:403F8000FEF74EFD10BDFEB51C4616460F46054602F0F8FCA878FFF7E7FD02460190334639460094284600F00DF8002808D1A8780199FFF771FCFF2C02D1384611F0AAFCFA
:403FC000FEBD0000FFB585B005460E980C46FF2810D02B49C00009680A5840180179C0795278814201D9012601E09006860F6846038108E06078A1788006860FE0780002A7
:40400000014368460181284602F056F9070007D021462846079A00F0B6FD384609B0F0BD304600F0C7FE04AE0346039002AA29460096204600F05BFC3C20405D002818D062
:40404000284602F039F9012813D0684600890096C0B20190A878231DFF22079903F04AF868460089039BC2B2A878079903F088FCD3E7684600890021C0B20091E9E7000017
:4040800090100020F8B5002600253046FFF71AFD07001DD090201149704340186030447F12E0601CFDF7FEF9CCB23846E040C007C00F07D02146304602F0C2FD214630461C
:4040C000FFF796FD6D1CEDB20548018AA942E8D8761C3606360ED7D0F8BD00009C190020881A002070B50024094D03E0002C01D0002000E028464121095C012901D100F0E7
:40410000F8FC641C2406240EF0D000F03FF870BDBC19002010B503F045F90020FFF7A2FE11F08EFC002010BDF8B5002400F02EF90125012800D1012404F07CFD012801D1ED
:4041400002200443104F00203E4620360423082203E0002801D0002100E031460979002907D001290BD002290BD0114681402143CCB2401C0006000EEBD07C70F8BD2C4316
:40418000F7E71C43F5E700009C19002070B5144E0024F07BC00921D03546203503E0002C01D0002000E0284602F07CF8012814D0641C2406240EF2D0F07B4006400EF073B0
:4041C000002403E0002C01D0002000E0284600F090FC641C2406240EF4D0002070BD00009C19002010B5FFF79FFF10BD10B5044608F0BCFA002802D1601C00F001F810BDFF
:404200001CB500240094062269460194FDF766FA002800D1122420461CBD0000F8B5044600201E4617460D46002C12D0002D10D0022E0ED0032E0CD0002F0AD02179092991
:4042400007D0002905D013494A7F5A21095D8A4207D82089002107F0B2FE284611F05AFBFF20E18F012905D1002F03D0012E06D0002E04D0374301D10121E187F8BD00213F
:40428000E187069A2A70069A120A6A70AF70E970F8BD00005019002010B5FCF74EFF0446FEF78EFB012809D0FEF78AFB022805D0FCF74AFF2046FCF744FFEEE72046FCF7C2
:4042C00040FF10BD10B50B4681791943817103D08078114603F0DAFA10BD10B582798A43827102D1807803F0E5FA10BD30B50C4C0220A28A0B4B9978002901D0022906D1C6
:404300001D785B78EB18282B01D9032002E0032900D101205105490DC0020143A18230BDC0112E404810002000B500F035F8002807D0012805D0032801D0042801D0002061
:4043400000BD012000BD000002460448018B0020C908114200D001207047000000102E40014600B50020C90701D000F00FF800BD014600B50020C90701D000F007F800BD3E
:4043800001480068704700004010002001480088000A704720102E400448008B410501D5042070474007800F7047000000102E400148406870470000401000207CB5044689
:4043C000002568460570200610D5FFF7E5FF01280CD101A802F008FD6846007900F0D7FB012002F04BFB0220FFF7FCFE600712D50C48017901290ED10571684602F0F4FC6B
:404400006846007800F0F8FB0220FFF7EBFE00212620FFF7D7F9044800680169204688477CBD00004C1000207810002010B501460A4A007800241070FFF7A8FF0128084605
:4044400003D003F0DDF8204610BD00F0F3F80400F9D1034801210170F5E70000481000205C1A002070B50446FFF790FF002801D00C2070BDA27B01211F48002A827801D01C
:404480000A4301E05208520082706279012A14D0C17849084900C170184D2868016820468847207901280CD06188208804F000FA2080207904280FD015E0C2780A43C270A0
:4044C000EAE72868C168E01D8847E01D03F018F90B48008D208006E02868C168E01D8847E01D03F00DF9074920798870204603F095F8002070BD00009C19002078100020F3
:40450000501900204810002008B50178FFF73EFF814201D10C2008BD002914D0072069460870FFF701FF012807D10121684600F0F1F8012801D0092008BDFFF7D7FE03F0EA
:40454000A1F8012011E0FFF7EFFE012806D1684602F04AFC6846007800F04EFB03F088F8FFF714FF0028FBD10220FFF73BFE002008BD000010B501460A4A00780024507006
:40458000FFF704FF0128084603D003F05FF9204610BD00F071F80400F9D1034801214170F5E70000481000205C1A002038B5684611F046F9002801D01F2038BD0121009849
:4045C000C90201804180002505714571857107214173857303F022F8009C202200212046FDF794F825702A460021601CFDF78EF8204603F005F8204603F028F9009811F01C
:4046000089F9062200210448FDF780F802480C388560002038BD00004C100020034A918A042319439182024948807047C0112E404C100020F8B5044600250D4800950078F2
:40464000012806D0684611F0FBF8002803D007250CE00C250AE0074E009830602278611C401CFDF74AF83168207808702846F8BD5C1A002040100020F8B5044600250D4802
:4046800000954078012806D0684611F0D9F8002803D007250CE00C250AE0074E009870602278611C401CFDF728F87168207808702846F8BD5C1A0020401000200346084811
:4046C00000B5834209D8184601F00CF8002804D00089984201D1012000BD002000BD0000FF0E0000074A9179491C8906890E917138220A4092014907090E114308430249A3
:40470000084070479C190020FF0E0000C006C00E70470000F8B507460E4600240D4803E0002C01D0002500E005462979002905D0641C2406240EF3D00020F8BD00212046BB
:4047400001F012FD2E712046FFF7CCFF28813C700120F8BDBC19002010B504F069FE0222002100F003F802F0ADFD10BD10B5094B40074907000F090F185A595A40185043B3
:40478000C0086421FCF78EFE002800D1012080B210BD000000800100F7B53D20405C88B015460C46002802D02878042802D200200BB0F0BD6946087200262046FFF7CEF975
:4047C000012800D00126204603A938300191009023460327A17E34333246206A04F052FE02A8089900900B46019120463A4603A9243004F0A7FD02466846007A28702046F4
:4048000001F09EFC1046D3E7FFB587B00C4605461078694608723D20005D1746002826D000262046FFF79AF9012800D00126204603A93830019100902346A17E3433324637
:40484000206A04F01FFE02A80090291D019120462B1D03A924300A9A04F074FD02006846007A388002D1204601F06AFC10460BB0F0BDF0B505463C20405C89B016460C46D5
:4048800000280CD0307869460873002806D000272046FFF763F9012803D003E01F2009B0F0BD012703200890204604A93830019100902346E17E34333A46E06904F0E2FD76
:4048C0006846007B03A928180290009120462B46019504A92430089A04F068FD02466846007B3070204601F035FC1046D7E7FFB505463C20405C89B016460C46002810D084
:40490000084601F0D9FC01280BD0308869468883002809D000272046FFF720F9012805D005E000200DB0F0BD0220FBE70127204603A93830019100902346E17E34333A466C
:40494000E06904F09FFD291D2B1D07A8129A6D4607C5204603A924300C9A04F027FD02466846808B3080204601F0F4FB1046D9E710B518490446484028D0002101231A4630
:404980008A40904221D0491C2029F8D300212046C840C243520618D0400616D0491C1929F5D3A0B2210C020AC3B2884201D193420BD01F21204600F002FA182805D8A00ED9
:4049C000062100F0FCF9022801D2002010BD012010BD0000D6BE898E70B50C460646FFF7BDF8012824D06079227900020243E079A37900020343607A921F0102207A0843B2
:404A0000E17A0D02A17A154C294335464035A24207D20A38221F904203D2FF20F43083420DD91E202873304600F060FD1E2070BD00222421304603F06BFE242070BDB07886
:404A400002F01AFB012801D0002070BD28202873304600F04BFD282070BD00007B0C0000002801D0002000E003484030C07F012800D0002070470000BC190020014600203C
:404A800049070ED50021084B03E0002901D0002200E01A461279022A04D0491C0906090EF3D0704701207047BC1900200146002049070ED50021084B03E0002901D00022A6
:404AC00000E01A461279022A04D0491C0906090EF3D0704701207047BC19002010B5044680346068002803D010F028FF0020606010BD38B50546002000902846FFF72EF84D
:404B000001281FD1284601F09CFB00281AD028792C46C01E40340300FDF70AF807050511110511141100284601F0CCFB012806D0684610F095FE002805D0012008E0607844
:404B40000028FAD038BD2846009903F073FC0220607038BD40304170704740308170704770B50546403528780C46052904D0002C05D1801E022802D8022003F039FE2C70A9
:404B800070BD0171704792001018C166704770B53C2501F069FE040004D020460021433002F0A2F9FF222946204600F045FD002C02D0A07801F0D4FD70BD000010B50028B0
:404BC00001D0002000E00348002802D0008907F06AFA10BDBC19002010B5002801D0002000E00448002804D00179072901D100F09FF810BDBC19002010B501F035FE00281D
:404C000002D0807801F0ACFD10BD70B5044605464034A078002805D12078012802D1284601F00CFD6078012802D12846FFF761FF002070BD70B50546008A00281ED01049B5
:404C4000F122097B1140C90618D5294640314A8A098A521C4A4392B2D10800D10121540801E0621A94B2A042FBD9FEF779FC012804D1298AA878224602F0C4FA70BD000009
:404C80005019002010B50023054C0B60248A944204D992001018C26E0A60C36610BD0000881A0020FEB5064600200090019080208559684610F0D4FD002801D00720FEBD42
:404CC00020213046009FFFF708FB34464034A08AE080608AA080208A2081304603F024FEA88C218A884207D1288A618A884203D1688AA18A884203D0F07920210843F07141
:404D0000688AA082288A6082A88C2082E98CE182FEF750FEE081208AFEF75CFE60733946304603F0AFFB0120A0700198FEBD000038B5044600200090A079002814D1402029
:404D4000015D052901D00E290ED1684610F088FD002809D12046009903F0B8FC03481021428B2046FFF7AEFA38BD00005019002010B50446807803F007FE204601F07CFC4C
:404D8000002010BD10B50B4604460146184602F032FF002802D0204610F0C6FD10BD13B5044601AA11460620FDF72CFD6846818861811CBD002800D102207047704770B577
:404DC00000231A46491E0CE00446D440E507ED0F541C0646E640F407E40FA54200D05B1C521C8A42F0D3D8B270BD0000F8B504462346401D543300909A1EA078911E02F0A0
:404E000017F825464035A88A298A8000FCF74AFB401E81B2688A884203D96982A07802F027FE698A8C20015120460021433002F05BF827480088E88104F0FAFAE989891C14
:404E40008AB26179FFF792FC02F03CFA04F0F0FA2A8A6179FFF78AFC074602F027FA688A002806D01B49088A032212021043088202E0002002F0F0FD1648803801886E8AB4
:404E8000002E0CD0304648431349FCF7F5FB0004000C01D0401C80B21049488002E00F4800214180288A704381B2A07802F0DCFCFF2228374932B9B21346204603F01EFD50
:404EC000E98AA07802F0E8FBA07801F0FFFEF8BD80102E40E0112E40710200005210002030B50021124C0A46A05C002308E0C50701D0491CC9B201290AD840085B1CDBB2B5
:404F00000028F4D1012903D8521CD2B2052AEBD302290BD207488118C87B0122082B03D29A400243D0B200E01043C87330BD00006C1A00209C1900207FB5044680346168D0
:404F400005460E46183108226846FCF7D6FB31462031082202A8FCF7D0FB1021684610F019FC60681021083010F014FC60682B46083024331022694604F004FA7FBD10B582
:404F800004460821FFF7A9F910212046FFF7A5F92079052822D0062820D008281DD12189002006F0CBFF072020712046FEF7D6FD012819D00E212046FFF7D2FD0021582052
:404FC0000155204601F0DEFB2046FFF787FD2046FFF730FE2046FFF718FE10BD20890122002106F08FFFDEE70521E4E7FFB581B01F4604460821FFF770F910212046FFF7B2
:405000006CF92079082803D0092804D0042503E00425012601E009250026204601F008F900212046FFF79CFD25712046FFF756FD0398002E02D0012808D00BE001280AD19B
:4050400020890022029906F05DFF04E02189029806F074FF01272046002140300176012F07D0204601F08EFB2046FFF7CEFD05B0F0BD02990173204603F076FB0546054870
:405080000121428B2046FFF71DF9002DEFD109202071ECE75019002070B50C460546FEF75DFD012809D108212846FFF716F90023012221462846FFF799FF70BD10B50446F7
:4050C00001F0B6F82046FFF709FD00212046FFF747FD10BD70B505461A24FEF73FFD012809D108212846FFF7F8F80023012221462846FFF77BFF70BD38B505460021684603
:40510000009110F0ADFB002801D00D2038BD2846009C01F00BF92146284603F081FA06480821428B2846FFF7CDF806212846FFF717FD002038BD000050190020F8B5044638
:40514000002000900E46684610F08AFB002801D00D20F8BD204604213430009D00F0BDFA842000590821183000F0B7FA012E02D1204601F0DBF82946204603F0C9F90648D7
:405180000821428B2046FFF79DF802212046FFF7E7FC0020F8BD00005019002010B50446FFF7CAFE03212046FFF7DAFC204601F0E9FB10BD10B50021FFF7C0FF10BD0000B5
:4051C00038B5044600216846009110F049FB002811D12046009A01F02BF81146204603F02AFA05480821428B2046FFF76BF807212046FFF7B5FC38BD5019002038B50446F6
:4052000000216846009110F02BFB002810D12046009903F09EFA07480821428B2046FFF751F804212046FFF79BFC204601F0AAFB38BD00005019002010B5FFF7A0FE10BDB3
:40524000F8B50446002000900E46684610F008FB002801D00D20F8BD8420005908212030009D00F03AFA20460421383000F035FA002E02D1204601F059F82946204603F0ED
:405280006EF90F480821428B2046FFF71BF8204601F0EFFA00280AD0204600F027F8002803D009212046FFF75BFC0020F8BD08212046FFF755FC204601F064FBF5E70000FF
:4052C0005019002010B54021095C082906D0092908D00A2901D100F097F810BD0B21FFF73FFC10BD00F002F810BD000070B504460079052805D0062803D0082811D00C202F
:4053000070BD03220621204603F002FA0F480821428B2046FEF7D6FF11212046FFF720FC12E02546062140352973204603F01CFA0646AA8A0A20424301212046FEF7C2FF07
:40534000002E01D109202071002070BD5019002038B5044600200090684610F081FA002801D00D2038BD2046009D00F0CDF908202071204600F0DAFF2946204603F05BF9B5
:4053800000213D2001550F212046FFF7E9FB204601F0F8FA002038BD10B5024600F048FF10211046FFF7DCFB10BD10B50446FEF7D5FB012809D04020005D112805D1002321
:4053C0001A4606212046FFF711FE10BD10B5FFF7D6FD10BD38B5044600216846009110F03FFA00280DD12046009903F0B2F905480821428B2046FEF765FF0D212046FFF794
:40540000AFFB38BD5019002038B5044600216846009110F025FA002801D00D2038BD2046009903F08BF906480821428B2046FEF749FF0C212046FFF793FB002038BD0000EA
:405440005019002000787047F8B5002569460D70002801D0002400E0204C002C18D0204600F0EFFE002813D0207903280BD005280CD026464036B18AA07802F0FFF9B078BC
:40548000012806D020E00420207120E006202071F8BD0021204602F0DEFB274680373868002802D010F04AFA3D600020B0702046FFF7ABFB2079072802D12046FFF7BAFBED
:4054C0000221204601F078FA20790428E0D1207A694608703420FEF775F9F8BDBC19002010B54C22115400F052F810BD10B50446FF21FEF7F2FE09202071A07802F0E4F9D4
:4055000010BD000038B5FF216A461180002801D0002400E00B4C002C12D011460620FDF771F9684601882046FFF739FC204600F0C9FE002804D104480068C169204688471E
:4055400038BD0000BC1900209410002010B504468079002809D022214C200155FF212046FEF7BBFE204600F012F810BD10B5037902464032002B03D01173092B02D003E0A8
:40558000002100E02221117300F001F810BDFEB50446008900270090278120792646403600281AD0012818D0022816D0002003F01FF909E002AA01A9204602F00AFB0028EB
:4055C00007D1019810F0B0F9204602F02AFB0028F0D02046FEF782F9B776254680352868002802D010F0AAF92F606868002802D010F0A4F96F60317B002919D0009800F0D1
:4056000065F8A078002101F09BFB2046FFF7A4F8A07801F01BFDA07801F0A2F8FF212046FEF75BFE0B20FEF7DDFD00F0E1FEFEBD1F213173E2E70000F8B517460E460546E3
:4056400003F0E0FE04003CD020460C3001F03CFC2046062200211830FCF758F82046062200211230FCF752F81648224600683946436A28469847074626702846FEF76EFAC1
:40568000012148406070002D10D02889608028464030C1782171002E0FD169796171018AE180418A2181808A608106E00648008BC005C00F2071002060803946204606F064
:4056C000C0FBF8BD7810002000102E400A4610B50146002006F0FFFC10BD10B50FF036FE10BD000000B50146FFF710F8002801D0002000E00348002802D002898A4200D0B6
:40570000002000BDBC19002038B5044680346068002806D1684610F0B3F8002801D100986060606838BD000010B5014600F0C4FD0128887802D0FEF71BFA10BD90214843B2
:40574000024940186030007F10BD00009C19002070B5054604464035A87F012811D1A1789020084A484380186030067F3046FEF7DDFB002805D10220A877A078314601F01F
:405780000FFD70BD9C19002010B50C4CA07A002813D0FEF777FC0A48027F417F408B00F03BFE012809D10020A07201F03BFB05498989090B01D000F0AFFB10BD6C1A0020FC
:4057C0009C190020A0102E4070477047490510B5490F0B00FCF7ACF9060704080C0C0F073E21FFF77DFE10BD0821FFF7BFFE10BDFFF7CDFE10BDFFF7A9FE10BDF8B50746BB
:405800000025002D01D0002600E0204E01F0BCFA3046403044890021418101F0BFFA304600F00FFD01282BD1A00702D52846FFF70BFEE00602D52846FFF764FEA00601D569
:40584000FEF720FC600601D500F064FD200602D5284600F01DF8600702D5284600F01EFC380402D52846FFF7B7F9780402D52846FFF7A4F9E00703D021463046FFF7A6FFB7
:405880006D1C2D062D0EBCD0F8BD0000BC190020F8B5002801D0002400E0314C002C5DD025464035A878012858D1FF278820493700593E46002805D02A49097B890601D565
:4058C000878AC68A2046FEF749F901280CD10096E88A2A8A3B46014602F0EEFFE882A2780146104601F0D8FE2046FEF737F9012834D003F09DFD2A8A6179FEF737FF0090CB
:4059000001F0D4FC00983346283081B23A46204602F0F4FFE98AA07801F0BEFE12480188688A124E002810D048431149FBF7A4FE0004000C01D0401C80B27080A07DC1070D
:40594000C90F002002F04AF801E000207080288A698A484381B2A07801F086FFF8BD0000BC1900205019002060112E405210002071020000014909680968084794100020D3
:4059800070B505460088FFF7ADFE04002AD000F058FC002826D02079092823D0204600F0A7FC012820D02046FEF7D8F80646E07920210843E071204602F065F9002815D0AF
:4059C000294600F0D1FF4220005D002810D02325E079DF210840E0712946204602F0A1FA284670BD022070BD3A2070BD072070BD002E05D02046FFF755F90500E8D1EFE70F
:405A00000C2070BD70B50E460C2500F011FF040012D0002522892946094805F035FFFF2202212046FFF708FEA07801F065F92046FFF7ADFD022000E000203070284670BD54
:405A40000E200000FEB5044600F0F2FE002801D00C20FEBD022101A8FEF75CFE012859D168460079304F002801D0002601E03E462036002E4ED000213046FFF771F8354690
:405A8000002040356870A8700620FEF7ABFB208A6882228AE189A08902F072FF28820246608AFF23A88249330093E18AA08A02F003FFE882288AFDF78DFF6873288AFDF78D
:405AC00079FFE881184806228778A11DB030FBF714FE207901281FD06079E870A01D01F00FFEFB20074010488770217EC278012917D0FB210A40C2700C48214600688268BF
:405B000030469047B178204601F0B8FB3046FFF72FF9FEBD0920FEBD0020E87004200743E1E704210A43E6E79C1900207810002070B50D460026194A0146002801D00024E3
:405B400001E014462034002C26D0204600F0B4FB01280AD19020484380186030007FFEF7E5F9002801D102F071FD0D48006881692046884700280CD020464030817EA942BC
:405B800002D3491B817600E086762089294606F016FA204600F0F6FE70BD00009C1900209410002070B503460088FFF79BFD040013D000F046FB00280FD02079092819D055
:405BC0002546997840352973204602F0CDFD0646A878012803D0AA8A02E0022070BDEA880A20424301212046FEF76CFB002E01D109202071002070BD0EB5002217216B464F
:405C00000292198100905A810120029B00990FF035FF0EBDF8B518480024807A002822D1164E0025B089000B22E0204601F0D2F91249A039401807882A462146384600F0DF
:405C4000EBFB012810D00E480122478305770A4944778A72002D01D0002000E02030002801D000F08FFEF8BDB089000B641CE4B20028DAD1F8BD00006C1A0020A0102E404D
:405C80009C19002010B50446C0060ED500200B4A03E0002801D0002100E011460979022909D0401C0006000EF3D00548006881692046884710BD00F04DF8F6E7BC1900204D
:405CC0007810002010B50088FFF70CFD040007D04020005D082805D00B2803D00C2010BD022010BD2046FFF701FB002803D009212046FEF735FF002010BD70B50346008836
:405D0000FFF7F0FC040008D0254640352878082805D00B2803D00C2070BD022070BD8420005910220830991CFBF7E7FC2046FFF703F92878082804D02046FFF765FB0028A1
:405D400003D00A212046FEF70BFF204600F01AFE002070BD70B51C4D002801D0002401E02C4620342179022904D0002901D001F0ABFD70BD01225B210A5501F03FF9032010
:405D800020710820FEF72EFA00212046FEF7E8FE0121204600F010FE204643300121064601F0A2F809480068016A30468847024600212046FFF740FCA078FFF7DBFDA87BE0
:405DC000401CA87370BD00009C1900207810002010B50C46002121700088FFF783FC03000BD000F02EFA002807D00948F121007B0840C00603D4112010BD022010BD0220F5
:405E000020701A8A1889002106F082F9002010BD5019002070B50088FFF764FC040008D000F00FFA002804D0E079C10903D0002070BD022070BDC1068025002908DA28433D
:405E4000E07108480221428B2046FEF73BFAEEE7204600F0A5FA0028ECD1E1792943E17170BD000050190020F8B50F46002100910088FFF737FC040012D000F0E2F9002846
:405E80000ED0E079410641D4617E02264A07002A08DB8907402500291ADA2843E07135E00220F8BD03F0AEFA0021017021894180A1898180217E4170E189C1803E70054679
:405EC0000178134805F0A0FD284606F0C4F81DE0204600F0F7F9012806D068460FF0C0FC002803D00720F8BD2A20F8BDE07900992843E071204602F061FC607E04213043C2
:405F000060760448428B2046FEF7DCF90020F8BD1D040000501900203EB500220F236C460292238100910190628169460EC900200FF0A4FD3EBD0000F8B50F46054600F00F
:405F400093FC04003AD000F087F900283AD003202071254600264035EE76E6702046FEF745FF01F085FB0920FEF73CF9A07801F05BF80121204600F01FFD00212046FEF79F
:405F8000EFFD6E70AE703A4600212046FFF754FB1448817B491C8173A078FFF7EBFC00F047FC040006D00F48B03001F0A9FB2046FEF7DEFE0220FEF715F9F8BD284601F0BE
:405FC00083FCF8BD002001F07FFC0748008B4007800F012802D1054801F092FB01F052FB0120E8E79C19002000102E4080100020F8B50446002000902088FFF773FB050081
:406000001AD0FDF7ABFD002812D02348007BC00710D0284600F015F900280DD0287903280CD004280AD0072808D009282AD103E00C20F8BD1120F8BD0220F8BD2F46403784
:40604000387801281ED02846FFF75EFB06001BD00822211DFBF751FB3046A1782030017261881022090A417221460C311838FBF744FBB878002809D001212846FEF770FD8A
:406080000098F8BD0D20F8BD0720F8BD284600F0D5FA0090F8BD00005019002010B5002801D0002400E00B4C002C11D0214640314878022801D100204870A07DC107C90F8B
:4060C000002001F08BFC2046FEF79FFDFEF70AF810BD0000BC19002070B503460D460088FFF700FB04000BD000F0ABF8002807D01248F121007B0840C00603D4112070BD83
:40610000022070BD20464030418A008A491C41430804C10C5888884201D2122070BD20822079072802D12046FEF784FD022028702089002106F014F8002070BD50190020D2
:40614000016A491C016204D1817E491C4906490E81767047C169491CC16104D1C17E491C4906490EC1767047F0B5064687B003A8009005A800270D460190002E01D0002463
:4061800000E01C4C002C05D06846FBF71DFB002803D00BE0022007B0F0BD68460089C00704D1902200212046FBF7B0FA124829460068826820469047050018D1A670677691
:4061C000277100212046FEF7CBFC204600F030F8204601F022FD094820825E2007550848F121007B084000D001202075E782E8B2D1E70000BC19002094100020B80B000021
:406200005019002010B50020074B084AFF2119541418401CC0B221740428F8D31F2119541018017410BD00006C1A00209C190020002101628176C161C17620300177417753
:4062400070470079002805D0012803D0022801D001207047002070470F49008908820E49603108880D4A801F904210D28888121F0A3890420BD20889FF21F431884206D80E
:40628000074800890006C00E401F0C2801D300207047012070470000A0102E407B0C0000E0112E4040304078012803D0022801D000207047012070474030807F002800D0E3
:4062C0000120704740300078002807D0012805D0052803D00E2801D0012070470020704710B5807801F012FC002800D0012010BD074A0146927B0020002A07D040314A7890
:40630000022A02D08978012900D10120704700009C19002010B500F085FD03498989090B01D0FFF7F9FD10BDA0102E4070B5054604464035A87F002825D1FF206075A078E5
:406340009021154A484380186030417F9023491CC9B24177A0785843104B8018DB896030994201D300214177A0789021484380186030467F0677A1783046FDF7D7FD0028F0
:4063800002D00120A87770BD0220A877A078314600F006FF70BD00009C190020881A002038B5002105460091FFF78CFF012806D068460FF055FA002803D0072038BD2A204E
:4063C00038BD2846009CFDF7C9FB00280BD02146284602F0DFF805480221428B2846FDF771FF002038BD112038BD00005019002070B50024074D03E0002C01D0002000E0F5
:406400002846FEF702FC641C2406240EF4D0002070BD0000BC190020F0B516468207920F87B0000A02926A469080002E01D0002400E07F4C002C21D0084600F0CBFD07461B
:4064400068468088002810D00298032817D0002000906846808821890491214620310391497F0546012964D067E07248381801882046FEF794FC304600F048FCD6E000200B
:40648000029002A80FF0CCF9002807D03D20005D0128F3D12046FFF753FEC7E00298009068468388202B14D31F2300213846009AFCF7BAF8684680881F3885B2012305AA96
:4064C00000213846FCF7B0F86D1E2D042D0CF5D104E000213846009AFCF7A6F85548381801882046FEF75BFC304600F00FFC01AA21460098FEF750F90028009805D00FF0E4
:40650000FFF93D204C2108555EE0C677009869460078898802F0C0F900280099204602D001F090FD82E001F002FF00980FF0E8F97CE0042820D3281F80B23F49097B890674
:4065400005D5882109594989814202D314E01B2812D9012305AA00213846FCF765F86D1E2D042D0CF5D10398407F012800D07CE72046FFF7E5FD78E768460FF041F90028CB
:4065800002D0002007B0F0BD6846009D83882A1D00213846FCF748F82648381801882046FEF7FDFB304600F0B1FB2046FFF749FE002805D026464036307E00281DD107E03D
:4065C00028460FF093F931E02046FEF78FFF2DE00298012809D0022807D00398407F0128EED12046FFF7ACFDEAE7034601AA21462846FEF709F9002805D028460FF076F94D
:406600003D203073E0E70298FEF7D8FB01460498287004980901000A0843687068468088A870000AE8702846FFF7E6FA0120A9E7BC19002000102E405019002070B5017923
:406640000546032904D0042904D0072908D109E0052400E006240121FEF770FD002805D00D2070BD0824FEF747FDF7E7284600F089F92C71002070BDFEB5064602F0C2FE10
:40668000044602F0B8FE074602F0ABFE054602F0BDFE029002F0CCFE01902570280A6070280CA070280E3546E0704035687B20716771380AA071380CE071A87B2072E8897E
:4066C0002549000A6072287CA072288A0522000AE072A87C2073688A000A6073287DA073A88A000AE073204610300091FBF705F80027F770B078009901F02CF9777101988C
:406700004101029867750143A175080AE07503E0298A49004018308000F0A8FB3188042200F0B6FC01283088F2D00C4F38801821204600F08BFDA88A298AC000FAF7B2FED2
:406740003881B07800F0B6FAE98AB07800F0A4FF00F0C8FAFEBD0000AC19002000122E4010B5074A917B002901D0491E91730021FFF7FAFC002801D0002010BD012010BD30
:406780009C190020F8B5074606464037B87F00282DD0B078902100904843234945186035287F0099FDF7D7FB01281ED0287F401CC4B21E48C089A04200D800240020B87727
:4067C000FF276F772F77A87702460146009800F0A1FE717DFF2903D0304601F0D8F9777501F034FF0025114F19E00320B877F8BD00200090224669463046FEF743FA009954
:40680000002904D0FF231A463046FDF7BCFB641CF889E4B2A04200D800246D1CEDB2F889A842E5D8F8BD00009C190020881A002000B5022000F002F800BD000010B502461C
:406840000021084B03E0002901D0002000E018460479944204D0491C0906090EF3D0002010BD0000BC19002000B50120FFF7E6FF00BD10B5044602F0C5FD21890180803402
:406880006168416061682831816005F071FB10BDF7B50646087982B00C46092807D0A078F0770846FFF708FD012806D010E030460FF03AF8022005B0F0BDA1789020294A1A
:4068C000484380186030007FFDF730FB012810D0A078FEF7C5F801280BD037780121304601F092FD25462035062F38D00B2F0FD107E06846027C21463046FEF743FA0D2043
:40690000D9E72046FDF72AF9012801D1002028772046FEF709FF054604AA21463046FDF7A8FF01205F2108556946097C002001910090A07833463A46294600F0DBFB694623
:406940000A7CA0780323294601F01AF8A0782946FCF7A2FF30460EF0E7FF0020ABE70120D5E700009C1900208A8802804A884280CA8882800A89C2808A890281498941818D
:406980007047000010B502464032937F0021002B03D1927E002A00D00121064A927A002A00D000210279092A00D10121807801F035F810BD6C1A002070B50C460546FDF7EC
:4069C000CDF800280BD1012C06D92879092806D02846FFF785FC0446002C02D004E0012402E0A87DC007FAD1A87DC107C90F204600F0F4FF70BD00000B4B01280BD002288C
:406A00000BD004280BD008280CD10748A03002820548A83005E0202002E0382000E05020C01801807047000000102E40014908817047000000102E4010B50446FF20F1300B
:406A4000012C04D0022C05D0042C08D105E0FF20D53004E0FF20D93001E0FF20DD30002201F01EF8034A108A034980B2A0430880108210BD00102E4056100020034B198A9A
:406A8000034A89B2814311801982704700102E405610002010B50446012806D0022C07D0042C11D0082C07D111E0FF20D53001E0FF20D93000F0ECFF0648018A064A89B216
:406AC00021431180018210BDFF20DD30F2E7FF20F130EFE700102E4056100020034B198A034A89B2014311801982704700102E405610002070B5054604462035A87FF12245
:406B0000800012018018164A86183088400840003080002906D10121AB7FFF220903601D00F0E6FE89212046AB7F80224901113000F0DEFE83212046AB7F202249010B3044
:406B400000F0D6FE43212046AB7F40228901173000F0CEFE208801210843308070BD000000102E40F8B505460120A84086B214460F46012231467C2000F092FF3A46314668
:406B8000782000F08DFF6078267800020643E078A2780002024360792379000203430C2045430D2080010549281844182680001D44182280001D40180380F8BD00102E4052
:406BC000401880B270470000CB065B0E0343480901021943D00108430121C902084301490881704780142E404278037812021343084A1382C37880781B0218439082487841
:406C00000B78000203431383C8788978000201439183704700142E40024A1080000C90801181704700142E40044A002180180288491C89B21029FAD37047000000102E40F0
:406C4000024A10820148803081817047A0102E4010B5054A1082084600F046FF024A0021A03A8018018010BDA0102E4010B50B46044600F017F819462046FFF7E1FF10BD2B
:406C8000002310B5F121064A090118468C182380091D401CC0B289B20828F7D310BD000000102E40024A10820148803001817047A0102E4010B504490882FF20012220211A
:406CC0001D3000F0EDFE10BDA0102E4010B504490882FF20002220211D3000F0E1FE10BDA0102E4000B50349442008800420FFF7F5FE00BD00102E400349088202494520A1
:406D0000A039088070470000A0102E40000202494D3008807047000000102E40034A1082024880308088401880B27047A0102E400249888A0422904388827047C0112E4000
:406D400010B5084B074C0202A03B0029208202D075321A8010BD04490020088088807632F7E70000A0102E40201A2E40054B198807229202002801D0114300E0914319808D
:406D800070470000001F2E4000B5034908884880FFF774FE00BD00005610002000B502484088FFF79BFE00BD5610002010B5FBF7F1FD10BD014952200880704700102E4007
:406DC000034908880122D2031043088070470000001F2E40884201D8081A03E00022D243101A401880B2704700210170704710B50B4602460021F820FBF716FC10BD0000A5
:406E00000748808806492039098B884201D8081A03E00022D243101A401880B27047000020112E400148008AC0B27047A0102E4070B5084C049D2082074804890548603047
:406E400006880E8001891180808818806007400F287070BDA0102E40E0112E40024908820148803080887047A0102E400148008970470000C0102E4000280FD00D4A108BD8
:406E80000870000A4870908B8870000AC8700948203000880871000A48717047064A10880870000A487090888870000AC8701089F0E7000040102E40C0112E400148008A73
:406EC00070470000001A2E40064B1A8999891B8A0270120A42708170090AC1700371190A4171704760102E40012904D00549098BC90B017070470349403109898907C90FB2
:406F0000F7E7000000102E40FFB581B00024FF232B4D0B9E002805D0022803D003283CD006281CD12C8B2F46A004850E2007000F012802D0252D1AD916E00C2D14D1062347
:406F40000021F820FBF770FB06230021F820029AFBF76AFB002E01D0388B1CE0002304980480184605B0F0BDFFF72AFFF9E706230021F820FBF758FB062DEFD30A98002800
:406F800006D0AD1F0246ABB20021F820FBF74CFB388B002EE2D03080E0E72C8BA004800E0C28E1D106230021F820FBF73DFB06230021F820029AFBF737FB288BCEE7000019
:406FC000E0102E40024800884005C00F70470000001F2E400148408970470000881A0020044A10820448028980894843101880B270470000A0102E40881A002000B508493C
:4070000008829021074B4143C918FF2260314A770A7700228A77114600F07CFA00BD0000A0102E409C1900209021074B414300B5C918FF2260314A770A7700228A7711464F
:4070400000F068FA00BD00009C19002090225043074A10B58018FF21603041770177002181770448C18EFF201D3000F011FD10BD9C1900205019002000B5044A1082034830
:4070800080308088022200F003F800BDA0102E4010B50023884201D8081A03E00024E443201A4018044980B2884201D8824200D90123184610BD0000FF7F000070B5547844
:4070C000157824022543D47888232602947834435679127936023243002900D09823044908820348A038181805808480028170BDA0102E40FFB581B014460D4607460A9E10
:407100000B9BFFF76DFF002E0AD0009333460021049AFBF719FB05484019C45505B0F0BD0021049AFBF7F6FAF5E700005A10002070B502460448054D808808242C800B460A
:407140000021FBF7E7FA70BD881A0020A0142E4010B5212402466401044953200880102300212046FBF7D6FA10BD000000102E40417802780902044B0A431A83C17880789C
:40718000090208439883704760142E40034A1082802001430148803001817047A0102E40054A1082044A6032908B0009000108439115084390837047A0102E4030B50021A2
:4071C0000F4B0A46012809D0032802D005280AD107E04021198102210A2204E004210C2201E004210D221882054C20342088C0B205460D42FAD022800021198230BD000039
:4072000080142E4010B5044607480482074801808280032189030820FFF73CFC200202497530A039088010BDA0102E40201A2E40054A1082044A60321183000202494B306D
